:020000040800F2
:10000000300A0020D5090008D9070008DB070008DE
:10001000DF070008E3070008E7070008000000000A
:10002000000000000000000000000000EB070008D6
:10003000ED07000800000000EF070008F1070008C6
:10004000EF090008EF090008EF090008EF090008B0
:10005000EF090008EF090008EF090008EF090008A0
:10006000EF090008EF090008EF090008EF09000890
:10007000EF090008EF090008EF090008EF09000880
:10008000EF090008EF090008EF090008EF09000870
:10009000EF090008EF090008EF090008EF09000860
:1000A000EF09000839050008EF090008EF0900080A
:1000B000EF090008EF090008EF090008EF09000840
:1000C000EF090008EF090008EF090008EF09000830
:1000D000EF0900089F250008EF090008EF09000854
:1000E000EF090008EF090008EF090008EF09000810
:1000F000EF090008EF090008EF090008EF09000800
:10010000EF090008EF090008EF090008EF090008EF
:10011000EF090008EF090008EF090008EF090008DF
:10012000EF090008EF090008EF090008EF090008CF
:1001300000F002F800F05AF80AA090E8000C82449F
:100140008344AAF10107DA4501D100F04FF8AFF27C
:10015000090EBAE80F0013F0010F18BFFB1A43F0A5
:1001600001031847DC5F0000FC5F00000A444FF009
:10017000000C10F8013B13F0070408BF10F8014B06
:100180001D1108BF10F8015B641E05D010F8016B4B
:10019000641E01F8016BF9D113F0080F1EBF10F8AF
:1001A000014BAD1C0C1B09D16D1E58BF01F801CBD2
:1001B000FAD505E014F8016B01F8016B6D1EF9D555
:1001C0009142D6D37047000000230024002500266A
:1001D000103A28BF78C1FBD8520728BF30C148BFAA
:1001E0000B6070471FB51FBD10B510BD04F0DEF9E0
:1001F0001146FFF7F7FF00F010F904F0FCF903B423
:10020000FFF7F2FF03BC02F06FF9000028B30128EA
:1002100004D002280CD0032828D113E00121FE4A83
:100220001160FE4AC2F8B8110021FD4A11601EE0BB
:100230000021F94A11600121F84AC2F8B811F84AC0
:10024000116014E00121F44A11600021F34AC2F860
:10025000B8110121F24A116009E00021EE4A116053
:10026000EE4AC2F8B811EE4A116000E000BF00BFCC
:1002700070471FB50121C80200F056FF41F28730D8
:10028000ADF808004720ADF804000020ADF80A00E2
:10029000ADF8060001A9E34801F07EF801221146FD
:1002A000E04801F0F0FB19208DF8000002208DF8E5
:1002B00001008DF8020001208DF80300684600F06F
:1002C000AEFB0020D749303108800121D54801F02C
:1002D000BFFB1FBD40F6B830D3490880091D088018
:1002E000091D0880091D0880704700B589B00121EB
:1002F000022000F026FFC020ADF8200003208DF87A
:10030000220018208DF8230008A9C84800F050FCEE
:100310000320ADF820008DF8220018208DF823006E
:1003200008A9C34800F044FC42F20F70ADF8180071
:100330001720ADF814000020ADF81A00ADF8160033
:1003400005A9B948343801F027F86020ADF8040059
:100350000120ADF806000020ADF80A00ADF80C0051
:1003600001A9B148343801F054F80821AE483438B6
:1003700001F09EFC01A9AC48343801F08CF808214A
:10038000A948343801F09DFC01A9A748343801F090
:10039000CFF80821A448343801F0A0FC01A9A248F4
:1003A000343801F010F908219F48343801F09FFCDF
:1003B00001219D48343801F04BFC01219A48343822
:1003C00001F052FB01219848343801F041FB09B09B
:1003D00000BD08B54FF44040ADF8000010208DF886
:1003E000030003208DF802006946914800F0E0FB0D
:1003F0004FF48070ADF8000069468C4800F0D8FBDF
:1004000008BD10B500F065FA01210C2000F08CFE4B
:100410000121084600F07BFE10BD01F0FBFFFFF755
:10042000F0FFFFF7D6FF0120FFF7F0FEFFF75DFFBB
:10043000FFF750FF02F022FC4FF4E13002F063F8C6
:100440004FF4487002F023F802F090FA10B1032044
:10045000FFF7DCFEC82002F01AF802F0B2FBFFF74B
:1004600008FF0220FFF7D2FE00BFFEE7002071491F
:100470000B780246401C70498B546E494B780246FB
:10048000401C6D498B546B498B780246401C6A496D
:100490008B546849CB780246401C67498B546749A6
:1004A0000B780246401C64498B5464494B780246E1
:1004B000401C61498B5461498B780246401C5E495F
:1004C0008B545E49CB780146421CD0B25A4A5354F1
:1004D0005B490B780146421CD0B2574A53545849E5
:1004E0004B780146421CD0B2534A535454498B783E
:1004F0000146421CD0B2504A53545149CB78014670
:10050000421CD0B24C4A535400230146421CD0B284
:10051000494A53540146421CD0B2474A535480239F
:100520000146421CD0B2444A53547F230146421C28
:10053000D0B2414A535470472DE9F04F85B00121A4
:10054000384801F04EFD002864D00121354801F003
:1005500059FD3C4A3C493D4802F0B0FA3C4A3D490D
:100560003D4802F083FA3C48B0F9000005F038FB42
:1005700082463A480168504605F07CFC814605F009
:1005800097F90746364A374B04F0D6FC054604F087
:10059000E5FB354908602F48B0F9000005F020FB65
:1005A000824632480168504605F064FC814605F0F9
:1005B0007FF907462A4A2B4B04F0BEFC054604F09F
:1005C000CDFB2B4908602248B0F9000005F008FB7C
:1005D000824628480168504605F04CFC814605F0EB
:1005E00067F907461E4A1F4B04F0A6FC054604F0B7
:1005F000B5FB2149086003F057FB2049D1F82801D9
:1006000005F056F907464FF066321D4B04F094FC96
:10061000054637E0C9E00000A001214200802142E8
:10062000BC812142002C01403404004000080140FC
:10063000000C01405C000020CC0100206000002084
:1006400064000020040000200200002000000020C0
:100650000A000020080000200600002050000020B2
:10066000FCA9F1D24D6230400C0000205400002063
:10067000100000205800002014000020DC010020A1
:1006800066A64C4004F06AFB81464949D1F80C014A
:1006900005F00EF907464FF06632464B04F04CFC6D
:1006A000054604F05BFB82464149D1F8F00005F0B5
:1006B000FFF807464FF066323E4B04F03DFC05461E
:1006C00004F04CFB83463C493C4A3D4B3848D0F84B
:1006D000D400CDE90232049101903548D0F8B4003D
:1006E000009033484A465146D0F89430584603F0BB
:1006F0002FFB3448007828B1002033490860FFF709
:10070000E9FD33E00120304908602949D1F828018A
:1007100005F0CEF807464FF06632264B04F00CFC8D
:10072000054604F01BFB83462149D1F80C0105F076
:10073000BFF807464FF066321E4B04F0FDFB05463E
:1007400004F00CFB81461A49D1F8F00005F0B0F82E
:1007500007464FF06632174B04F0EEFB054604F0F7
:10076000FDFA82465A46494602F0B2FB1748007825
:10077000401C1649087008460078052815D1FFF777
:1007800075FE00240CE01248015D124801F07AFD6C
:1007900000BF40210F4801F0E3FD0128F9D1641C9E
:1007A000102CF0DB00200949087005B0BDE8F08F7F
:1007B000DC01002066A64C406400002060000020A0
:1007C0005C00002018000020BC812142190000209C
:1007D000CC01002000380140704700BFFEE700BF99
:1007E000FEE700BFFEE700BFFEE7704770477047B7
:1007F000704700000CB50020019000906C48006824
:1008000040F480306A49086000BF6948006800F41D
:10081000003000900198401C0190009818B9019890
:10082000B0F5A06FF1D16248006800F4003010B15B
:100830000120009001E0002000900098012843D1A1
:100840005C48006840F010005A490860084600689B
:1008500020F0030008600846006840F002000860CD
:100860005348406852494860084640684860084616
:10087000406840F4806048600846406820F47C107E
:1008800048600846406840F4E81048600846006840
:1008900040F08070086000BF4548006800F00070BC
:1008A0000028F9D04248406820F0030040494860E1
:1008B0000846406840F00200486000BF3C4840687D
:1008C00000F00C000828F9D10CBD10B5FFF792FF1D
:1008D00010BD10B53648006840F00100344908608A
:1008E0000846406834490840314948600846006875
:1008F000324908402E4908600846006820F48020EC
:1009000008600846406820F4FE0048604FF41F006D
:100910008860FFF7DAFF4FF000602949086010BDDA
:1009200010B5002100200022214B5B6803F00C0170
:1009300021B1042906D0082928D107E0214B224CF7
:10094000236027E01F4B204C236023E0184B5B689B
:1009500003F47010164B5B6803F48032022303EB40
:10096000904022B9194B4343174C23600DE0104BC4
:100970005B6803F4003323B1144B4343124C2360F0
:1009800003E0104B4343104C236003E00D4B0E4C2F
:10099000236000BF00BF064B5B68C3F303130C4C1E
:1009A000E15C094B1B68CB40074C236010BD000085
:1009B00000100240002002400000FFF8FFFFF6FE9A
:1009C00008ED00E000127A001C00002000093D0044
:1009D000200000200948804709480047FEE7FEE75D
:1009E000FEE7FEE7FEE7FEE7FEE7FEE7FEE7FEE7DF
:1009F00004480549054A064B70470000D308000823
:100A00003101000830040020300A002030060020A8
:100A10003006002031490143314A1160704770B5FA
:100A2000002100230F22C47804B32D4C246804F461
:100A3000E064C4F5E064210AC1F10403CA404478CB
:100A400004FA03F18478144021430901254C067807
:100A5000A155047804F01F050124AC4005786D1100
:100A6000AD0005F1E025C5F8004109E0047804F087
:100A70001F050124AC401C4D0678761145F8264030
:100A800070BD1A4A0A400243154B1B1F1A6070477B
:100A900039B1134A121D12680243114B1B1D1A6013
:100AA00006E00F4A121D126882430D4B1B1D1A608F
:100AB0007047042808D14FF0E021096941F0040192
:100AC0004FF0E022116107E04FF0E021096921F0C9
:100AD00004014FF0E0221161704700000000FA05A8
:100AE0000CED00E000E400E080E100E080FFFF1F8B
:100AF00010B50446CC48844208D10121042000F0FE
:100B00002DFB0021042000F029FB46E0C748844269
:100B100008D10121082000F021FB0021082000F06D
:100B20001DFB3AE0C248844208D10121102000F0A8
:100B300015FB0021102000F011FB2EE0BD4884427F
:100B400008D10121202000F009FB0021202000F025
:100B500005FB22E0B848844208D10121402000F082
:100B6000FDFA0021402000F0F9FA16E0B348844273
:100B700008D10121802000F0F1FA0021802000F04E
:100B8000EDFA0AE0AE48844207D10121801500F059
:100B9000E5FA0021A01500F0E1FA10BD10B5012121
:100BA000084600F0DBFA0021012000F0D7FA10BD62
:100BB0002DE9F041024600250026002000230024F4
:100BC000002791F803C00CF00F0591F803C00CF05A
:100BD000100CBCF1000F03D091F802C04CEA0505DF
:100BE00091F800C0BCF1000F31D0146800202BE058
:100BF0004FF0010C0CFA00F3B1F800C00CEA030648
:100C00009E4220D183004FF00F0C0CFA03F7BC4337
:100C100005FA03FC4CEA040491F803C0BCF1280F68
:100C200006D14FF0010C0CFA00FCC2F814C00AE027
:100C300091F803C0BCF1480F05D14FF0010C0CFA3C
:100C400000FCC2F810C0401C0828D1D31460B1F8D1
:100C500000C0BCF1FF0F34DD546800202EE000F12D
:100C6000080C4FF0010808FA0CF3B1F800C00CEAC8
:100C700003069E4221D183004FF00F0C0CFA03F7BC
:100C8000BC4305FA03FC4CEA040491F803C0BCF130
:100C9000280F05D100F1080C08FA0CF8C2F81480EE
:100CA00091F803C0BCF1480F07D100F1080C4FF0D8
:100CB000010808FA0CF8C2F81080401C0828CED3AE
:100CC0005460BDE8F0814FF6FF7101800221817010
:100CD0000421C17070470246002093680B400BB19D
:100CE000012000E0002070470146886880B270470C
:100CF00002460020D3680B400BB1012000E0002029
:100D000070470146C86880B2704701617047416111
:100D100070470AB1016100E041617047C1607047EE
:100D20004FF480320A438261816182618269826903
:100D3000704702460020434B18684FF680731840F6
:100D400040EA021008433F4B186070473E49C861B3
:100D50007047F0B50A46002300240021002500F06A
:100D60000046B6F1004F02D1364EF16901E0354E32
:100D70007168C0F3034583B200F44016B6F5401F16
:100D800008D121F070612F4E766826F070662D4FE5
:100D90007E6012E000F48016B6F5801F06D10326AF
:100DA00006FA05F4A14341F0706106E0460D3601F4
:100DB00003FA06F6B14341F0706122B1460D3601E7
:100DC00003FA06F6314300F00046B6F1004F02D1B7
:100DD0001C4EF16101E01B4E7160F0BD30B5002288
:100DE0008B071C0F0F2303FA04F2164B08338C10E9
:100DF00053F824309343134C08348D1044F82530B5
:100E000023468C1053F824308C07240F00FA04F486
:100E100023430C4C08348D1044F8253030BD0A496A
:100E2000DC3108607047000000080140000C014000
:100E3000001001400014014000180140001C014056
:100E4000002001400000014000002042DF4800680F
:100E500040F00100DD49086008464068DC49084070
:100E6000DA49486008460068DA490840D74908600E
:100E70000846006820F4802008600846406820F496
:100E8000FE0048604FF41F0088607047CF49096832
:100E900021F48031CD4A11601146096821F4802186
:100EA0001160B0F5803F03D0B0F5802F0ED106E081
:100EB000C649096841F48031C44A116007E0C3495A
:100EC000096841F4A021C14A116000E000BF00BFE1
:100ED000704710B501460022002300204A11012A64
:100EE00002D1BA4C236806E0022A02D1B74C236A29
:100EF00001E0B64C636A01F01F02012494401C40DB
:100F00000CB1012000E0002010BD38B50020009099
:100F10000024002500BF3120FFF7DBFF05460098C5
:100F2000401C00900098B0F5A06F01D0002DF2D0C9
:100F30003120FFF7CEFF08B1012400E00024204655
:100F400038BD01460020A14A106820F0F80040EAB0
:100F5000C10010607047A049086070470246002039
:100F60009A4B586820F47C1042EA01031843974BCF
:100F70005860704798490866704701460020934AB8
:100F8000506820F003000843506070478F48406865
:100F900000F00C007047014600208C4A506820F099
:100FA000F00008435060704701460020874A5068AF
:100FB00020F4E06008435060704701460020834AF7
:100FC000506820F4605040EAC1005060704729B179
:100FD0007E4A527A02437D4B5A7204E07B4A527A2F
:100FE00082437A4B5A7270477B49D8310860704708
:100FF00001460020754A506820F440400843506084
:1010000070470021714A20321170704A82F8201016
:10101000012802D004280AD104E001216B4A2032C1
:10102000117005E00521694A2032117000E000BF0F
:1010300000BF70476949086070476449096A014305
:10104000624A11627047654944390860704730B59B
:1010500000210022002400235C4D6D6805F00C0186
:1010600021B1042905D0082923D105E05C4D056094
:1010700022E05B4D05601FE0544D6D6805F4701271
:10108000524D6D6805F48034022505EB92421CB97F
:10109000544D554305600BE04C4D6D6805F400352B
:1010A0001DB1504D5543056002E04D4D554305605F
:1010B00002E04B4D056000BF00BF444D6D6805F078
:1010C000F0010909484D6B5C0568DD4045603F4D06
:1010D0006D6805F4E061090A434D6B5C4568DD40CD
:1010E00085603A4D6D6805F46051C90A3E4D6B5CF0
:1010F0004568DD40C560354D6D6805F44041890B9C
:101100003A4D6B5CC568B5FBF3F5056130BD29B19F
:101110002E4A526902432D4B5A6104E02B4A526910
:1011200082432A4B5A61704729B1284A9269024387
:10113000264B9A6104E0254A92698243234B9A61C7
:10114000704729B1214AD2690243204BDA6104E099
:101150001E4AD26982431D4BDA61704729B11B4A8E
:10116000D2680243194BDA6004E0184AD26882431D
:10117000164BDA60704729B1144A12690243134BC7
:101180001A6104E0114A12698243104B1A617047D8
:1011900012494039086070470F49C86470470B49CD
:1011A000C87170470948406A40F08070074948623A
:1011B000704701460020054A92680A400AB10120A2
:1011C00000E000207047014988727047001002401B
:1011D0000000FFF8FFFFF6FE00004242800442429A
:1011E00000127A0000093D0030000020400000207D
:1011F00010B50446FE48844208D10121C014FFF70F
:10120000ADFF0021E014FFF7A9FFC4E0B4F1804F67
:1012100008D101210846FFF7AEFF00210120FFF7AA
:10122000AAFFB8E0F348844208D101210220FFF769
:10123000A2FF00210220FFF79EFFACE0EE488442AF
:1012400008D101210420FFF796FF00210420FFF7B9
:1012500092FFA0E0E948844208D101210820FFF76D
:101260008AFF00210820FFF786FF94E0E4488442CB
:1012700008D101211020FFF77EFF00211020FFF789
:101280007AFF88E0DF48844208D101212020FFF75F
:1012900072FF00212020FFF76EFF7CE0DA488442D5
:1012A00008D101214014FFF759FF00216014FFF716
:1012B00055FF70E0D548844209D10121C804FFF7E9
:1012C0004DFF00214FF40020FFF748FF63E0D048B6
:1012D000844209D101210805FFF740FF00214FF4A6
:1012E0008010FFF73BFF56E0CA48844209D1012134
:1012F0004805FFF733FF00214FF40010FFF72EFFE2
:1013000049E0C548844208D101214020FFF733FF5E
:1013100000214020FFF72FFF3DE0C048844208D164
:1013200001218020FFF727FF00218020FFF723FF06
:1013300031E0BB48844208D101218015FFF71BFF33
:101340000021A015FFF717FF25E0B648844209D118
:1013500001210804FFF702FF00214FF48030FFF75E
:10136000FDFE18E0B048844209D101214804FFF78E
:10137000F5FE00214FF40030FFF7F0FE0BE0AB4824
:10138000844208D101218804FFF7E8FE00214FF4D0
:101390008020FFF7E3FE10BD00220288944B9842A4
:1013A0000ED0994B98420BD0B0F1804F08D0914BA2
:1013B000984205D0904B984202D0904B984204D16D
:1013C0004FF68F731A404B881A438D4B984207D0C3
:1013D0008C4B984204D04FF6FF431A40CB881A43F7
:1013E00002808B8883850B880385814B98420BD0C4
:1013F000854B984208D08B4B984205D08A4B984237
:1014000002D08A4B984201D10B7A03860123838252
:10141000704770B5002400220023058C4FF6FE763D
:1014200035400584028C8388048B4FF68F752C40E1
:10143000B51E2C400D882C43751E2A400D892A4369
:101440004D882A436A4DA8420BD06F4DA84208D060
:10145000744DA84205D0744DA84202D0734DA842E5
:1014600013D14FF6F7752A404D892A434FF6FB7585
:101470002A408D882A434FF6FF652B404FF6FF55D3
:101480002B408D892B43CD892B4383800483CD88CA
:101490008586028470BD70B5002400220023058C6F
:1014A0004FF6EF7635400584028C8388048B48F62E
:1014B000FF752C404FF6FF452C400D884FF6FF7608
:1014C00006EA05252C434FF6DF752A400D8906EA0A
:1014D00005152A434D8806EA05152A43444DA842BE
:1014E00002D0494DA8421DD14FF67F752A404D8943
:1014F0004FF6FF7606EA05152A434FF6BF752A40D8
:101500008D8806EA05152A434FF6FF352B404FF22A
:10151000FF752B408D8906EA85052B43CD8906EAA8
:1015200085052B4383800483CD880587028470BDA5
:1015300070B5002400220023058C4FF6FF6635406D
:101540000584028C8388848B4FF68F752C404FF670
:10155000FC752C400D882C434FF6FF552A400D8911
:101560004FF6FF7606EA05252A434D8806EA05254B
:101570002A431F4DA84202D0234DA8421DD14FF24D
:10158000FF752A404D894FF6FF7606EA05252A4366
:101590004FF6FF352A408D8806EA05252A434EF688
:1015A000FF752B404DF6FF752B408D8906EA05151A
:1015B0002B43CD8906EA05152B4383808483CD8890
:1015C0008587028470BD70B5002200230024058C3D
:1015D0004EF6FF7635400584038C8488828B48F66E
:1015E000FF752A404FF6FF452A400D8820E0000095
:1015F000002C01400004004000080040000C0040A6
:10160000001000400014004000340140004C014034
:10161000005001400054014000180040001C0040F0
:1016200000200040004001400044014000480140CB
:101630004FF6FF7606EA05252A434DF6FF752B4047
:101640000D8906EA05352B434D8806EA05352B43FF
:10165000FA4DA84202D0FA4DA84208D14BF6FF75C8
:101660002C408D894FF6FF7606EA85152C43848041
:101670008283CD88A0F84050038470BD828B4FF2E6
:10168000FF331A408283828B4FF6FF7303EA0123F4
:101690001A4382837047F0B50C461546002200219C
:1016A0000026078C4EF6FF7C07EA0C070784828B26
:1016B000018C4FF6FF7707EA043640F6FF473A40C1
:1016C0004FF6FF7707EA05273A434FF6FF7707EA19
:1016D00003373A43D94FB8420ED0D94FB8420BD056
:1016E000B0F1804F08D0D74FB84205D0D64FB8429E
:1016F00002D0D64FB84206D14DF6FF77394046F4B6
:101700008057394305E047F6FF57394044F4805786
:10171000394382830184F0BD828B4FF6F3731A4004
:101720008283828B0A4382837047F0B50C4615464C
:10173000002200210026078C4FF6FF6C07EA0C07F9
:101740000784828B018C4FF6FF7707EA04264FF659
:101750000C773A404FF6FF7707EA03172F433A43D7
:10176000B64FB8420ED0B64FB8420BD0B0F1804F52
:1017700008D0B44FB84205D0B34FB84202D0B34FEF
:10178000B84206D14FF6FF57394046F480773943C7
:1017900005E04FF2FF57394044F4807739438283A4
:1017A0000184F0BD028B4FF2FF331A400283028B9B
:1017B0004FF6FF7303EA01231A4302837047F0B523
:1017C0000C461546002200210026078C4FF6EF7CC0
:1017D00007EA0C070784028B018C4FF6FF7707EAB4
:1017E000041640F6FF473A404FF6FF7707EA033703
:1017F0003A434FF6FF7707EA05273A438F4FB8423F
:101800000ED08F4FB8420BD0B0F1804F08D08D4F23
:10181000B84205D08C4FB84202D08C4FB84206D1A6
:101820004FF6DF77394046F01007394305E04FF6B1
:101830005F77394044F01007394302830184F0BDDB
:10184000028B4FF6F3731A400283028B0A43028322
:101850007047F0B50C46154600220021068C4FF665
:10186000FE773E400684028B018C4FF60C763240A8
:101870007E1C06EA03162E433243704EB0420ED051
:101880006F4EB0420BD0B0F1804F08D06D4EB042D9
:1018900005D06D4EB04202D06C4EB04206D14FF62C
:1018A000FD76314044F00106314305E04FF6F57610
:1018B000314044F00106314302830184F0BD70B52C
:1018C00005460C465D4885420ED05D4885420BD0EA
:1018D000B5F1804F08D05B48854205D05A48854213
:1018E00002D05A48854200D100E000BF208850B99C
:1018F0002389A28861882846FFF7ABFFE188284644
:10190000FFF79EFF25E0208804280AD12389A288BA
:1019100061882846FFF753FFE1882846FFF742FF1A
:1019200017E0208808280AD12389A28861882846E0
:10193000FFF7FBFEE1882846FFF7EEFE09E023896A
:10194000A28861882846FFF7A6FEE1882846FFF7AF
:1019500095FE70BD2DE9F04105460C460026012795
:10196000608808B9022600E00026A088012801D17D
:10197000022700E001272088A0B92389A288618876
:101980002846FFF766FFE1882846FFF759FF2389BD
:101990003A4631462846FFF712FFE1882846FFF70E
:1019A00001FF13E02389A28861882846FFF707FF1B
:1019B000E1882846FFF7F6FE23893A463146284655
:1019C000FFF747FFE1882846FFF73AFFBDE8F081BF
:1019D0000A884B881A438B881A43CB881A430B8991
:1019E0001A434B891A438B891A43A0F84420704745
:1019F0004FF6FF71818000210180C180418001721A
:101A000070470021018041808180C1800181418136
:101A10008181C18170470021018041800121818045
:101A20000021C180018170470021018041808180B7
:101A3000C18001814181818170470000002C0140FB
:101A4000003401400004004000080040000C004049
:101A500021B1028842F00102028004E002884FF6C0
:101A6000FE731A400280704731B1B0F8442042F44E
:101A70000042A0F8442005E0B0F84420C2F30E0272
:101A8000A0F8442070471AB183890B43838102E098
:101A900083898B43838170478182704741EA0203C7
:101AA000A0F8483070471AB183890B43838102E064
:101AB00083898B438381704701894FF6F872114007
:101AC000018170470A46002101894FF68F73194042
:101AD00011430181704730B504460D462946204622
:101AE000FFF7F0FF208940F00700208130BD2DE98D
:101AF000F04104460D4616461F46602D06D13B4672
:101B0000012231462046FFF75AFE05E03B460122FE
:101B100031462046FFF79DFE29462046FFF7D2FFBB
:101B2000208940F007002081BDE8F08130B50C46E7
:101B300000210189C9B24FF6FF7505EA0325154357
:101B400025432943018130BD2DE9F04105460E466C
:101B500017469846002443463A4631462846FFF742
:101B6000E5FF2C894FF6F870044044F007044FF667
:101B70008F70044044F070042C81BDE8F081F0B512
:101B800004460D4616461F463B4632462946204629
:101B9000FFF7CCFF208940F480402081F0BD018513
:101BA000828270470A46002101884FF68F731940E0
:101BB000114301807047F0B50C4615461E460021C2
:101BC000002200230189028B038C4FF6F8773940FD
:101BD00021434FF6FC473A4040F201173A434FF693
:101BE000DD773B404FF6FF7707EA06172F433B436D
:101BF000018102830384F0BD0A460021018B4FF668
:101C00008F7319401143018370470A460021018BED
:101C100048F6FF7319404FF6FF7303EA0223194396
:101C2000018370470A460021818B4FF68F7319405C
:101C30001143818370470A460021818B48F6FF7368
:101C400019404FF6FF7303EA02231943818370475B
:101C500021B1028842F08002028004E002884FF63F
:101C60007F731A400280704721B1828842F00402DB
:101C7000828004E082884FF6FB731A4082807047AE
:101C800021B1828842F00802828004E082884FF607
:101C9000F7731A408280704721B1828842F00102B6
:101CA000828004E082884FF6FE731A40828070477B
:101CB0000A460021018B4FF6F77319401143018347
:101CC00070470A460021018B4FF2FF7319404FF60F
:101CD000FF7303EA02231943018370470A46002178
:101CE000818B4FF6F77319401143818370470A4681
:101CF0000021818B4FF2FF7319404FF6FF7303EA07
:101D000002231943818370470A460021018B4FF655
:101D1000FB7319401143018370470A460021018B70
:101D20004FF6FF3319404FF6FF7303EA02231943BE
:101D3000018370470A460021818B4FF6FB731940DF
:101D40001143818370470A460021818B4FF6FF3390
:101D500019404FF6FF7303EA02231943818370474A
:101D60000A460021018B4FF67F731940114301830E
:101D700070470A460021018BC1F30E014FF6FF7335
:101D800003EA02231943018370470A460021818B2D
:101D90004FF67F7319401143818370470A46002133
:101DA000818BC1F30E014FF6FF7303EA022319433F
:101DB000818370470A460021018C4FF6FD7319405C
:101DC0001143018470470A460021018C4FF6F773D6
:101DD00019401143018470470A460021018C4FF6D7
:101DE000DF7319404FF6FF7303EA021319430184AE
:101DF00070470A460021018C4FF67F7319404FF659
:101E0000FF7303EA02131943018470470A46002155
:101E1000018C4FF6FF5319404FF6FF7303EA02237C
:101E20001943018470470A460021018C4FF2FF7369
:101E300019404FF6FF7303EA0223194301847047E8
:101E40000A460021018C4DF6FF7319404FF6FF73CF
:101E500003EA023319430184704730B5002301249B
:101E60008C40A3B2048C9C430484048C02FA01F5D8
:101E7000ADB22C43048430BD30B5002304248C4023
:101E8000A3B2048C9C430484048C02FA01F5ADB225
:101E90002C43048430BD70B503460020002418464E
:101EA000183001258D40ACB21D8CA5431D8409B1AD
:101EB000082909D100EB6100056825F0700505606F
:101EC0000568154305600EE00D1FC5F34E05284457
:101ED000056825F4E045056005684FF6FF7606EADB
:101EE00002263543056070BD21B1028842F002022E
:101EF000028004E002884FF6FD731A4002807047AA
:101F000021B1028842F00402028004E002884FF608
:101F1000FB731A400280704721B1828842F0800230
:101F2000828004E082884FF67F731A408280704777
:101F300002884FF6F7731A40028002880A43028033
:101F4000704782884FF68F731A40828082880A43D6
:101F50008280704702894FF6F8731A400281028925
:101F60000A430281704702894FF67F731A4002814B
:101F700002890A43028170478184704781857047D6
:101F8000818670470187704781877047A0F84010AD
:101F9000704702884FF6FF431A40028002880A43C6
:101FA000028070470146888E70470146088F70474F
:101FB0000146888F70470146B1F8400070470146DE
:101FC000888C70470146088D704702460020138AAE
:101FD0000B400BB1012000E000207047CA43028291
:101FE000704730B50246002000230024158A05EA18
:101FF0000103958905EA010413B10CB1012000E049
:10200000002030BDCA4302827047000010B504466C
:10201000FB48844209D101218803FFF79FF8002182
:102020004FF48040FFF79AF832E0F648844209D135
:1020300001214804FFF79FF800214FF40030FFF71B
:102040009AF825E0F048844209D101218804FFF77D
:1020500092F800214FF48020FFF78DF818E0EB484C
:10206000844209D10121C804FFF785F800214FF40B
:102070000020FFF780F80BE0E548844208D10121F9
:102080000805FFF778F800214FF48010FFF773F888
:1020900010BD2DE9F04786B005460E460024A24645
:1020A00000BFA1460027B08900B100BF2F462C8A8F
:1020B0004CF6FF700440F08804432C82AC894EF645
:1020C000F3100440B0883189084371890843044300
:1020D000AC81AC8A4FF6FF400440B0890443AC8227
:1020E00001A8FEF7B4FFC648874202D1DDF810A070
:1020F00001E0DDF80CA0A88900F4004040B10AEB33
:10210000CA0000EB0A1031684900B0FBF1F807E0A3
:102110000AEBCA0000EB0A1031688900B0FBF1F845
:102120006420B8FBF0F004012009642101FB108950
:10213000A88900F4004040B1322000EBC900B0FB98
:10214000F1F000F00700044308E0322000EB091032
:102150006421B0FBF1F000F00F0004432C8106B0C5
:10216000BDE8F0874FF41651016000218180C180E5
:1021700001810C21418100218181704710B5024607
:102180000020108A4FF2FF0318400B884C8823432D
:102190008C882343CC8823431843108210BD002130
:1021A000018041808180C180704721B1828942F4E1
:1021B0000052828104E082894DF6FF731A408281C9
:1021C0007047F0B50346002400260025002040F6A5
:1021D0006A17B94200D100BF1846C1F3421401F09A
:1021E0001F06012707FA06F5012C01D10C3004E087
:1021F000022C01D1103000E014301AB107682F43CF
:10220000076002E00768AF430760F0BD1AB1838A38
:102210000B43838202E0838A8B4383827047028A66
:102220004FF6F0731A400282028A0A430282704714
:1022300082894FF2FF731A40828182890A43828128
:10224000704721B1828942F00202828104E08289D2
:102250004FF6FD731A4082817047028A4FF6DF7392
:102260001A400282028A0A430282704721B1028A1E
:1022700042F48042028204E0028A4BF6FF731A4065
:1022800002827047C1F30802828070470146888845
:10229000C0F308007047818941F0010181817047D6
:1022A000028BD2B20283028B42EA01220283704780
:1022B000028B02F47F420283028B0A43028370473F
:1022C00021B1828A42F02002828204E0828A4FF6A3
:1022D000DF731A408282704721B1828A42F0100275
:1022E000828204E0828A4FF6EF731A40828270473E
:1022F00021B1828A42F00802828204E0828A4FF68B
:10230000F7731A408282704721B1828942F40042F9
:10231000828103E08289C2F30E028281704721B17B
:10232000828A42F40062828204E0828A4FF2FF7362
:102330001A4082827047828A4FF6FB731A4082826B
:10234000828A0A438282704721B1828A42F0020265
:10235000828204E0828A4FF6FD731A4082827047BF
:1023600002460020B1F5007F00D100BF13880B406A
:102370000BB1012000E00020704701F40072B2F5BB
:10238000007F00D100BFCA430280704770B502468B
:10239000002400230025002040F66A16B14200D137
:1023A00000BFC1F3421501F01F03012606FA03F333
:1023B000012D02D19689334006E0022D02D1168A02
:1023C000334001E0968A33400C12012606FA04F4E9
:1023D0001688344013B10CB1012000E0002070BD1C
:1023E00010B50022002340F66A14A14200D100BFBC
:1023F0000A1201249440A3B2DC43048010BD000003
:10240000003801400044004000480040004C0040BB
:102410000050004010B56FF00400FEF74AFB2E4854
:1024200000682E49B0FBF1F02D490870084600788D
:1024300000EB4001C1EBC0104FF6FF7101EAC00094
:102440002849088010BD0146254A12784A434FF0BA
:10245000E0235A6100229A611A46126942F0010291
:102460001A6100BF4FF0E022106900F001021AB1BA
:1024700000F48032002AF5D04FF0E022126922F0F9
:1024800001024FF0E0231A6100229A617047014671
:10249000144A12884A434FF0E0235A6100229A619D
:1024A0001A46126942F001021A6100BF4FF0E022A1
:1024B000106900F001021AB100F48032002AF5D050
:1024C0004FF0E022126922F001024FF0E0231A617E
:1024D00000229A61704700001C00002000127A0060
:1024E0004400002046000020014600BF704700BFA6
:1024F000494A128802F04002002AF9D0C2B2464B83
:102500001B1D1A80704710B586B00446012144F2A5
:102510000400FEF709FE4FF40070ADF8140003202C
:102520008DF8160018208DF8170005A93B48FEF716
:102530003FFB4FF48060ADF8140004208DF81700C5
:1025400005A93648FEF734FB25208DF8000003204E
:102550008DF801008DF8020001208DF80300684617
:10256000FEF75DFA01940020ADF80800ADF80A000E
:10257000ADF80C00ADF810000C20ADF80E0001A96C
:102580002548FFF786FD012240F225512248FFF73A
:1025900018FE01212048FFF708FE06B010BD10B557
:1025A00040F225511C48FFF7F1FE10B31A48FFF71F
:1025B0006DFEC4B21A48008800F40040C8B918483B
:1025C000008800F4804060B10A2C03D00020144938
:1025D000088020E01248008840F40040104908803C
:1025E00019E00D2C06D10E48008840F480400C49BB
:1025F000088010E00A480088C0F30D0009490C5417
:1026000007480088401C0649088008460088C728FB
:1026100001DD0020088010BD0038014000080140A5
:102620004C0000200803002008B501210820FEF717
:102630007BFDC020ADF8000010208DF803000320C2
:102640008DF802006946FC48FEF7B2FAC021FA484C
:10265000FEF75BFB08BD10B50220FFF7F4FE10BDCE
:1026600010B5F548006820F07040F349086008464E
:10267000006840F0405008600020F0490860F049D0
:10268000C1F89C01FFF7E7FF0120EC490860EC4925
:10269000C1F89C01FFF7DFFF10BD10B50024E6482C
:1026A000006820F07040E44908600846006840F087
:1026B000004008600120E149091D0860FFF7CBFFD9
:1026C0000120DF49C1F89801FFF7C5FF07E0601C52
:1026D000C4B2FA2C03DDFFF7C3FF012010BDD748B9
:1026E0007C3800680028F2D1D449086000BFF5E7C3
:1026F00070B50446D048006820F07040CE490860AC
:102700000846006840F0405008600020CB4908604F
:10271000002512E0E009C949091D08606006040EA1
:102720000120C749C1F89801FFF795FF0020C34970
:102730000860FFF790FF681CC5B2082DEADB70BD8A
:1027400010B5BD48006820F07040BB4908600846DD
:10275000006840F0405008600120B849091D086039
:10276000B749C1F89801FFF776FF0020B349091D6A
:102770000860FFF770FF0020B149C1F8980110BD53
:1027800070B505460C46FFF7DBFFD020FFF7B0FF22
:10279000FFF783FF18B1FFF763FF012070BD2846E4
:1027A000FFF7A6FFFFF779FF2046FFF7A1FFFFF72E
:1027B00074FF18B1FFF754FF0120EFE7FFF750FF58
:1027C0000020EBE770B504460025BC2C01DB012599
:1027D00010E0622C01DB02250CE02A2C01DB032532
:1027E00008E0142C01DB042504E00A2C01DB05259C
:1027F00000E0062529461A20FFF7C2FF70BD70B51C
:102800000446B4F57A7F01DD4FF47A74042C00DAC3
:1028100004244FF47A7090FBF4F0401EC5B22946B0
:102820001920FFF7ADFF0546264604EBD671C1F32C
:102830004F00FFF7C7FF70BD10B500207F4908604B
:102840007D48006820F070407B49086008460068B9
:1028500040F04050086000207949C1F89C01FFF722
:10286000FAFE012075490860FFF7F5FE0020744963
:10287000C1F8980110BD10B50020704908606E487D
:10288000006820F070406C4908600846006840F01D
:102890004050086001206A49C1F89C01FFF7DBFE47
:1028A000012066490860FFF7D6FE00206449C1F8A0
:1028B000980110BD70B5054600245F48006820F0FF
:1028C00070405D4908600846006840F000400860BC
:1028D000002614E0002059490860FFF7BCFE0120E3
:1028E0005749C1F898016006040E54487C380068C6
:1028F00008B1601CC4B2FFF7AEFE701CC6B2082E51
:10290000E8DB15B9FFF7B7FF01E0FFF795FF2046B9
:1029100070BD70B50446FFF713FFD020FFF7E8FE47
:10292000FFF7BBFE2046FFF7E3FEFFF7B6FEFFF71B
:1029300007FFD120FFF7DCFEFFF7AFFE0020FFF717
:10294000B9FF0546FFF78CFE284670BD10B504465A
:10295000E006010E1C20FFF713FF10BD10B5044662
:10296000E006010E1B20FFF70BFF10BD10B5FFF7AF
:102970005BFE80216B20FFF703FF6420FFF787FDDC
:1029800000216B20FFF7FCFE0320FFF7E7FF00208C
:10299000FFF7DCFF4FF4FA70FFF731FF002138201A
:1029A000FFF7EEFE00216A20FFF7EAFE0021232058
:1029B000FFF7E6FE80213720FFF7E2FE7520FFF7E4
:1029C000A8FF0446682C0CD101216B20FFF7D8FE2C
:1029D00000216C20FFF7D4FE4FF4FA70FFF70FFFD1
:1029E00001E0012010BD0020FCE72DE9F041064682
:1029F0000F4614461D46FFF7A3FE002141EA46019B
:102A0000C8B2FFF775FEFFF748FE20B1FFF728FEBA
:102A10000120BDE8F0813846FFF76AFEFFF73DFE72
:102A2000FFF78EFE012101EB4601C8B2FFF760FE01
:102A3000FFF733FE14E00000000C014098812142B2
:102A400000802142012C04D10020FFF733FF2870C1
:102A500003E00120FFF72EFF2870601EC4B26D1C3A
:102A6000002CEFD1FFF7FCFD0020D2E72DE9FC415F
:102A700004460D4616466B46062243216820FFF7A2
:102A8000B4FF0746BFB99DF801009DF8001040EA69
:102A9000012000B220809DF803009DF8021040EA5A
:102AA000012000B228809DF805009DF8041040EA3E
:102AB000012000B230803846BDE8FC812DE9FC41A0
:102AC00004460D4616466B4606223B216820FFF75A
:102AD0008CFF0746BFB99DF801009DF8001040EA41
:102AE000012000B220809DF803009DF8021040EA0A
:102AF000012000B228809DF805009DF8041040EAEE
:102B0000012000B230803846BDE8FC812DE9F84F45
:102B10006B46022241216820FFF767FF9DF8010004
:102B20009DF8001040EA01200FFA80FA504602F0AA
:102B30005BFB80460022494B02F0FEF90646484AFC
:102B4000484B02F03DF9044602F008F98346464935
:102B5000584603F091F8044603F006F800B2BDE8C9
:102B6000F88F2DE9F04105460E4617469846FFF7C7
:102B7000E7FD002141EA4501C8B2FFF7B9FDFFF7C3
:102B80008CFD20B1FFF76CFD0120BDE8F0813046DF
:102B9000FFF7AEFDFFF781FD00240CE018F80400FC
:102BA000FFF7A6FDFFF779FD18B1FFF759FD0120EA
:102BB000EBE7601CC4B2BC42F0DBFFF751FD002024
:102BC000E3E72DE9FE4F002400250026A14600BFC3
:102BD00011E06A4601A902A8FFF748FF0520FFF7A8
:102BE00056FCBDF908000544BDF904000644BDF9D2
:102BF00000008144641C204602F0F6FA07460022D9
:102C00001A4B02F009FBE4D3284602F0EDFA8246A3
:102C10000022164B02F090F9074602F09FF8144983
:102C20000860304602F0E0FA074600220F4B02F03F
:102C300083F9824602F092F80E490860484602F095
:102C4000D3FA07460022094B02F076F9824602F0D9
:102C500085F809490860BDE8FE8F00000040754016
:102C6000A4703D0AD74342400000C84200407F4064
:102C700050000020540000205800002010B54FF4F0
:102C80006160FE49086041F26800FD490860FB4848
:102C9000006802F0A5FFFB490860F848006802F0F0
:102CA0009FFFF9490860F548006802F099FFF7496D
:102CB0000860F248006802F093FFF5490860EF48A9
:102CC000006802F08DFFF3490860EC48006802F0EC
:102CD00087FFF1490860E948006802F081FFEF4989
:102CE0000860E648006802F07BFFED490860E348B1
:102CF000006802F075FFEB490860E048006802F0E8
:102D00006FFFE9490860DD48006802F069FFE749A4
:102D10000860DA48006802F063FFE5490860E548AA
:102D2000E5490860E548E64908600020E549086093
:102D30004FF08140E4490860E048E4490860E44914
:102D400008600020E3490860E3490860E34908603F
:102D5000E348E4490860D748E3490860D748E349B5
:102D600008600020E24908604FF08140E1490860B6
:102D7000D248E1490860E14908600020E049086064
:102D8000E0490860E0490860D548E0490860E0484B
:102D9000E0490860E048E14908600020E049086037
:102DA000E048E1490860E148E1490860E14908601C
:102DB0000020E1490860E1490860E1490860C8482D
:102DC000E0490860AD480068A0F6B8304043DE49ED
:102DD000086010BD70B54FF44864A94805682046E6
:102DE00002F0FEFE0646D9480168304603F010F8AE
:102DF00004D2204602F0F4FED4490860284602F0CE
:102E0000EFFE0646D1480168304602F001FF04D2C9
:102E1000284602F0E5FECD490860204602F0E0FEBB
:102E20000646CB480168304602F0F2FF04D2204645
:102E300002F0D6FEC6490860284602F0D1FE0646DA
:102E4000C3480168304602F0E3FE04D2284602F08F
:102E5000C7FEBF490860204602F0C2FE0646BD48D4
:102E60000168304602F0D4FF04D2204602F0B8FEDA
:102E7000B8490860284602F0B3FE0646B548016826
:102E8000304602F0C5FE04D2284602F0A9FEB14940
:102E90000860204602F0A4FE0646AF4801683046AE
:102EA00002F0B6FF04D2204602F09AFEAA4908605A
:102EB000284602F095FE0646A7480168304602F013
:102EC000A7FE04D2284602F08BFEA349086070BD1D
:102ED00007B590B0A148006802F0EAFCA04AA14BF7
:102EE000CDE9080102F0D4F900229F4BCDE90A0197
:102EF00002F022F8CDE90C0101F030FF9B49086097
:102F00009B49119808609B48006802F0D1FC944AE4
:102F1000944BCDE9080102F0BBF90022924BCDE9B8
:102F20000A0102F009F8CDE90C0101F017FF9249FE
:102F30000860694801688D48006802F0E5FC03906C
:102F400002F0B6FC00228D4BCDE9040102F0A0F99D
:102F50008B4A8C4BCDE9060102F09AF9CDE90A01C2
:102F60005C48006802F0A4FCCDE90801DDE90A2311
:102F700001F026FFCDE90C0101F0F0FE5549086093
:102F8000084601684E48006802F076FE0D904A48F7
:102F9000006880F000400B90744801680B9802F0C4
:102FA0006BFE0C900D9902F065FF774908600846AA
:102FB00001686F48006802F05DFF01907348016886
:102FC000019802F0A1FC029071480168029802F099
:102FD00051FF039002F06CFC0022684BCDE9040124
:102FE00002F056F9664A674BCDE9060102F050F946
:102FF000CDE90A013948006802F05AFCCDE9080120
:10300000DDE90A2301F0DCFECDE90C0101F0A6FEAA
:10301000324908605C4801685548006802F02AFFA0
:1030200002905A480168029802F024FF0390584821
:103030000168039802F068FC049025480168049830
:1030400002F01AFE059002F033FC4D4A4D4BCDE9DB
:10305000060101F071FFCDE90A01204801681B4813
:10306000006802F009FE0690474801684048006881
:1030700002F000FF0490144800688BE07400002008
:103080007800002064010020680100206C0100200D
:103090007001002074010020780100207C010020D4
:1030A0008001002084010020880100208C01002084
:1030B000900100200000C0407C000020CDCCCC3D21
:1030C0008000002084000020880000208C00002068
:1030D00090000020A00000209C000020AC000020F8
:1030E00000606A46BC000020C4000020C800002028
:1030F000CC000020D0000020D4000020D800002008
:10310000E8000020E4000020F4000020040100207A
:10311000000040400C0100209A99193F1001002046
:103120001401002000007041180100209A99993E76
:103130001C01002020010020300100202C01002073
:103140003C0100204C01002094010020540100208B
:10315000580100205C010020600100205C0000207C
:10316000A7E8482EFF210940008066409400002017
:103170009800002068000020A40000200000E03F2C
:103180007B14AE47E17A743FA8000020B000002015
:10319000B400002080F000400390049902F06CFD20
:1031A0000590069902F066FE079002F081FBCDE9DA
:1031B0000801DDE90A2302F091FACDE90C0101F0E2
:1031C000CDFDFE490860FE480168FC48006802F039
:1031D00053FDFA490860FB48006802F001FD0D90BC
:1031E000F64801680D9802F08FFB0F90F5480068D3
:1031F00002F0F6FC0D90F14801680D9802F03AFEDD
:103200000E9000210F9802F003FD01D200200F90D4
:103210000F99084602F0FCFD01D20F980F90002193
:103220000E9802F0F5FC01D200200E900E9908468F
:1032300002F0EEFD01D20E980E900F9802F038FBCE
:10324000CDE9080101F064FD0022DF4BCDE90A0160
:1032500001F0B6FDCDE90C0101F080FDDB4908600D
:103260000F9802F025FBCDE9080101F051FD002285
:10327000D54BCDE90A0101F0A3FDCDE90C0101F028
:103280006DFDD34908600E9802F012FBCDE90801EC
:1032900001F03EFD0022CC4BCDE90A0101F090FD8A
:1032A000CDE90C0101F05AFDCA4908600E9802F000
:1032B000FFFACDE9080101F02BFD0022C24BCDE958
:1032C0000A0101F07DFDCDE90C0101F047FDC24985
:1032D0000860C248006802F0EBFAC14AC14BCDE970
:1032E000080101F0D5FF0022BF4BCDE90A0101F032
:1032F00023FECDE90C0101F031FDBC490860BC4959
:1033000010980860BB48006802F0D2FAB44AB54B86
:10331000CDE9080101F0BCFF0022B34BCDE90A0161
:1033200001F00AFECDE90C0101F018FDB249086078
:10333000B2480168AD48006802F0E6FA039002F076
:10334000B7FA0022AE4BCDE9040101F0A1FFAD4A6E
:10335000AD4BCDE9060101F09BFFCDE90A01AB4879
:10336000006802F0A5FACDE90801DDE90A2301F0C1
:1033700027FDCDE90C0101F0F1FCA44908600846E5
:103380000168A348006802F077FC0D90A14800682E
:1033900080F000400B90954801680B9802F06CFC9F
:1033A0000C900D9902F066FD9B4908600846016883
:1033B0008F48006802F05EFD01909848016801980E
:1033C00002F0A2FA029096480168029802F052FDBB
:1033D000039002F06DFA0022894BCDE9040101F05F
:1033E00057FF884A884BCDE9060101F051FFCDE92E
:1033F0000A018C48006802F05BFACDE90801DDE9BA
:103400000A2301F0DDFCCDE90C0101F0A7FC8549A0
:103410000860814801687648006802F02BFD029040
:103420007E480168029802F025FD03907C480168FF
:10343000039802F069FA04907B480168049802F04E
:103440001BFC059002F034FA6E4A6F4BCDE9060181
:1034500001F072FDCDE90A01724801687348006805
:1034600002F00AFC06906C4801686148006802F0AE
:1034700001FD04906E48006880F0004003900499BC
:1034800002F0FAFB0590069902F0F4FC079002F0B6
:103490000FFACDE90801DDE90A2302F01FF9CDE9B1
:1034A0000C0101F05BFC63490860634801686148F6
:1034B000006802F0E1FB5F4908604248006802F0E2
:1034C0008FFB0D905B4801680D9802F01DFA0F907C
:1034D0003C48006802F084FB0D90564801680D9846
:1034E00002F0C8FC0E9000210F9802F091FB01D26F
:1034F00000200F900F99084602F08AFC01D20F9825
:103500000F9000210E9802F083FB01D200200E9054
:103510000E99084602F07CFC01D20E980E900E988F
:1035200002F0C6F9CDE9080101F0F2FB0022264BBA
:10353000CDE90A0101F044FCCDE90C0101F00EFCDB
:103540003E4908600F9802F0B3F9CDE9080101F097
:10355000DFFB00221C4BCDE90A0101F031FCCDE973
:103560000C0101F0FBFB364908600E9802F0A0F94F
:10357000CDE9080101F0CCFB0022134BCDE90A0193
:1035800001F01EFCCDE90C0101F0E8FB2D490860BB
:103590000F9802F08DF9CDE9080101F0B9FB002286
:1035A000094BCDE90A0101F00BFCCDE90C0101F05A
:1035B000D5FB254908602548006849E0B80000208F
:1035C000BC000020940100200070A740680100208A
:1035D0006C010020640100207001002060000020C8
:1035E000A7E8482EFF21094000806640DC0000204B
:1035F000E00000206C000020EC000020E40000202F
:103600000000E03F7B14AE47E17A743FE800002001
:10361000C8000020C4000020F0000020F8000020B6
:10362000FC000020F4000020D8000020D40000207E
:10363000D000002000010020040100207C010020B7
:103640007401002080010020780100206400002027
:1036500002F02EF9FD4AFE4BCDE9080101F018FEFB
:103660000022FC4BCDE90A0101F066FCCDE90C011A
:1036700001F074FBF8490860F84912980860F848AE
:10368000006802F015F9F14AF14BCDE9080101F0AB
:10369000FFFD0022EF4BCDE90A0101F04DFCCDE921
:1036A0000C0101F05BFBEF490860EF480168EA4854
:1036B000006802F029F9039002F0FAF80022EB4BBF
:1036C000CDE9040101F0E4FDE94AEA4BCDE9060148
:1036D00001F0DEFDCDE90A01E748006802F0E8F8F4
:1036E000CDE90801DDE90A2301F06AFBCDE90C010F
:1036F00001F034FBE049086008460168DF480068D3
:1037000002F0BAFA0D90DE48006880F000400B909D
:10371000D14801680B9802F0AFFA0C900D9902F0B5
:10372000A9FBD849086008460168CC48006802F047
:10373000A1FB0190D4480168019802F0E5F80290DD
:10374000D2480168029802F095FB039002F0B0F8AD
:103750000022C64BCDE9040101F09AFDC44AC54BD5
:10376000CDE9060101F094FDCDE90A01C8480068E1
:1037700002F09EF8CDE90801DDE90A2301F020FB03
:10378000CDE90C0101F0EAFAC1490860BD480168C1
:10379000B248006802F06EFB0290BB4801680298D4
:1037A00002F068FB0390B9480168039802F0ACF896
:1037B0000490B8480168049802F05EFA059002F09F
:1037C00077F8AB4AAB4BCDE9060101F0B5FBCDE98B
:1037D0000A01AF480168B048006802F04DFA06904F
:1037E000A84801689D48006802F044FB0490AB487B
:1037F000006880F000400390049902F03DFA0590C3
:10380000069902F037FB079002F052F8CDE9080163
:10381000DDE90A2301F062FFCDE90C0101F09EFA17
:103820009F4908609F4801689D48006802F024FA9B
:103830009B4908609C48006802F0D2F90D909848B6
:1038400001680D9802F060F80F909748006802F048
:10385000C7F90D90924801680D9802F00BFB0E908D
:1038600000210F9802F0D4F901D200200F900F9997
:10387000084602F0CDFA01D20F980F9000210E9861
:1038800002F0C6F901D200200E900E99084602F00F
:10389000BFFA01D20E980E900E9802F009F8CDE909
:1038A000080101F035FA0022804BCDE90A0101F050
:1038B00087FACDE90C0101F051FA7D4908600F98B3
:1038C00001F0F6FFCDE9080101F022FA0022774B62
:1038D000CDE90A0101F074FACDE90C0101F03EFADC
:1038E000744908600F9801F0E3FFCDE9080101F089
:1038F0000FFA00226D4BCDE90A0101F061FACDE922
:103900000C0101F02BFA6C4908600E9801F0D0FF11
:10391000CDE9080101F0FCF90022644BCDE90A0170
:1039200001F04EFACDE90C0101F018FA6349086084
:103930006348006840000B9002F052F90D90614816
:1039400001686148006801F0DFFF0B905948016889
:103950000B9801F0D9FF0C900D9902F08BFA5B499E
:1039600008605748006840000B9002F039F90D904C
:10397000574801685748006801F0C6FF0B904C4853
:1039800001680B9801F0C0FF0C900D9902F072FADB
:10399000514908604A48006840000B9002F020F945
:1039A0000D904E4801684E48006801F0ADFF0B9045
:1039B000414801680B9801F0A7FF0C900D9902F0A7
:1039C00059FA484908603E48006840000B9002F0F0
:1039D00007F90D90444801684448006801F094FFDD
:1039E0000B90364801680B9801F08EFF0C900D99F2
:1039F00002F040FA3E4908603E4800683E490860CF
:103A00003E4800683E4908603E4800683E490860FC
:103A10003E4800683E4908603E4800683E490860EC
:103A20003E4800683E4908600B4800680E4908603F
:103A30000A48006814490860124800681349086081
:103A4000FFF7C8F9214800686CE00000A7E8482E9D
:103A5000FF21094000806640240100202801002049
:103A600070000020340100202C0100200000E03F05
:103A70007B14AE47E17A743F300100201001002032
:103A80000C010020380100204001002044010020EA
:103A90003C010020200100201C0100201801002012
:103AA000480100204C010020940100200070A74034
:103AB00088010020840100208C010020900100205A
:103AC00074000020740100206401002054010020D3
:103AD0007801002068010020580100207C010020AE
:103AE0006C0100205C01002080010020700100209A
:103AF00060010020940000209C000020980000201D
:103B0000B0000020A8000020B4000020DC0000204D
:103B1000E4000020E0000020F8000020F000002079
:103B2000FC00002002F03CF80C4908800C480068BA
:103B300002F036F80949091D08800A48006802F0B9
:103B40002FF80649083108800748006802F028F875
:103B500002490C31088013B000BD0000340400405D
:103B6000580100205C010020600100202DE9FC5F6D
:103B7000044660682060A0686060E068A060FE495C
:103B8000206A01F02FFFE06060692061A169616136
:103B9000E169A161F948A16902F06EF80190F84865
:103BA000616902F069F88146F648216902F064F81B
:103BB0000090D4E9010101F0A7FE8346F24902F02A
:103BC0005BF88046E168206801F09EFE824641462F
:103BD00001F09AFE0746009901F096FE0646494616
:103BE00001F092FE0546019901F08EFEE061E06968
:103BF0006062BDE8FC9F2DE9F047044660682060E4
:103C0000A0686060E149A06901F0ECFEA060206955
:103C1000E06061692161DE48216902F02DF8074604
:103C2000DC48E16802F028F880464FF08040616887
:103C300002F022F88146A168206801F065FE824604
:103C4000494601F061FE0646414601F05DFE05462B
:103C5000394601F059FE60616069E061BDE8F087B6
:103C60002DE9F041044621696161E1682161A168A3
:103C7000E1606168A16020686060D4E9010101F041
:103C800043FE8046E16801F03FFE0746216901F0EE
:103C90003BFE0646616901F037FE0546BE4901F06C
:103CA000A1FEA061BDE8F08110B5BC480068BC4928
:103CB0000862BC480168BA488164BB480168B848DA
:103CC0000167FFF753FFB6482830FFF74FFFB448AE
:103CD0005030FFF74BFFB248406AB149C1F8D800F5
:103CE0000846C06CC1F8F4000846406FC1F81001E6
:103CF00001F1D800FFF7B4FFA948F430FFF7B0FF97
:103D0000AA48FFF7ADFFAA48B0F9000001F068FF2C
:103D1000A349C1F89000A748B0F9000001F060FF86
:103D20009F49C1F8B000A448B0F9000001F058FF65
:103D30009B49C1F8D00001F17800FFF75CFF9B4878
:103D40007838FFF758FF99485838FFF754FF10BDEF
:103D50000FB597B01D99084601F08EFF0A901C9987
:103D6000084601F089FF08901A99084601F084FF7F
:103D70000790089901F0C8FD09900A9901F0C4FD67
:103D80000B9001F095FDCDE90C0100F0C1FFCDE9EC
:103D90000E0100F0E3FF1690169801F089FD874AA6
:103DA000874BCDE90E0101F071FB0FD816991A98D7
:103DB00001F018FE1A9016991C9801F013FE1C9041
:103DC00016991D9801F00EFE1D9003E000201A9038
:103DD0001C901D907B4801687B48006801F04CFFF7
:103DE0000E907A4801687A48006801F045FF0D900E
:103DF0000E9902F03FF84FF080410F9001F03CFF28
:103E00001590724801686F48006801F035FF0E9008
:103E10006F4801686C48006801F02EFF0D900E9904
:103E200001F072FD4FF080410F9001F025FF1490DA
:103E300066480168006801F01FFF0F906148016843
:103E4000006801F019FF0D9061480168006801F0F9
:103E500013FF0B905C480168006801F00DFF0A90A9
:103E60000B9902F007F80C900D9902F003F80E90F0
:103E70000F9901F049FD139014991D9801F0FCFE73
:103E80000F9013991C9801F0F7FE0E900F9901F016
:103E9000F1FF129013991A9801F0EEFE0F90159908
:103EA0001D9801F0E9FE0E900F9901F0E3FF1190CB
:103EB00015991C9801F0E0FE0F9014991A9801F0E2
:103EC000DBFE0E900F9901F0D5FF1090414801687C
:103ED000129801F0D1FE059001F0EAFC00224FF0AB
:103EE0008043CDE9060101F0D3F9344A3A4BCDE9DC
:103EF000080101F0CDF9CDE90C013848006801F066
:103F0000D7FCCDE90A01DDE90C2300F059FFCDE92A
:103F10000E0100F023FF314908602E480168119816
:103F200001F0AAFE059001F0C3FC00224FF080438F
:103F3000CDE9060101F0ACF9204A274BCDE9080193
:103F400001F0A6F9CDE90C012548006801F0B0FCAC
:103F5000CDE90A01DDE90C2300F032FFCDE90E01C5
:103F600000F0FCFE1E4908601A480168109801F034
:103F700083FE059036E000006D85AC432BF11740C1
:103F800020F5F6BF1736083F0000404067BFFF42EC
:103F90007E0BDE3F021944BF0000A0400C00002051
:103FA000DC0100201000002014000020EC020020A2
:103FB0000000002002000020040000207B14AE4717
:103FC000E17A843FA8010020A0010020AC0100207C
:103FD000A40100209C010020E17A643FC001002080
:103FE000C401002001F064FC00224FF08043CDE9C1
:103FF000060101F04DF9FE4AFE4BCDE9080101F042
:1040000047F9CDE90C01FC48006801F051FCCDE90D
:104010000A01DDE90C2300F0D3FECDE90E0100F02A
:104020009DFEF5490860F5481299006801F024FEEC
:104030000E90179901F068FC0F90F14801680F98F5
:1040400001F062FC1790ED481199006801F014FE30
:104050000E90189901F058FC0F90EA4801680F98EB
:1040600001F052FC1890E5481099006801F004FE38
:104070000E90199901F048FC0F90DF4801680F98E5
:1040800001F042FC1990E0481999006801F0F4FD34
:104090000690DE481899006801F0EEFD0490DC48B7
:1040A000006880F000400290179901F0E5FD039050
:1040B000049901F0DFFE0590069901F0DBFE079000
:1040C00001F0F6FBCA4ACB4BCDE9080101F0E0F85C
:1040D000CDE90C01CF48006801F0EAFBCDE90A0107
:1040E000DDE90C2300F06CFECDE90E0100F036FE98
:1040F000C9490860C4481899006801F0BDFD0690E0
:10410000C2481999006801F0B7FD0490C1480168E0
:10411000179801F0B1FD0390049901F0F5FB0590AB
:10412000069901F0A7FE079001F0C2FBB04AB14B1F
:10413000CDE9080101F0ACF8CDE90C01B448006804
:1041400001F0B6FBCDE90A01DDE90C2300F038FEF1
:10415000CDE90E0100F002FEB0490860AA480168EE
:10416000179801F089FD0690A9481999006801F097
:1041700083FD0490A7481899006801F07DFD039025
:10418000049901F077FE0590069901F0BDFB0790B8
:1041900001F08EFB964A974BCDE9080101F078F8C3
:1041A000CDE90C019948006801F082FBCDE90A01D4
:1041B000DDE90C2300F004FECDE90E0100F0CEFD98
:1041C0009749086091480168179801F055FD0690DD
:1041D0008F481899006801F04FFD04908D48199997
:1041E000006801F049FD0390049901F08DFB0590F2
:1041F000069901F03FFE079001F05AFB7C4A7D4B87
:10420000CDE9080101F044F8CDE90C017E480068D1
:1042100001F04EFBCDE90A01DDE90C2300F0D0FDF1
:10422000CDE90E0100F09AFD7E490860084601685C
:10423000006801F021FD0A9079480168006801F0EA
:104240001BFD089075480168006801F015FD069097
:1042500071480168006801F00FFD0590069901F0B2
:1042600053FB0790089901F04FFB09900A9901F060
:104270004BFB0B9001F01CFBCDE90C0100F048FD5D
:10428000CDE90E0100F06AFD1690169801F010FBC2
:10429000574A654BCDE90E0101F0F8F81CD85E488D
:1042A0001699006801F09EFB5B4908605B4816990F
:1042B000006801F097FB5949086059481699006851
:1042C00001F090FB5649086056481699006801F0C5
:1042D00089FB544908600AE04FF07E504E4908605F
:1042E00000204E4908604E4908604E4908604A481F
:1042F00001684FF0804001F0BFFC0690484801681B
:10430000069801F0B9FC0890444801684FF040401D
:1043100001F0B2FC069043480168069801F0ACFC3D
:104320000790089901F0F0FA099001F0C1FACDE97F
:104330000A0100F0E5F94FF066323C4BCDE90C0183
:1043400000F0A6FFCDE90E0100F008FD1E990860FF
:10435000334801684FF0804001F08EFC03903048F4
:104360000168039801F088FC05902C4801684FF023
:10437000404001F081FC039028480168039801F057
:104380007BFC0490059901F075FD4FF07E5106907D
:1043900001F0BAFA079001F08BFACDE90A011E4844
:1043A00001684FF0804001F067FC04901B480168F1
:1043B000049801F061FC0690194801684FF08040B4
:1043C00001F05AFC049017480168049801F054FC6D
:1043D0000590069901F098FA079001F069FACDE985
:1043E0000801DDE90A2300F0D3FB4FF066321FE03D
:1043F0007B14AE47E17A643FC80100209801002099
:10440000C0010020C4010020BC010020B801002030
:10441000B4010020B0010020A0010020A401002070
:10442000A8010020AC010020E17A843F66A64C4040
:10443000464BCDE90C0100F02BFFCDE90E0100F059
:104440008DFC1F99086042480168006801F014FC67
:10445000069040480168006801F00EFC04903E4858
:104460000168006801F008FC02903C48016800689F
:1044700001F002FC0190029901F046FA03900499C0
:1044800001F0F8FC0590069901F0F4FC079001F0AA
:104490000FFACDE90A012E4801683048006801F0A2
:1044A000EBFB05902B4801682B48006801F0E4FB0A
:1044B0000490059901F028FA4FF08041069001F030
:1044C000DBFB079001F0F4F9CDE90801DDE90A23EF
:1044D00000F05EFB4FF066321C4BCDE90C0100F0A2
:1044E000D7FECDE90E0100F039FC209908601B4889
:1044F00000681B490860184800681A490860154898
:1045000000681949086012480068184908601BB023
:1045100000BD4FF07E501149086000200E49086030
:104520000C4908600A4908604FF07E500C49086049
:1045300000200C4908600C4908600C4908600C49CF
:1045400008600C4908600C490860704766A64C403A
:10455000AC010020A8010020A4010020A00100203F
:10456000B0010020B4010020B8010020BC010020EF
:10457000C0010020C4010020C8010020704770471E
:1045800070477047704710B500F008F8006810BD1C
:1045900010B5044600F002F8046010BD00487047F2
:1045A000D003002000487047D00300207546FFF775
:1045B000F9FFAE4605006946534620F007008546E0
:1045C00018B020B5FCF714FABDE820404FF0000603
:1045D0004FF000074FF000084FF0000B21F00701EB
:1045E000AC46ACE8C009ACE8C009ACE8C009ACE82E
:1045F000C0098D46704710B50446AFF300802046D1
:10460000BDE81040FBF7FBBD490050EAC12018BFD0
:1046100004204A0D18BF40F0010040F2FF72B2EBD7
:10462000515F08BF40F00200012808BF0520704715
:104630002DE9F0414F1E00EBC7010446D1E900010E
:1046400015461E4637F006020DD02A46334600F0C6
:104650001FFE7F1E04EBC703D3E9002300F0B0FB6D
:1046600037F00602F1D1022F25D0042F13D0062FE8
:1046700018BFBDE8F0812A46334600F009FED4E9B0
:104680000A2300F09DFB2A46334600F001FED4E9E0
:10469000082300F095FB2A46334600F0F9FDD4E9E3
:1046A000062300F08DFB2A46334600F0F1FDD4E9E5
:1046B000042300F085FB2A46334600F0E9FDD4E9E7
:1046C000022300F07DFB2A46334600F0E1FDD4E9E9
:1046D0000023BDE8F04100F073BB012201F071BC82
:1046E00000F06EBB002213461046114600F024BCB9
:1046F000024A0020110701F064BC000001FDFFFF29
:104700002DE9F04D8D4F21F0004A86B005460C464C
:10471000BA452ADBAAEB070028430AD0884882451D
:1047200001DC1AD1CDB106B02846BDE8F04DFFF747
:10473000D4BF844A844B284600F0AAFD07460E46A3
:10474000824A834B2846214600F0A2FD06B03A4635
:104750003346BDE8F04D00F033BB0120FFF718FFF2
:1047600006B0BDE8F04DFFF7BDBF7A48824542DA9A
:10477000BAF1795F0BDA2846FFF746FF042808BF35
:10478000FFF7B6FF284606B02146BDE8F08D2A4661
:104790000B46104600F07CFD834602466E480E46EE
:1047A0000B4606217844FFF743FF5A46334600F094
:1047B0006FFD804669488A465A463346042178444C
:1047C000FFF736FF5A46334600F062FD00223B46B3
:1047D00000F0F6FA02460B464046514600F0ACFBAC
:1047E0002A46234600F054FD06B02A462346BDE87B
:1047F000F04D00F0E5BA284624F0004100223D4685
:104800003B4600F079FE4FF0FF3201F0DAFB06463E
:10481000024653480F460B4606217844FFF708FF2F
:1048200032463B4600F034FDCDE900014D483246AA
:104830003B4604217844FFF7FBFE32463B4600F03E
:1048400027FD00222B4600F0BBFA8346029130463A
:10485000394600F05DFA804643480D46504517DC66
:10486000DDE900015A46029B00F066FB42462B46FA
:1048700000F00EFD42462B4600F0A2FA012201F0A4
:10488000A0FB304A304B00F029FF304A304B4CE05F
:104890004FF0000A52460B46404600F091FACDE92F
:1048A000031052462B461046194600F0F1FC3246E2
:1048B0003B4600F021FEDDE9033200F03DFB0646F9
:1048C0000F46DDE900015A46029B00F035FB8346A6
:1048D000009101223046394601F073FB194A1A4B08
:1048E00000F00AFE06460F4601224046294601F026
:1048F00068FB5A46009B00F0CBFC32463B4600F07A
:10490000EDFE06460F4601225046294601F059FBAE
:104910000E4DDFF858802A46434600F0EDFD324642
:104920003B4600F0E9FD2A46434600F0E5FD002C39
:10493000D8BF81F0004106B0BDE8F08D0000F03F27
:104940000000F07F075C143326A6913C182D4454D8
:10495000FB21F93F0000E03FA8180000BE1800004E
:1049600032180000481800003333EF3FFB21E93FC5
:104970002DE9F84F04460D4621F00040009173499F
:10498000814211DC7249884201DC06D12CB12046FB
:104990002946BDE8F84FFFF7A0BE6E48002DCCBFFA
:1049A0006D496E49BDE8F88F6D49814211DD6D4951
:1049B0008142D8BF4FF0FF366DDD20462946FFF714
:1049C00023FE042808BFFFF793FE20462946BDE8D2
:1049D000F88F6549654F25F00045814233DD644914
:1049E000814219DD002632464FF080432046294699
:1049F00000F0E6F980468A4601222046294601F069
:104A0000E0FA00223B4600F069FE4246534600F0C1
:104A100093FA04460D463EE001260022BA463B4684
:104A20002046294600F0CCF980460F460022534626
:104A30002046294600F052FE42463B4600F07CFAF2
:104A400004460D4627E04B4981421BDDDFF828A1D3
:104A50000226002253462046294600F019FC002277
:104A60003B4600F0ADF980460F46002253462046F3
:104A7000294600F033FE42463B4600F05DFA04460C
:104A80000D4608E0032622462B4600203B4900F055
:104A900053FA04460D4622462B461046194600F0AE
:104AA000F7FB8B46824602460B4600F0F1FB0746B9
:104AB0000246334888460B4606217844FFF7B8FD86
:104AC00052465B4600F0E4FB82462E488B463A464F
:104AD000434605217844FFF7ABFD3A46434600F0D4
:104AE000D7FB02460B46002E504659460CDA00F022
:104AF00067F922462B4600F0CBFB01B022462B463D
:104B0000BDE8F04F00F0F8BC00F05AF922462B4601
:104B100000F0BEFB1C4A7A4402EBC603D3E9002333
:104B200000F0DCFD22462B4600F0D8FD174A7A44FF
:104B300002EBC603D3E9002300F0DEFC009A002A52
:104B4000B8BF81F00041BDE8F88F000000001044BC
:104B50000000F07F182D4454FB21F93FFB21F9BFE1
:104B60000000DC3F0000203E0000F33F0000F03F6B
:104B70000000E63F008003400000F83F0000F0BF67
:104B80004A16000008160000A61500006E15000069
:104B90002DE9F04D9446CCF1000423F000464CEA98
:104BA0000404524F46EAD4749A46884621F00042E3
:104BB000BC4206D8454240EA050442EAD474BC42ED
:104BC00004D9BDE8F04D6246FFF78ABDAAF1405511
:104BD000A5F17F6555EA0C040BD0022404EAAA74FF
:104BE000434DDFF810E144EAD87452EA000B04D0D8
:104BF0000CE0BDE8F04DFFF7BBBE002C14BF012C4C
:104C0000BDE8F08D022C30D0032C32D056EA0C0BCC
:104C10000AD0BE4220D1BA4209D126F0804622F005
:104C200080423346114617E000291ADB25E0DFF801
:104C3000C8B0FB44002C04BFDBE90001BDE8F08DE7
:104C4000012C02BFDBE9000181F00041BDE8F08DDD
:104C5000022C0AD0032C0CD0BA4212D1B8F1000FAA
:104C60000BDA23482549BDE8F08D28462449BDE8E4
:104C7000F08D28467146BDE8F08D1D482149BDE8FC
:104C8000F08D921B12153C2AC4BF19481D490EDC39
:104C9000BAF1000FBEBF12F13C0F0020014606DB47
:104CA000624600F049F921F00041FFF761FE002C57
:104CB00008BFBDE8F08D012C04BF81F00041BDE8C4
:104CC000F08D114A114B022C07D000F007FD2A4647
:104CD000BDE8F04D0A4B00F001BD00F0FFFC2A4694
:104CE000BDE8F04D064B00F007BC00000000F07F6F
:104CF000182D4454FB2109C002150000FB21F9BF07
:104D0000FB210940FB21F93F075C143326A6A13C97
:104D10002DE9F04106460F4600F0FAFB041E0D4651
:104D200018BF0120284320F00040C0F17F6000F14F
:104D3000E040C00F0ED0301C18BF0120384320F0D7
:104D40000040C0F17F6000F1E040C00F04BF0120CF
:104D5000FFF71EFC20462946BDE8F08121F0004205
:104D6000A2F16052B2F5801F01F0004328BFD2F1DA
:104D70007F6C0BD95FEA001C43EAC20242EB507021
:104D800018BF704728BF20F001007047B2F5801FA0
:104D9000BCBF184670474FEA410C1CF5001F02D2F9
:104DA000084601F030B870B500F01CFB0000008927
:104DB000FFF7F6BF4FF00040A0F5800070470000FD
:104DC00010B591EA030F48BF83F0004300F18E84D1
:104DD000841A71EB030C05D2121943EB0C03001B70
:104DE00061EB0C01DFF824E14FEA1154A4EB135CF2
:104DF0001EEA430F18BF9EEA445F73D023EA0E03F6
:104E0000DCF1200E21EA045143F4801332D322FA5C
:104E10000CFE10EB0E0023FA0CFE41EB0E01CCF160
:104E2000200E03FA0EFE10EB0E0051F10001B1F559
:104E3000801FCCF1200E32D201EB045112FA0EF297
:104E4000BDE8104058BF7047401C38BF5FEA4202BF
:104E500018BF7047002814BF20F0010041F1000185
:104E60004FEA410313F5001F38BF7047A1F1C0415D
:104E700000F006BB012A43EB0302ACF1200CDCF18D
:104E80001F0E32BF4FF0000E23FA0CF310EB03009D
:104E900041EB0451B4EB115FD0D0A1EB045101F50B
:104EA000801149085FEA300001EB04510ED350F144
:104EB000000038BF12FA0EFE08D1BDE81040C9E765
:104EC000401C38BF5FEA4202CAD1C3E7BDE81040C8
:104ED0004FEA410313F5001F38BF7047A1F1C041ED
:104EE00000F0CEBA9EEA445F08D011EA5E0FBDE83A
:104EF000104004BF01F0004100207047BDE81040A1
:104F000070B500F06FFA00BF64FBBE3E0000E0FF2A
:104F100002494FF0000001F022B800BF0000F87F06
:104F2000491058BFC1F140415B1058BFC3F1404325
:104F30008B42EFF3008070472DE9C04130B4DFF8B9
:104F4000A0C23CEA111418BF3CEA131400F0EC8034
:104F500081EA03051CEA111444EAD57418BF1CEA5F
:104F6000131500F0C780A4EB05044FF0004545EA97
:104F7000C12145EAC32341EA505143EA525304F1A7
:104F80007F74994204F500344FEAC0204FEAC222F0
:104F900008BF904200F09C804FEA13650FF2401664
:104FA000765D4FEA134506FB05F7C7F1807706FBF0
:104FB00007F74FEAD737A7FB03687642C8F5803872
:104FC000A7FB06CE38BFA8F1010807FB08E64FF0A3
:104FD000000EA6FB028CE6FB03CEDCF1000CCEF14A
:104FE000004E38BFAEF1010EA6FB0C584FF0000783
:104FF0004FF00005E6FB0E87A1FB08C6A0FB07CE1D
:1050000016EB0E0645F10005E1FB076515F1E04ED4
:105010007EBFA4F580345FEA46066D4116F1800735
:1050200045F100054FEA17274FEA066647EA05678C
:10503000A6F1DE46B6F1805F4FEA15251FD9384646
:1050400024F0010C05EBC471BCF1FE6F01EB0C11F7
:1050500002D8F0BCBDE8008124425CBF01F5801E8F
:105060009EEAC47F02D4F0BCBDE80081244238D45B
:10507000F0BCA1F1C041BDE8004100F001BA4FEA27
:10508000D22242EA43524FEAD323A7FB02864FEAD9
:10509000D02040EA415007FB03661EEA0E0F4FEA9C
:1050A000D12105FB026658BFA6EB0056B6EB0056B1
:1050B0004FEA520E4EEAC37E18EB0E0E56EB530E1D
:1050C000BDD518EB02085E417F1C55F10005B6E71F
:1050D0004FF480154FF000074FF000064FF0000826
:1050E000ADE7F0BC4FF0000001F1C04101F000411C
:1050F000BDE8008111EA0C1F0CEA131500D00CE08A
:1051000013EA0C1F00F025804FF00000F0BC81EA8C
:10511000030101F00041BDE80081F0BCBDE80041A1
:1051200081EA030100F0ACB9F0BCBDE8004170B504
:1051300000F058F9097EFC3E00F007B881EA03014F
:105140004FF0000001F00041704781EA030100F0D8
:1051500097B9F0BCBDE800414FF00000214970470D
:10516000FFFDFBF9F7F5F4F2F0EEEDEBE9E8E6E42C
:10517000E3E1E0DEDDDBDAD8D7D5D4D3D1D0CFCDB3
:10518000CCCBCAC8C7C6C5C4C2C1C0BFBEBDBCBBEC
:10519000BAB9B8B7B6B5B4B3B2B1B0AFAEADACABE7
:1051A000AAA9A8A8A7A6A5A4A3A3A2A1A09F9F9EC1
:1051B0009D9C9C9B9A999998979796959594939373
:1051C000929191908F8F8E8E8D8C8C8B8B8A89890A
:1051D000888887878685858484838382828181808D
:1051E0000000FF070000F87F10F0004248BF404277
:1051F000B0FA80F310FA03F10AD0C3F11D0303F5EE
:1052000080634FEA415002EB035202EBD121704719
:105210004FF000007047000051EA030C17D41CF552
:10522000801F58BFBCF5801F00F10680994218BF4F
:10523000704708BF9042704707D711F5801F58BFCD
:1052400013F5801F19D499427047894270471CF5A5
:10525000801F08D5BCF5801FF7D58B4218BF70475B
:1052600008BF824270474FF4001C1CEB410F38BF4F
:105270001CEB430F01D28B42704770B500F0B2F8BF
:10528000922449004FF000514FF08053FFF748BE81
:10529000DFF848C170B51CEA111E1EBF1CEA1315C9
:1052A0009EEA0C0F95EA0C0F00F06F8081EA030470
:1052B00023EA4C134EEAD47E21EA4C1141F48011CA
:1052C00043F48013AE44A1FB024CA0FB0365AEF196
:1052D0007F7E361955EB0C05A1FB034C4CF1000306
:1052E000A0FB021C16EB0C06654153F100030942BA
:1052F00018BF46F0010613F4007F0BD14FEA0331CB
:105300004FEA0530340341EA155140EA16506FF078
:1053100003020AE04FEAC3214FEAC520F40241EA42
:10532000555140EA56506FF0020202EB2E4201EB5B
:10533000025585EACE710AD05FEA440C18BF24F00A
:10534000004450F1000041F1000120EAD47040F225
:10535000FE7C624500D270BDA84214BF4FF080446D
:105360004FF04044002E08BF0024BEF1806FA8BF5C
:10537000A1F1C041BDE8704080F282804FF0000092
:1053800001F1C04101F0004170479EEA0C0F0CEAA8
:10539000131518BF95EA0C0F06D04FF0000081EAF4
:1053A000030E0EF0004170BD00F01CF88900013EB4
:1053B00000F007B800F009B84FEA430C5FEA5C5C04
:1053C00008D081EA030100F05BB84FEA410C5FEAC4
:1053D0005C5CF6D14FF00000014970470000FF0708
:1053E0000000F87F0EF1020E2EF0030E5EF8046B43
:1053F000364205D4012A43EB030515F5001F12D8E8
:10540000012841EB010C1CF5001F0CD80ED14FEA0E
:10541000D17C15F5001F0CEB4C0C0CF1020C08BFF5
:105420004CEBD37C04E04FF0080C01E04FEAD37C56
:105430000CEB4C0526FA05F606F00706B6F1040C4F
:1054400006D20EEB860CBDE870404CF0010C6047B4
:10545000DFE80CF0090B02024FF000414FF00000B2
:10546000A1F5002170BD19461046012851EB010439
:1054700018BFD4F5001484BF002001F0004170BDB6
:105480000808A0F500114FEA3101704753EA010CFA
:1054900017D41CF5801F58BFBCF5801F00F1068093
:1054A0008B4218BF704708BF8242704707D713F579
:1054B000801F58BF11F5801F19D48B4270479B4243
:1054C00070471CF5801F08D5BCF5801FF7D59942A1
:1054D00018BF704708BF904270474FF4001C1CEB88
:1054E000430F38BF1CEB410F01D2994270470FB4F4
:1054F0000CBC03BCFFF7C1BE91EA030F10B581F0ED
:1055000000413FF565AC83F0004300F0EFB80000C8
:105510002DE9F04101F5801CBCF5001FC0F2C380ED
:105520004FEA115C21EA0C510CF1FD0C41F48011A1
:105530005FEA5C0C0CF5C07C01D3400049413DA4FE
:10554000890241EA905187028E0E0A0CA45D04FB89
:1055500004F602FB06F6C6F14046A4FB0662F60D11
:1055600046EA422606FB06F4A4FB01235242C3F19D
:10557000404338BF5B1EA6FB02420024E6FB032427
:10558000D20B42EA4446A6FB0623A1FB02E2A3FBA0
:1055900007E4A4184FF0000252F10002E3FB0142BD
:1055A0006442C2F1404E38BFAEF1010EA6FB0423A7
:1055B0004FF00002E6FB0E32A2FB03464FF0000460
:1055C000B61954F10004E2FB0264A1FB06E6A4FB59
:1055D00007E816EB08064FF0000858F10008E4FB56
:1055E00001687642C8F1405838BFA8F10108A2FB13
:1055F00006E4A3FB08E52D194FF0000454F1000464
:10560000E2FB0854A1FB05E6A7FB04E818EB06083B
:105610004FF0000656F10006E1FB048618F1200564
:1056200056F10006A809A8F11B08B10908F03F08C7
:10563000B8F10A0F40EA86601CD901EB0C51BDE8B5
:10564000F08100BFFCF5EEE8E2DDD8D3CFCBC7C3D5
:10565000C0BDB9B6B4B1AEACA9A7A5A3A19F9D9B8F
:105660009A9896959392908F8D8C8B898887868552
:1056700084838281A0FB006800FB01F208EB4208F2
:10568000B8EB872807D5341858EB0104D5D5401C52
:1056900051F10001D1E7341A78EB0104CDD4401E5A
:1056A00071F10001C9E75FEA4C0C5FEA9C5C0DD127
:1056B00005D34FF0000001F00041BDE8F081BDE8E6
:1056C000F04170B5FFF78EFE6DDBFFBEBDE8F04127
:1056D0004FF00000004970470000F87F10B591EAD4
:1056E000030F48BF83F000433FF572AB841A71EBA0
:1056F000030C07D212198CF0004C43EB0C03001B77
:1057000061EB0C01DFF8A4E14FEA1154A4EB135C48
:105710001EEA430F18BF9EEA445F00F0B08023EA00
:105720006E03524221EA0451C3EB6E0338BF5B1E85
:10573000DCF1200E25D322FA0CFE10EB0E0043FA0A
:105740000CFE41EB0E01CCF1200E03FA0EFE10EB25
:105750000E0051F10001CCF1200E29D412FA0EF204
:1057600001EB0451BDE8104058BF7047401C1CBFFE
:10577000B2F1004F704700280CBF491C20F0010017
:10578000704712EB020E43EB030218BF4FF0010EFD
:105790004EEA4202ACF1200CDCF11E0E54D943FA61
:1057A0000CFE10EB0E0051F1FF31CCF11E0ED5D5E1
:1057B0000EF1010E12FA0EFE404141EB010101EB28
:1057C000445C5FEA5C5C10D910EBDE7001EB0451C5
:1057D00038BFBEF1004FBDE8104018BF7047002829
:1057E0000CBF491C20F00100704730D24FEAD42C86
:1057F00011F5001124F400641BD0B1FA81F20B3AC8
:10580000A41AA41ED2F12003914030FA03F31943E5
:10581000904001EBCC71002C01EB0451BDE810402D
:10582000A8BF704701F1C0414FF0000001F00041F6
:105830007047B0FA80F310FA03F100D110BDE41AFA
:10584000173C4805C90AE4E701EB045110BD4910B3
:1058500001EB0451BDE810404FEA300002E04FF088
:10586000000170474A0008BF0042F8D0B2F5001F9F
:1058700028BF704701F000414FF0000070479EEADA
:10588000445F07D011EA5E0FBDE8104004BF00215D
:1058900000207047BDE8104070B5FFF7A3FD00BFC2
:1058A00040DFF63E83F00041104670470000E0FF05
:1058B00043004FEAD30C4FEA3C0C43401FBF400764
:1058C0000CF1605113F0FE4F70471CF0006F03D1D4
:1058D00000200CF0004170470CF0004343EA507088
:1058E00010B540EACC0000F048FA00BF000000927A
:1058F0004FEA0001FFF7C4BD4FF000414FF0000038
:10590000A1F500217047000090EA010F48BF81F027
:10591000004100F1B682421A3CBF801A89184FEA52
:10592000D0524FF07F4C1CEA410FA2EBD15318BF6D
:105930009CEA026F00F03B804FF0004C4CEA0020E4
:105940004CEA012121FA03FC10EB0C0C1ED202F1EF
:10595000FF325FEA1C2040EBC25038BF70471CF09A
:105960007F0F4FEA400C18BFBCF17F4F38BF704724
:10597000C3F12003994008BF20F00100BCF17F4F24
:1059800038BF7047A0F1C04000F03DBA4FEA3C007C
:10599000000A40EBC25028BF1CF0FF0F4FEA400C3A
:1059A000E6D018BFBCF17F4F38BF7047EAE79CEAEA
:1059B000026F05D010EA5C0F08BF00F0004070478E
:1059C00010B500F0DAF900BF64FBBE3E401058BFCE
:1059D000C0F14040491058BFC1F140418142EFF34E
:1059E000008070474FF47F0C1CEAD0121EBF1CEAE7
:1059F000D11392EA0C0F93EA0C0F00F0858090EA25
:105A0000010F48BF42F4807240F4000C41F40000E2
:105A10002CF07F4120F07F4000B58142A2EB0302D1
:105A20000FF2081CACEB504EC0F100009EF800E0F5
:105A30004FEA4E0E00FB0EFC38BF49004FEA2C1C0B
:105A400002F5FA020CFB0EF34FEACE1E4FEA112CC0
:105A50004FEAC1210EEB635E42EB22420EFB0CFCCF
:105A60004FEA1C5300FB03114FEA112C4FEA01319E
:105A70000EFB0CFC4FEADC4C00FB0C11C14228BFB2
:105A800009184CEB03335DF804EB10EB410143EBD9
:105A9000C250B2F57C0F38BF704729D512F0F00F15
:105AA0001CBF00F1C04000F00040704700818283BD
:105AB0008485868788898B8C8D8E8F91929395961D
:105AC00097999A9C9D9FA0A2A3A5A7A8AAACAEB0A7
:105AD000B2B3B5B7B9BCBEC0C2C5C7C9CCCED1D4AC
