:020000040800F2
:10000000600E00208D0C0008F5010008F7010008C3
:10001000FB010008FF0100080302000800000000C7
:1000200000000000000000000000000007020008BF
:1000300009020008000000000B0200080D02000881
:10004000A70C0008A70C0008A70C0008A70C0008C4
:10005000A70C0008A70C0008A70C0008A70C0008B4
:10006000A70C0008A70C0008A70C0008A70C0008A4
:10007000A70C0008A70C0008A70C0008A70C000894
:10008000A70C0008A70C0008A70C0008A70C000884
:10009000A70C0008A70C0008A70C0008A70C000874
:1000A000A70C0008A70C0008A70C0008A70C000864
:1000B000A70C0008A70C0008814C0008A70C00083A
:1000C000A70C0008A70C0008A70C0008A70C000844
:1000D000A70C0008E1490008E94D0008A70C00083A
:1000E000A70C0008A70C0008A70C000800F002F8F5
:1000F00000F06DF80AA090E8000C82448344AAF155
:100100000107DA4501D100F062F8AFF2090EBAE852
:100110000F0013F0010F18BFFB1A43F0010318473B
:10012000647C0000847C00000A444FF0000C10F84E
:10013000013B13F0070408BF10F8014B1D1108BF65
:1001400010F8015B641E05D010F8016B641E01F805
:10015000016BF9D113F0080F1EBF10F8014BAD1C55
:100160000C1B09D16D1E58BF01F801CBFAD505E073
:1001700014F8016B01F8016B6D1EF9D59142D6D3CD
:10018000704700000023002400250026103A28BFF5
:1001900078C1FBD8520728BF30C148BF0B607047F9
:1001A000662907F0B284642904F0EA86732905F011
:1001B0006C82002070471FB505F06CFA0400002027
:1001C000002106F049FBE0601FBD10B510BD05F031
:1001D00061FB1146FFF7EFFF00F008F805F07FFB29
:1001E00003B4FFF7F2FF03BC05F0C2FB02F0AEFC64
:1001F00000BFFEE7704700BFFEE700BFFEE700BF9D
:10020000FEE700BFFEE77047704770477047000089
:100210000CB50020019000906C48006840F48030DC
:100220006A49086000BF6948006800F40030009027
:100230000198401C0190009818B90198B0F5A06F82
:10024000F1D16248006800F4003010B10120009044
:1002500001E0002000900098012843D15C4800682C
:1002600040F010005A4908600846006820F003007A
:1002700008600846006840F0020008605348406883
:10028000524948600846406848600846406840F463
:10029000806048600846406820F47C10486008464A
:1002A000406840F4E81048600846006840F08070FC
:1002B000086000BF4548006800F000700028F9D0D1
:1002C0004248406820F003004049486008464068C2
:1002D00040F00200486000BF3C48406800F00C005D
:1002E0000828F9D10CBD10B5FFF792FF10BD10B56D
:1002F0003648006840F0010034490860084640680C
:10030000344908403149486008460068324908408D
:100310002E4908600846006820F4802008600846DE
:10032000406820F4FE0048604FF41F008860FFF72B
:10033000DAFF4FF000602949086010BD10B50021B8
:1003400000200022214B5B6803F00C0121B104293D
:1003500006D0082928D107E0214B224C236027E052
:100360001F4B204C236023E0184B5B6803F4701094
:10037000164B5B6803F48032022303EB904022B9F2
:10038000194B4343174C23600DE0104B5B6803F49B
:10039000003323B1144B4343124C236003E0104B52
:1003A0004343104C236003E00D4B0E4C236000BF11
:1003B00000BF064B5B68C3F303130C4CE15C094BB5
:1003C0001B68CB40074C236010BD000000100240AA
:1003D000002002400000FFF8FFFFF6FE08ED00E0FD
:1003E00000127A000000002000093D0004000020F7
:1003F000FC48FD490860FD48FD490860FD48FE498C
:100400000860F848FD4908600020FD490860FD4883
:10041000FD4908600020FD490860FD490860FD496C
:100420000860FD48FD490860FD48FE49086000205D
:10043000FD490860704710B5FC480068FC49086237
:10044000FC480168FA488164FB480168F848016784
:1004500000F06CFBF648283000F068FBF4485030A0
:1004600000F064FBF548B0F9000007F08FF9F0499F
:10047000C1F89000F248B0F9000007F087F9EC49A4
:10048000C1F8B000EF48B0F9000007F07FF9E84983
:10049000C1F8D00001F1780000F08DFBE4489830FD
:1004A00000F089FBE248B83000F085FB10BD2DE973
:1004B000F04F89B0E34AE249E04802F0EAFDE24A3F
:1004C000E249E34802F0BDFDE148B0F9000007F061
:1004D0005DF98146DF480168484607F0A1FA044605
:1004E00006F0BCFF0746DC4ADC4B06F0B9FA0546CD
:1004F00006F0C8F9CD490860D448B0F9000007F00B
:1005000045F98146D6480168484607F089FA04460D
:1005100006F0A4FF0746D04AD04B06F0A1FA0546E4
:1005200006F0B0F9C3490860C748B0F9000007F009
:100530002DF98146CB480168484607F071FA044618
:1005400006F08CFF0746C44AC44B06F089FA0546FC
:1005500006F098F9B8490860FFF76DFFB449486F95
:1005600006F07CFF07464FF06632BF4B06F078FA84
:10057000054606F087F90446AD49C86C06F06EFFE3
:1005800007464FF06632B84B06F06AFA054606F0A9
:1005900079F98146A649486A06F060FF07464FF0A0
:1005A0006632B14B06F05CFA054606F06BF98246FE
:1005B000AE49AF4AAF4B9E48D0F8D400CDE90232E5
:1005C000049101909A48D0F8B400009098482246CF
:1005D0004946D0F89430504602F00AFEA44800681C
:1005E000A54908609248406AA4490860A04800688C
:1005F00006F034FF8046A24AA24B06F01FFC0646D6
:100600000022A14B06F02CFA044606F03BF99F4964
:1006100008608548006806F021FF8046984A994B9B
:1006200006F00CFC06460022974B06F019FA044629
:1006300006F028F9964908607D49486A06F00EFFE1
:1006400080468F4A8F4B06F0F9FB064600228E4B00
:1006500006F006FA044606F015F98E4908606C4863
:1006600001688A48006806F025FF059006F0F6FE4E
:100670000022894BCDE9060106F0E0FB8046874A5F
:10068000874B06F0DBFB04460D466048006806F029
:10069000E5FE064622462B4606F026F9824606F07F
:1006A000F1F85A490860524801685848006807F054
:1006B000B9F806467548006880F000444A48016869
:1006C000204607F0AFF80546314607F0A9F975490D
:1006D0000860084601686F48006807F0A1F90390B8
:1006E00071480168039806F0E5FE83466F4801688B
:1006F000584607F095F9824606F0B0FE0022664B98
:10070000CDE9040106F09AFB644A654BCDE9060188
:1007100006F094FB04460D463E48006806F09EFE37
:10072000064622462B4606F0DFF8804606F0AAF879
:1007300038490860084601683148006807F072F8D7
:10074000804606F08BFE04460D4656480168514827
:10075000006807F065F9009053480168009807F0B9
:100760005FF9019051480168019806F0A3FE8346A5
:1007700025480168584607F055F8824606F06EFE97
:10078000464A474BCDE9020106F06AF980468946A0
:10079000444801683F48006807F042F90390174851
:1007A000006880F0004B5846039907F03BF88246FA
:1007B00006F054FE42464B46CDE9040106F064FDC6
:1007C000064622462B4606F05FFDCDE9060106F0FF
:1007D00059F837490860114801683548006807F042
:1007E00021F867E00000E040500000203333333F41
:1007F00054000020CDCCCC3D580000205C000020EF
:10080000600000203333B33E6400002074000020F9
:10081000700000208800002000606A4798000020D7
:100820000000FA449C0000207800002020000020F6
:10083000480100202400002028000020340000206F
:1008400036000020380000203E0000203C00002040
:100850003A000020C4000020FCA9F1D24D623040D3
:10086000C8000020CC00002066A64C401C000020E0
:1008700018000020140000202C0000203000002070
:10088000A7E8482EFF21094000806640680000204C
:100890007C0000206C0000200000E03F7B14AE478D
:1008A000E17A743F840000208C000020900000203A
:1008B000940000208949086008460168884806F0CD
:1008C000F9FD824606F0CAFD804605F09FFF064608
:1008D0000022844B06F008F8044606F019FA824913
:1008E00008607E4801687E4807F09AF8824606F064
:1008F000B5FD064605F08AFF04460022794B05F057
:10090000F3FF804606F004FA7849086078480068EA
:100910007849086078480068784908607848006835
:100920007849086071480068B0F5486F03DA4FF401
:1009300048606E4908606D48006841F29411884231
:1009400002DD08466949086067480068B0F5486FED
:1009500003DA4FF44860644908606348006841F274
:100960009411884202DD08465F49086066480078B5
:1009700001280BD140F6B83064490880091D088071
:100980000020634908606349086007E05748008811
:100990005E49088054480088091D088009B0BDE8F8
:1009A000F08F2DE9F05F5C480068401C5A490860F0
:1009B00008460068B0F5C87F1CDA0846006806F0F3
:1009C000D6F982460022554B06F038FA80460022BE
:1009D000534B06F045F806460022424B05F084FFD3
:1009E000044606F095F941490860084600683E490A
:1009F000086056E048480068B0F5167F08DA41F212
:100A000068003A490860084600683749086048E0CD
:100A100041480068B0F5487F08DA40F63C70334939
:100A2000086008460068304908603AE03A480068C3
:100A3000B0F57A7F08DA4FF461602C490860084607
:100A40000068294908602CE033480068B0F5966FCB
:100A50001EDA31490968C1F5966006F088F9064644
:100A60000022304B06F0EAF9044600222E4B05F036
:100A7000F7FF804600221B4B05F036FF824606F04A
:100A800047F91A490860084600681749086008E0F5
:100A900040F6B830154908601349086000201E4927
:100AA00008601948007801280DD140F6B830174980
:100AB0000880091D08800D4908600B490860002066
:100AC0001549086007E00948008810490880064871
:100AD0000088091D0880BDE8F09F000094000020F8
:100AE00000401C490070A740440000204000002046
:100AF00068000020700000206C0000208C000020A6
:100B00008400002090000020480000203C040040A9
:100B100074000020880000204C00002000C092409B
:100B20000000794000C08240000069402DE9FC5F70
:100B3000044660682060A0686060E068A0604A4980
:100B4000206A06F025FDE06060692061A1696161AD
:100B5000E169A1614548A16906F064FE019044483D
:100B6000616906F05FFE81464248216906F05AFE3F
:100B70000090D4E9010106F09DFC83463E4906F051
:100B800051FE8046E168206806F094FC82464146AA
:100B900006F090FC0746009906F08CFC0646494694
:100BA00006F088FC0546019906F084FCE061E069E6
:100BB0006062BDE8FC9F2DE9F04704466068206054
:100BC000A06860602D49A06906F0E2FCA060206981
:100BD000E060616921612A48216906F023FE074629
:100BE0002848E16806F01EFE80464FF080406168AC
:100BF00006F018FE8146A168206806F05BFC82467C
:100C0000494606F057FC0646414606F053FC0546A9
:100C1000394606F04FFC60616069E061BDE8F0872D
:100C20002DE9F041044621696161E1682161A16813
:100C3000E1606168A16020686060D4E9010106F0AC
:100C400039FC8046E16806F035FC0746216906F06C
:100C500031FC0646616906F02DFC05460A4906F09E
:100C600097FCA061BDE8F0816D85AC432BF1174086
:100C700020F5F6BF1736083F0000404067BFFF422F
:100C80007E0BDE3F021944BF0000A04009488047A8
:100C900009480047FEE7FEE7FEE7FEE7FEE7FEE75E
:100CA000FEE7FEE7FEE7FEE704480549054A064B76
:100CB00070470000EF020008ED0000086008002007
:100CC000600E0020600A0020600A002031490143C4
:100CD000314A1160704770B5002100230F22C4789B
:100CE00004B32D4C246804F4E064C4F5E064210AE4
:100CF000C1F10403CA40447804FA03F18478144033
:100D000021430901254C0678A155047804F01F05FC
:100D10000124AC4005786D11AD0005F1E025C5F862
:100D2000004109E0047804F01F050124AC401C4D8B
:100D30000678761145F8264070BD1A4A0A400243EB
:100D4000154B1B1F1A60704739B1134A121D1268E8
:100D50000243114B1B1D1A6006E00F4A121D126858
:100D600082430D4B1B1D1A607047042808D14FF0B9
:100D7000E021096941F004014FF0E022116107E030
:100D80004FF0E021096921F004014FF0E0221161E8
:100D9000704700000000FA050CED00E000E400E000
:100DA00080E100E080FFFF1F01684FF6FE721140F6
:100DB00001600021016041608160C1608D4988420D
:100DC00008D18C490839496841F00F01894A083A2D
:100DD00051608AE087491431884208D18549083931
:100DE000496841F0F001834A083A51607DE0814949
:100DF0002831884208D17F490839496841F4706137
:100E00007C4A083A516070E07A493C31884208D106
:100E100078490839496841F47041764A083A516086
:100E200063E074495031884208D1724908394968F1
:100E300041F470216F4A083A516056E06D496431BF
:100E4000884208D16B490839496841F47001694A00
:100E5000083A516049E067497831884208D16549CC
:100E60000839496841F07061624A083A51603CE0D3
:100E70006149884206D1011F096841F00F01021F34
:100E8000116032E05C491431884208D15A49091F87
:100E9000096841F0F001584A121F116025E05649D7
:100EA0002831884208D15449091F096841F470610A
:100EB000514A121F116018E04F493C31884208D155
:100EC0004D49091F096841F470414B4A121F1160D6
:100ED0000BE049495031884207D14749091F096849
:100EE00041F47021444A121F1160704710B500226E
:100EF000026847F6F0739A430C6A8B6823430C69C7
:100F000023434C6923438C692343CC6923434C6AB4
:100F100023438C6A23431A430260CB6843600B6807
:100F200083604B68C36010BD002101604160816037
:100F3000C160016141618161C1610162416281629F
:100F4000704721B1026842F00102026004E00268C9
:100F50004FF6FE731A40026070471AB103680B43E4
:100F6000036002E003688B43036070474160704791
:100F70000146486880B2704701460020002201F017
:100F800080531BB11C4B083B1A6802E0194B083B0D
:100F90001A6802EA01030BB1012000E0002070474B
:100FA00000F0805119B11449091F086002E011498D
:100FB00008394860704701460020002201F0805344
:100FC0001BB10D4B083B1A6802E00A4B083B1A683C
:100FD00002EA01030BB1012000E00020704700F09D
:100FE000805119B10449091F086002E0014908391C
:100FF00048607047080002400804024010B50446EB
:10100000CC48844208D10121042000F02DFB0021AE
:10101000042000F029FB46E0C748844208D10121A2
:10102000082000F021FB0021082000F01DFB3AE021
:10103000C248844208D10121102000F015FB002194
:10104000102000F011FB2EE0BD48844208D10121A0
:10105000202000F009FB0021202000F005FB22E009
:10106000B848844208D10121402000F0FDFA002157
:10107000402000F0F9FA16E0B348844208D101217B
:10108000802000F0F1FA0021802000F0EDFA0AE063
:10109000AE48844207D10121801500F0E5FA002115
:1010A000A01500F0E1FA10BD10B50121084600F0CE
:1010B000DBFA0021012000F0D7FA10BD2DE9F04144
:1010C000024600250026002000230024002791F876
:1010D00003C00CF00F0591F803C00CF0100CBCF12C
:1010E000000F03D091F802C04CEA050591F800C04A
:1010F000BCF1000F31D0146800202BE04FF0010C40
:101100000CFA00F3B1F800C00CEA03069E4220D1AD
:1011100083004FF00F0C0CFA03F7BC4305FA03FCF5
:101120004CEA040491F803C0BCF1280F06D14FF03B
:10113000010C0CFA00FCC2F814C00AE091F803C0DC
:10114000BCF1480F05D14FF0010C0CFA00FCC2F8BD
:1011500010C0401C0828D1D31460B1F800C0BCF105
:10116000FF0F34DD546800202EE000F1080C4FF032
:10117000010808FA0CF3B1F800C00CEA03069E421D
:1011800021D183004FF00F0C0CFA03F7BC4305FA92
:1011900003FC4CEA040491F803C0BCF1280F05D10C
:1011A00000F1080C08FA0CF8C2F8148091F803C09A
:1011B000BCF1480F07D100F1080C4FF0010808FA04
:1011C0000CF8C2F81080401C0828CED35460BDE84B
:1011D000F0814FF6FF710180022181700421C170FE
:1011E00070470246002093680B400BB1012000E0DD
:1011F000002070470146886880B270470246002090
:10120000D3680B400BB1012000E00020704701467D
:10121000C86880B2704701617047416170470AB188
:10122000016100E041617047C16070474FF4803256
:101230000A438261816182618269826970470246E4
:101240000020434B18684FF68073184040EA0210A4
:1012500008433F4B186070473E49C8617047F0B57E
:101260000A46002300240021002500F00046B6F1C4
:10127000004F02D1364EF16901E0354E7168C0F37E
:10128000034583B200F44016B6F5401F08D121F0A3
:1012900070612F4E766826F070662D4F7E6012E0EA
:1012A00000F48016B6F5801F06D1032606FA05F471
:1012B000A14341F0706106E0460D360103FA06F6DF
:1012C000B14341F0706122B1460D360103FA06F6D2
:1012D000314300F00046B6F1004F02D11C4EF161DF
:1012E00001E01B4E7160F0BD30B500228B071C0F72
:1012F0000F2303FA04F2164B08338C1053F82430F2
:101300009343134C08348D1044F8253023468C1039
:1013100053F824308C07240F00FA04F423430C4CB8
:1013200008348D1044F8253030BD0A49DC3108609E
:101330007047000000080140000C0140001001400F
:101340000014014000180140001C01400020014031
:101350000000014000002042DF48006840F001002A
:10136000DD49086008464068DC490840DA494860C1
:1013700008460068DA490840D7490860084600680E
:1013800020F4802008600846406820F4FE00486091
:101390004FF41F0088607047CF49096821F48031FD
:1013A000CD4A11601146096821F480211160B0F521
:1013B000803F03D0B0F5802F0ED106E0C649096802
:1013C00041F48031C44A116007E0C349096841F41F
:1013D000A021C14A116000E000BF00BF704710B5F6
:1013E00001460022002300204A11012A02D1BA4CF2
:1013F000236806E0022A02D1B74C236A01E0B64C0A
:10140000636A01F01F02012494401C400CB10120CA
:1014100000E0002010BD38B5002000900024002519
:1014200000BF3120FFF7DBFF05460098401C00900D
:101430000098B0F5A06F01D0002DF2D03120FFF759
:10144000CEFF08B1012400E00024204638BD01464B
:101450000020A14A106820F0F80040EAC1001060A6
:101460007047A04908607047024600209A4B5868B0
:1014700020F47C1042EA01031843974B58607047F0
:1014800098490866704701460020934A506820F04A
:1014900003000843506070478F48406800F00C001C
:1014A0007047014600208C4A506820F0F000084345
:1014B0005060704701460020874A506820F4E06081
:1014C00008435060704701460020834A506820F46A
:1014D000605040EAC1005060704729B17E4A527A9C
:1014E00002437D4B5A7204E07B4A527A82437A4B24
:1014F0005A7270477B49D831086070470146002016
:10150000754A506820F440400843506070470021FD
:10151000714A20321170704A82F82010012802D0DE
:1015200004280AD104E001216B4A2032117005E041
:101530000521694A2032117000E000BF00BF7047EA
:101540006949086070476449096A0143624A116247
:101550007047654944390860704730B50021002262
:10156000002400235C4D6D6805F00C0121B10429B5
:1015700005D0082923D105E05C4D056022E05B4DD4
:1015800005601FE0544D6D6805F47012524D6D6892
:1015900005F48034022505EB92421CB9544D5543A5
:1015A00005600BE04C4D6D6805F400351DB1504DE4
:1015B0005543056002E04D4D5543056002E04B4D3B
:1015C000056000BF00BF444D6D6805F0F0010909DA
:1015D000484D6B5C0568DD4045603F4D6D6805F426
:1015E000E061090A434D6B5C4568DD4085603A4D1A
:1015F0006D6805F46051C90A3E4D6B5C4568DD407D
:10160000C560354D6D6805F44041890B3A4D6B5C02
:10161000C568B5FBF3F5056130BD29B12E4A5269A5
:1016200002432D4B5A6104E02B4A526982432A4BF4
:101630005A61704729B1284A92690243264B9A6140
:1016400004E0254A92698243234B9A61704729B18D
:10165000214AD2690243204BDA6104E01E4AD26972
:1016600082431D4BDA61704729B11B4AD26802439D
:10167000194BDA6004E0184AD2688243164BDA60EC
:10168000704729B1144A12690243134B1A6104E0EE
:10169000114A12698243104B1A617047124940394E
:1016A000086070470F49C86470470B49C87170479C
:1016B0000948406A40F08070074948627047014617
:1016C0000020054A92680A400AB1012000E000208B
:1016D0007047014988727047001002400000FFF80F
:1016E000FFFFF6FE000042428004424200127A00F0
:1016F00000093D00AC000020BC00002010B50446ED
:10170000FE48844208D10121C014FFF7ADFF00213B
:10171000E014FFF7A9FFC4E0B4F1804F08D1012124
:101720000846FFF7AEFF00210120FFF7AAFFB8E04F
:10173000F348844208D101210220FFF7A2FF0021D3
:101740000220FFF79EFFACE0EE48844208D1012161
:101750000420FFF796FF00210420FFF792FFA0E08E
:10176000E948844208D101210820FFF78AFF0021BF
:101770000820FFF786FF94E0E448844208D1012165
:101780001020FFF77EFF00211020FFF77AFF88E08E
:10179000DF48844208D101212020FFF772FF002199
:1017A0002020FFF76EFF7CE0DA48844208D1012157
:1017B0004014FFF759FF00216014FFF755FF70E058
:1017C000D548844209D10121C804FFF74DFF00210B
:1017D0004FF40020FFF748FF63E0D048844209D16E
:1017E00001210805FFF740FF00214FF48010FFF7AB
:1017F0003BFF56E0CA48844209D101214805FFF762
:1018000033FF00214FF40010FFF72EFF49E0C548D9
:10181000844208D101214020FFF733FF00214020FE
:10182000FFF72FFF3DE0C048844208D1012180200E
:10183000FFF727FF00218020FFF723FF31E0BB489F
:10184000844208D101218015FFF71BFF0021A0155C
:10185000FFF717FF25E0B648844209D101210804AB
:10186000FFF702FF00214FF48030FFF7FDFE18E084
:10187000B048844209D101214804FFF7F5FE002158
:101880004FF40030FFF7F0FE0BE0AB48844208D184
:1018900001218804FFF7E8FE00214FF48020FFF7C4
:1018A000E3FE10BD00220288944B98420ED0994B63
:1018B00098420BD0B0F1804F08D0914B984205D0A0
:1018C000904B984202D0904B984204D14FF68F73C0
:1018D0001A404B881A438D4B984207D08C4B984244
:1018E00004D04FF6FF431A40CB881A4302808B88FE
:1018F00083850B880385814B98420BD0854B98429A
:1019000008D08B4B984205D08A4B984202D08A4B24
:10191000984201D10B7A038601238382704770B508
:10192000002400220023058C4FF6FE763540058406
:10193000028C8388048B4FF68F752C40B51E2C408B
:101940000D882C43751E2A400D892A434D882A4351
:101950006A4DA8420BD06F4DA84208D0744DA842E2
:1019600005D0744DA84202D0734DA84213D14FF652
:10197000F7752A404D892A434FF6FB752A408D881A
:101980002A434FF6FF652B404FF6FF552B408D89BC
:101990002B43CD892B4383800483CD8885860284A5
:1019A00070BD70B5002400220023058C4FF6EF7641
:1019B00035400584028C8388048B48F6FF752C40E3
:1019C0004FF6FF452C400D884FF6FF7606EA0525B9
:1019D0002C434FF6DF752A400D8906EA05152A4388
:1019E0004D8806EA05152A43444DA84202D0494DC8
:1019F000A8421DD14FF67F752A404D894FF6FF76DC
:101A000006EA05152A434FF6BF752A408D8806EA77
:101A100005152A434FF6FF352B404FF2FF752B403B
:101A20008D8906EA85052B43CD8906EA85052B437A
:101A300083800483CD880587028470BD70B500243F
:101A400000220023058C4FF6FF6635400584028C8A
:101A50008388848B4FF68F752C404FF6FC752C4095
:101A60000D882C434FF6FF552A400D894FF6FF761F
:101A700006EA05252A434D8806EA05252A431F4D17
:101A8000A84202D0234DA8421DD14FF2FF752A4033
:101A90004D894FF6FF7606EA05252A434FF6FF35B6
:101AA0002A408D8806EA05252A434EF6FF752B400D
:101AB0004DF6FF752B408D8906EA05152B43CD8920
:101AC00006EA05152B4383808483CD8885870284AD
:101AD00070BD70B5002200230024058C4EF6FF7601
:101AE00035400584038C8488828B48F6FF752A4034
:101AF0004FF6FF452A400D8820E00000002C0140F1
:101B00000004004000080040000C004000100040AD
:101B10000014004000340140004C014000500140DE
:101B20000054014000180040001C0040002000400C
:101B30000040014000440140004801404FF6FF765C
:101B400006EA05252A434DF6FF752B400D8906EA66
:101B500005352B434D8806EA05352B43FA4DA8423F
:101B600002D0FA4DA84208D14BF6FF752C408D8962
:101B70004FF6FF7606EA85152C4384808283CD8854
:101B8000A0F84050038470BD828B4FF2FF331A409F
:101B90008283828B4FF6FF7303EA01231A43828309
:101BA0007047F0B50C461546002200210026078C30
:101BB0004EF6FF7C07EA0C070784828B018C4FF6F8
:101BC000FF7707EA043640F6FF473A404FF6FF77C3
:101BD00007EA05273A434FF6FF7707EA03373A4308
:101BE000D94FB8420ED0D94FB8420BD0B0F1804F88
:101BF00008D0D74FB84205D0D64FB84202D0D64F02
:101C0000B84206D14DF6FF77394046F48057394344
:101C100005E047F6FF57394044F480573943828343
:101C20000184F0BD828B4FF6F3731A408283828B5E
:101C30000A4382837047F0B50C4615460022002106
:101C40000026078C4FF6FF6C07EA0C070784828B8F
:101C5000018C4FF6FF7707EA04264FF60C773A40DF
:101C60004FF6FF7707EA03172F433A43B64FB842C0
:101C70000ED0B64FB8420BD0B0F1804F08D0B44F61
:101C8000B84205D0B34FB84202D0B34FB84206D1E4
:101C90004FF6FF57394046F48077394305E04FF25D
:101CA000FF57394044F48077394382830184F0BD83
:101CB000028B4FF2FF331A400283028B4FF6FF7301
:101CC00003EA01231A4302837047F0B50C46154618
:101CD000002200210026078C4FF6EF7C07EA0C0754
:101CE0000784028B018C4FF6FF7707EA041640F653
:101CF000FF473A404FF6FF7707EA03373A434FF67C
:101D0000FF7707EA05273A438F4FB8420ED08F4F2F
:101D1000B8420BD0B0F1804F08D08D4FB84205D0FB
:101D20008C4FB84202D08C4FB84206D14FF6DF77C5
:101D3000394046F01007394305E04FF65F773940E8
:101D400044F01007394302830184F0BD028B4FF643
:101D5000F3731A400283028B0A4302837047F0B583
:101D60000C46154600220021068C4FF6FE773E40B9
:101D70000684028B018C4FF60C7632407E1C06EAFC
:101D800003162E433243704EB0420ED06F4EB04217
:101D90000BD0B0F1804F08D06D4EB04205D06D4EE3
:101DA000B04202D06C4EB04206D14FF6FD763140C3
:101DB00044F00106314305E04FF6F576314044F03A
:101DC0000106314302830184F0BD70B505460C461F
:101DD0005D4885420ED05D4885420BD0B5F1804FFD
:101DE00008D05B48854205D05A48854202D05A48FF
:101DF000854200D100E000BF208850B92389A28825
:101E000061882846FFF7ABFFE1882846FFF79EFF71
:101E100025E0208804280AD12389A28861882846E1
:101E2000FFF753FFE1882846FFF742FF17E02088BD
:101E300008280AD12389A28861882846FFF7FBFE7B
:101E4000E1882846FFF7EEFE09E02389A288618831
:101E50002846FFF7A6FEE1882846FFF795FE70BDED
:101E60002DE9F04105460C4600260127608808B997
:101E7000022600E00026A088012801D1022700E008
:101E800001272088A0B92389A28861882846FFF706
:101E900066FFE1882846FFF759FF23893A46314615
:101EA0002846FFF712FFE1882846FFF701FF13E0FD
:101EB0002389A28861882846FFF707FFE188284622
:101EC000FFF7F6FE23893A4631462846FFF747FFDB
:101ED000E1882846FFF73AFFBDE8F0810A884B8881
:101EE0001A438B881A43CB881A430B891A434B89B0
:101EF0001A438B891A43A0F8442070474FF6FF71AC
:101F0000818000210180C1804180017270470021E1
:101F1000018041808180C180018141818181C181B5
:101F20007047002101804180012181800021C18012
:101F3000018170470021018041808180C180018141
:101F40004181818170470000002C01400034014034
:101F50000004004000080040000C004021B102884D
:101F600042F00102028004E002884FF6FE731A403C
:101F70000280704731B1B0F8442042F40042A0F82A
:101F8000442005E0B0F84420C2F30E02A0F844203B
:101F900070471AB183890B43838102E083898B43A5
:101FA000838170478182704741EA0203A0F848307C
:101FB00070471AB183890B43838102E083898B4385
:101FC0008381704701894FF6F87211400181704793
:101FD0000A46002101894FF68F7319401143018190
:101FE000704730B504460D4629462046FFF7F0FFFE
:101FF000208940F00700208130BD2DE9F0410446E2
:102000000D4616461F46602D06D13B46012231463D
:102010002046FFF75AFE05E03B46012231462046A6
:10202000FFF79DFE29462046FFF7D2FF208940F0AA
:1020300007002081BDE8F08130B50C460021018900
:10204000C9B24FF6FF7505EA032515432543294319
:10205000018130BD2DE9F04105460E4617469846F0
:10206000002443463A4631462846FFF7E5FF2C89CF
:102070004FF6F870044044F007044FF68F700440A8
:1020800044F070042C81BDE8F081F0B504460D46A3
:1020900016461F463B46324629462046FFF7CCFFF0
:1020A000208940F480402081F0BD01858282704704
:1020B0000A46002101884FF68F73194011430180B1
:1020C0007047F0B50C4615461E460021002200233D
:1020D0000189028B038C4FF6F877394021434FF684
:1020E000FC473A4040F201173A434FF6DD773B4058
:1020F0004FF6FF7707EA06172F433B430181028320
:102100000384F0BD0A460021018B4FF68F731940FE
:102110001143018370470A460021018B48F6FF7383
:1021200019404FF6FF7303EA0223194301837047F6
:102130000A460021818B4FF68F731940114381832A
:1021400070470A460021818B48F6FF7319404FF60D
:10215000FF7303EA022319438183704721B1028888
:1021600042F08002028004E002884FF67F731A403A
:102170000280704721B1828842F00402828004E02C
:1021800082884FF6FB731A408280704721B18288A3
:1021900042F00802828004E082884FF6F7731A400A
:1021A0008280704721B1828842F00102828004E07F
:1021B00082884FF6FE731A40828070470A460021DB
:1021C000018B4FF6F77319401143018370470A469C
:1021D0000021018B4FF2FF7319404FF6FF7303EAA2
:1021E00002231943018370470A460021818B4FF671
:1021F000F77319401143818370470A460021818B90
:102200004FF2FF7319404FF6FF7303EA022319439D
:10221000818370470A460021018B4FF6FB731940FA
:102220001143018370470A460021018B4FF6FF33AB
:1022300019404FF6FF7303EA0223194301837047E5
:102240000A460021818B4FF6FB73194011438183AD
:1022500070470A460021818B4FF6FF3319404FF635
:10226000FF7303EA02231943818370470A46002162
:10227000018B4FF67F7319401143018370470A4663
:102280000021018BC1F30E014FF6FF7303EA022315
:102290001943018370470A460021818B4FF67F73F3
:1022A00019401143818370470A460021818BC1F395
:1022B0000E014FF6FF7303EA02231943818370472F
:1022C0000A460021018C4FF6FD7319401143018429
:1022D00070470A460021018C4FF6F77319401143ED
:1022E000018470470A460021018C4FF6DF731940C4
:1022F0004FF6FF7303EA02131943018470470A463D
:102300000021018C4FF67F7319404FF6FF7303EAEB
:1023100002131943018470470A460021018C4FF6CD
:10232000FF5319404FF6FF7303EA02231943018458
:1023300070470A460021018C4FF2FF7319404FF697
:10234000FF7303EA02231943018470470A46002100
:10235000018C4DF6FF7319404FF6FF7303EA023309
:1023600019430184704730B5002301248C40A3B287
:10237000048C9C430484048C02FA01F5ADB22C4316
:10238000048430BD30B5002304248C40A3B2048CF7
:102390009C430484048C02FA01F5ADB22C430484FE
:1023A00030BD70B5034600200024184618300125C2
:1023B0008D40ACB21D8CA5431D8409B1082909D1FB
:1023C00000EB6100056825F07005056005681543A0
:1023D00005600EE00D1FC5F34E052844056825F481
:1023E000E045056005684FF6FF7606EA02263543AC
:1023F000056070BD21B1028842F00202028004E053
:1024000002884FF6FD731A400280704721B102889E
:1024100042F00402028004E002884FF6FB731A4087
:102420000280704721B1828842F08002828004E0FD
:1024300082884FF67F731A408280704702884FF679
:10244000F7731A40028002880A430280704782882C
:102450004FF68F731A40828082880A4382807047C9
:1024600002894FF6F8731A40028102890A430281F9
:10247000704702894FF67F731A40028102890A432E
:1024800002817047818470478185704781867047DB
:102490000187704781877047A0F840107047028815
:1024A0004FF6FF431A40028002880A4302807047B9
:1024B0000146888E70470146088F70470146888F15
:1024C00070470146B1F8400070470146888C70475C
:1024D0000146088D704702460020138A0B400BB15D
:1024E000012000E000207047CA430282704730B5E7
:1024F0000246002000230024158A05EA010395897D
:1025000005EA010413B10CB1012000E0002030BD48
:10251000CA4302827047000010B50446FB4884425B
:1025200009D101218803FFF79FF800214FF4804073
:10253000FFF79AF832E0F648844209D101214804B5
:10254000FFF79FF800214FF40030FFF79AF825E0DD
:10255000F048844209D101218804FFF792F8002154
:102560004FF48020FFF78DF818E0EB48844209D142
:102570000121C804FFF785F800214FF40020FFF780
:1025800080F80BE0E548844208D101210805FFF7F7
:1025900078F800214FF48010FFF773F810BD2DE993
:1025A000F04786B005460E460024A24600BFA1466D
:1025B0000027B08900B100BF2F462C8A4CF6FF706F
:1025C0000440F08804432C82AC894EF6F31004409A
:1025D000B08831890843718908430443AC81AC8ACF
:1025E0004FF6FF400440B0890443AC8201A8FEF7D7
:1025F000B4FFC648874202D1DDF810A001E0DDF843
:102600000CA0A88900F4004040B10AEBCA0000EB1E
:102610000A1031684900B0FBF1F807E00AEBCA0084
:1026200000EB0A1031688900B0FBF1F86420B8FBB8
:10263000F0F004012009642101FB1089A88900F44D
:10264000004040B1322000EBC900B0FBF1F000F0D7
:102650000700044308E0322000EB09106421B0FBBE
:10266000F1F000F00F0004432C8106B0BDE8F087C4
:102670004FF41651016000218180C18001810C213D
:10268000418100218181704710B502460020108AE7
:102690004FF2FF0318400B884C8823438C88234358
:1026A000CC8823431843108210BD00210180418053
:1026B0008180C180704721B1828942F400528281B9
:1026C00004E082894DF6FF731A4082817047F0B5AD
:1026D0000346002400260025002040F66A17B94270
:1026E00000D100BF1846C1F3421401F01F060127B4
:1026F00007FA06F5012C01D10C3004E0022C01D1BF
:10270000103000E014301AB107682F43076002E070
:102710000768AF430760F0BD1AB1838A0B43838219
:1027200002E0838A8B4383827047028A4FF6F073FC
:102730001A400282028A0A430282704782894FF25B
:10274000FF731A40828182890A438281704721B1D6
:10275000828942F00202828104E082894FF6FD7391
:102760001A4082817047028A4FF6DF731A40028254
:10277000028A0A430282704721B1028A42F48042EF
:10278000028204E0028A4BF6FF731A40028270470D
:10279000C1F308028280704701468888C0F30800B0
:1027A0007047818941F0010181817047028BD2B26B
:1027B0000283028B42EA012202837047028B02F4F9
:1027C0007F420283028B0A430283704721B1828ACF
:1027D00042F02002828204E0828A4FF6DF731A40C0
:1027E0008282704721B1828A42F01002828204E024
:1027F000828A4FF6EF731A408282704721B1828A33
:1028000042F00802828204E0828A4FF6F7731A408F
:102810008282704721B1828942F40042828103E0C2
:102820008289C2F30E028281704721B1828A42F40A
:102830000062828204E0828A4FF2FF731A40828231
:102840007047828A4FF6FB731A408282828A0A435B
:102850008282704721B1828A42F00202828204E0C1
:10286000828A4FF6FD731A4082827047024600202A
:10287000B1F5007F00D100BF13880B400BB10120E0
:1028800000E00020704701F40072B2F5007F00D133
:1028900000BFCA430280704770B50246002400237F
:1028A0000025002040F66A16B14200D100BFC1F3F6
:1028B000421501F01F03012606FA03F3012D02D190
:1028C0009689334006E0022D02D1168A334001E09A
:1028D000968A33400C12012606FA04F41688344016
:1028E00013B10CB1012000E0002070BD10B5002232
:1028F000002340F66A14A14200D100BF0A1201244D
:102900009440A3B2DC43048010BD000000380140B5
:102910000044004000480040004C0040005000408F
:1029200010B56FF00400FEF720FA2E4800682E491B
:10293000B0FBF1F02D4908700846007800EB40012B
:10294000C1EBC0104FF6FF7101EAC00028490880B2
:1029500010BD0146254A12784A434FF0E0235A61E0
:1029600000229A611A46126942F001021A6100BF00
:102970004FF0E022106900F001021AB100F4803239
:10298000002AF5D04FF0E022126922F001024FF048
:10299000E0231A6100229A6170470146144A1288A6
:1029A0004A434FF0E0235A6100229A611A461269A5
:1029B00042F001021A6100BF4FF0E022106900F0FE
:1029C00001021AB100F48032002AF5D04FF0E02263
:1029D000126922F001024FF0E0231A6100229A618D
:1029E000704700000000002000127A00C0000020A4
:1029F000C20000200A2837D2DFE800F0050E1822B6
:102A000036363636362D0121634A1160634AC2F8E4
:102A1000B811634A116027E001215F4A11605F4AE3
:102A2000C2F8B81100215E4A11601DE000215A4A27
:102A300011600121594AC2F8B811594A116013E0D6
:102A40000121554A11600021544AC2F8B8110121F0
:102A5000534A116008E000214F4A11604F4AC2F802
:102A6000B8114F4A116000BF00BF704700B587B072
:102A700042F20F70ADF814001720ADF810000020DE
:102A8000ADF81600ADF8120004A94648FEF70AFF9B
:102A90006020ADF800000120ADF8020040F6B8302B
:102AA000ADF806000020ADF8080069463D48FEF785
:102AB000C5FF08213B48FFF797FB69463948FFF7F8
:102AC00008F808213748FFF798FB01213548FFF740
:102AD00045FB01213348FFF741FA07B000BD08B5B7
:102AE0000320ADF8000018208DF8030003208DF8B6
:102AF000020069462C48FEF7E1FA4FF48070ADF809
:102B0000000010208DF8030069462848FEF7D6FA29
:102B10004FF44040ADF8000010208DF803006946E6
:102B20002148FEF7CBFA08BD10B54FF4A060FEF7C0
:102B3000CDF810BD10B5FDF7DAFB01210220FEF73C
:102B400086FD01210C20FEF775FD10BD10B5FFF7C5
:102B5000E7FEFFF7EFFFFFF7E7FFFFF7C0FFFFF725
:102B600085FF4FF4FA70FFF718FF00F0BFF918B1B6
:102B70000320FFF73FFF02E00220FFF73BFF02F0D8
:102B800017F801F062FF02F062F900F079FF00F03F
:102B9000D8FA02F0E5F810BDA001214200802142E0
:102BA000BC81214200040040000C014000080140AB
:102BB00008B5C020ADF8000010208DF803000320F8
:102BC0008DF802006946FC48FEF778FAC021FA4801
:102BD000FEF721FB08BD10B50220FFF7BAFE10BDBD
:102BE00010B5F548006820F07040F34908600846C9
:102BF000006840F0405008600020F0490860F0494B
:102C0000C1F89C01FFF7E7FF0120EC490860EC499F
:102C1000C1F89C01FFF7DFFF10BD10B50024E648A6
:102C2000006820F07040E44908600846006840F001
:102C3000004008600120E149091D0860FFF7CBFF53
:102C40000120DF49C1F89801FFF7C5FF07E0601CCC
:102C5000C4B2FA2C03DDFFF7C3FF012010BDD74833
:102C60007C3800680028F2D1D449086000BFF5E73D
:102C700070B50446D048006820F07040CE49086026
:102C80000846006840F0405008600020CB490860CA
:102C9000002512E0E009C949091D08606006040E1C
:102CA0000120C749C1F89801FFF795FF0020C349EB
:102CB0000860FFF790FF681CC5B2082DEADB70BD05
:102CC00010B5BD48006820F07040BB490860084658
:102CD000006840F0405008600120B849091D0860B4
:102CE000B749C1F89801FFF776FF0020B349091DE5
:102CF0000860FFF770FF0020B149C1F8980110BDCE
:102D000070B505460C46FFF7DBFFD020FFF7B0FF9C
:102D1000FFF783FF18B1FFF763FF012070BD28465E
:102D2000FFF7A6FFFFF779FF2046FFF7A1FFFFF7A8
:102D300074FF18B1FFF754FF0120EFE7FFF750FFD2
:102D40000020EBE770B504460025BC2C01DB012513
:102D500010E0622C01DB02250CE02A2C01DB0325AC
:102D600008E0142C01DB042504E00A2C01DB052516
:102D700000E0062529461A20FFF7C2FF70BD70B596
:102D80000446B4F57A7F01DD4FF47A74042C00DA3E
:102D900004244FF47A7090FBF4F0401EC5B229462B
:102DA0001920FFF7ADFF0546264604EBD671C1F3A7
:102DB0004F00FFF7C7FF70BD10B500207F490860C6
:102DC0007D48006820F070407B4908600846006834
:102DD00040F04050086000207949C1F89C01FFF79D
:102DE000FAFE012075490860FFF7F5FE00207449DE
:102DF000C1F8980110BD10B50020704908606E48F8
:102E0000006820F070406C4908600846006840F097
:102E10004050086001206A49C1F89C01FFF7DBFEC1
:102E2000012066490860FFF7D6FE00206449C1F81A
:102E3000980110BD70B5054600245F48006820F079
:102E400070405D4908600846006840F00040086036
:102E5000002614E0002059490860FFF7BCFE01205D
:102E60005749C1F898016006040E54487C38006840
:102E700008B1601CC4B2FFF7AEFE701CC6B2082ECB
:102E8000E8DB15B9FFF7B7FF01E0FFF795FF204634
:102E900070BD70B50446FFF713FFD020FFF7E8FEC2
:102EA000FFF7BBFE2046FFF7E3FEFFF7B6FEFFF796
:102EB00007FFD120FFF7DCFEFFF7AFFE0020FFF792
:102EC000B9FF0546FFF78CFE284670BD10B50446D5
:102ED000E006010E1C20FFF713FF10BD10B50446DD
:102EE000E006010E1B20FFF70BFF10BD10B5FFF72A
:102EF0005FFE80216B20FFF703FF6420FFF74DFD8D
:102F000000216B20FFF7FCFE0320FFF7E7FF002006
:102F1000FFF7DCFF4FF4FA70FFF731FF0021382094
:102F2000FFF7EEFE00216A20FFF7EAFE00212320D2
:102F3000FFF7E6FE80213720FFF7E2FE7520FFF75E
:102F4000A8FF0446682C0CD101216B20FFF7D8FEA6
:102F500000216C20FFF7D4FE4FF4FA70FFF70FFF4B
:102F600001E0012010BD0020FCE72DE9F0410646FC
:102F70000F4614461D46FFF7A3FE002141EA460115
:102F8000C8B2FFF775FEFFF748FE20B1FFF728FE35
:102F90000120BDE8F0813846FFF76AFEFFF73DFEED
:102FA000FFF78EFE012101EB4601C8B2FFF760FE7C
:102FB000FFF733FE14E00000000C0140988121422D
:102FC00000802142012C04D10020FFF733FF28703C
:102FD00003E00120FFF72EFF2870601EC4B26D1CB5
:102FE000002CEFD1FFF7FCFD0020D2E72DE9F84FD0
:102FF0006B46022241216820FFF7B7FF9DF80100D0
:103000009DF8001040EA01200FFA80FA504603F0C4
:10301000AEFE804600226E4B03F022FD06466D4A4E
:103020006D4B03F061FC044603F02CFC83466B49B6
:10303000584604F0F7FB044604F06CFB00B2BDE810
:10304000F88F2DE9FC4104460D4616466B460622D4
:1030500043216820FFF789FF0746BFB99DF80100AB
:103060009DF8001040EA012000B220809DF8030086
:103070009DF8021040EA012000B228809DF805006A
:103080009DF8041040EA012000B230803846BDE8C7
:10309000FC812DE9FC4104460D4616466B4606228E
:1030A0003B216820FFF761FF0746BFB99DF801008B
:1030B0009DF8001040EA012000B220809DF8030036
:1030C0009DF8021040EA012000B228809DF805001A
:1030D0009DF8041040EA012000B230803846BDE877
:1030E000FC812DE9F04105460E4617469846FFF74C
:1030F000E7FD002141EA4501C8B2FFF7B9FDFFF73E
:103100008CFD20B1FFF76CFD0120BDE8F081304659
:10311000FFF7AEFDFFF781FD00240CE018F8040076
:10312000FFF7A6FDFFF779FD18B1FFF759FD012064
:10313000EBE7601CC4B2BC42F0DBFFF751FD00209E
:10314000E3E72DE9FE4F002400250026A14600BF3D
:1031500011E06A4601A902A8FFF773FF0220FFF7FA
:103160001CFCBDF908000544BDF904000644BDF986
:1031700000008144641CB4F5FA7FEADB284603F0C2
:10318000F6FD07460022164B03F06AFC824603F068
:1031900079FB14490860304603F0E9FD0746002238
:1031A0000F4B03F05DFC824603F06CFB0E49086098
:1031B000484603F0DCFD07460022094B03F050FCB3
:1031C000824603F05FFB09490860BDE8FE8F0000FE
:1031D00000407540A4703D0AD74342400000C842F9
:1031E00000407F40C4000020C8000020CC00002028
:1031F0000FB595B01B99084604F014FB08901A9976
:10320000084604F00FFB06901899084604F00AFBE4
:103210000590069904F04EF90790089904F04AF9D0
:10322000099004F01BF9CDE90A0103F0EFFACDE9AA
:103230000C0103F027FB1490149804F00FF9FE4AD8
:10324000FE4BCDE90C0103F0F7FE0FD81499189846
:1032500004F09EF9189014991A9804F099F91A90AC
:1032600014991B9804F094F91B9003E00020189027
:103270001A901B90F2480168F248006804F0D2FAF4
:103280000C90F1480168F148006804F0CBFA0B900B
:103290000C9904F0C5FB4FF080410D9004F0C2FA88
:1032A0001390E9480168E648006804F0BBFA0C9006
:1032B000E6480168E348006804F0B4FA0B900C9902
:1032C00004F0F8F84FF080410D9004F0ABFA129042
:1032D000DD480168006804F0A5FA0D90D84801683F
:1032E000006804F09FFA0B90D8480168006804F069
:1032F00099FA0990D3480168006804F093FA08909D
:10330000099904F08DFB0A900B9904F089FB0C904D
:103310000D9904F0CFF8119012991B9804F082FADD
:103320000D9011991A9804F07DFA0C900D9904F003
:1033300077FB10901199189804F074FA0D90139976
:103340001B9804F06FFA0C900D9904F069FB0F9034
:1033500013991A9804F066FA0D901299189804F0CF
:1033600061FA0C900D9904F05BFB0E90B84801686F
:10337000109804F057FA039004F070F800224FF010
:103380008043CDE9040103F059FDAB4AB14BCDE9CF
:10339000060103F053FDCDE90A01AF48006804F0CF
:1033A0005DF8CDE90801DDE90A2303F09DFACDE9D6
:1033B0000C0103F067FAA8490860A54801680F9856
:1033C00004F030FA039004F049F800224FF08043F3
:1033D000CDE9040103F032FD974A9E4BCDE9060189
:1033E00003F02CFDCDE90A019C48006804F036F892
:1033F000CDE90801DDE90A2303F076FACDE90C01F5
:1034000003F040FA95490860914801680E9804F06D
:1034100009FA039004F022F800224FF08043CDE92E
:10342000040103F00BFD844A8A4BCDE9060103F049
:1034300005FDCDE90A018A48006804F00FF8CDE9DE
:103440000801DDE90A2303F04FFACDE90C0103F08E
:1034500019FA8349086083481099006804F0E2F97A
:103460000C90159904F026F80D907B4801680D9892
:1034700004F020F815907B480F99006804F0D2F909
:103480000C90169904F016F80D90744801680D9888
:1034900004F010F8169073480E99006804F0C2F911
:1034A0000C90179904F006F80D906D4801680D987E
:1034B00004F000F817906C481799006804F0B2F90E
:1034C00004906A481699006804F0ACF902906848C4
:1034D000006880F000400090159904F0A3F9019075
:1034E000029904F09DFA0390049904F099FA05906A
:1034F00003F0B4FF504A574BCDE9060103F09EFCA0
:10350000CDE90A015B48006803F0A8FFCDE9080196
:10351000DDE90A2303F0E8F9CDE90C0103F0B2F983
:103520004849086050481699006804F07BF90490F7
:103530004E481799006804F075F902904D480168EB
:10354000159804F06FF90190029903F0B3FF03900E
:10355000049904F065FA059003F080FF364A3D4B6C
:10356000CDE9060103F06AFCCDE90A014048006894
:1035700003F074FFCDE90801DDE90A2303F0B4F993
:10358000CDE90C0103F07EF9304908603648016846
:10359000159804F047F9049035481799006804F02D
:1035A00041F9029033481699006804F03BF9019004
:1035B000029904F035FA0390049903F07BFF05901B
:1035C00003F04CFF1C4A234BCDE9060103F036FC07
:1035D000CDE90A012548006803F040FFCDE9080164
:1035E000DDE90A2303F080F9CDE90C0103F04AF983
:1035F000134908601D480168159804F013F90490F8
:103600001B481699006804F00DF9029019481799A3
:10361000006804F007F90190029903F04BFF039052
:10362000049904F0FDF9059003F018FF024A094BD4
:10363000CDE9060120E000007B14AE47E17A843F2B
:10364000E0000020D8000020E4000020DC00002082
:10365000D4000020E17A643FF8000020FC00002044
:1036600000010020D0000020F4000020F000002025
:10367000EC000020E800002003F0E0FBCDE90A01A7
:10368000B248006803F0EAFECDE90801DDE90A234B
:1036900003F02AF9CDE90C0103F0F4F8AC49086015
:1036A00008460168006804F0BDF80890A948016860
:1036B000006804F0B7F80690A7480168006804F0B5
:1036C000B1F80490A5480168006804F0ABF80390D5
:1036D000049903F0EFFE0590069903F0EBFE0790C6
:1036E000089903F0E7FE099003F0B8FECDE90A015E
:1036F00003F08CF8CDE90C0103F0C4F81490149891
:1037000003F0ACFE964A974BCDE90C0103F094FC14
:103710001CD892481499006803F03AFF8F4908605A
:103720008D481499006803F033FF8B49086089487D
:103730001499006803F02CFF8649086084481499A6
:10374000006803F025FF8249086008E000208349F3
:103750000860814908607F4908607D4908607F48AA
:1037600001684FF0804004F05DF8049079480168EA
:10377000049804F057F80690774801684FF04040ED
:1037800004F050F8049072480168049804F04AF874
:103790000590069903F08EFE079003F05FFECDE9D9
:1037A000080102F02BFD4FF066326F4BCDE90A01A4
:1037B00003F044FBCDE90C0103F064F81C990860A8
:1037C000644801684FF0804004F02CF80190614893
:1037D0000168019804F026F803905F4801684FF0F3
:1037E000404004F01FF801905B480168019804F024
:1037F00019F80290039904F013F94FF07E510490E8
:1038000003F058FE059003F029FECDE90801534866
:1038100001684FF0804004F005F802904E480168BE
:10382000029803F0FFFF04904A4801684FF080407F
:1038300003F0F8FF029046480168029803F0F2FF97
:103840000390049903F036FE059003F007FECDE9DE
:103850000601DDE9082302F019FF4FF06632424B02
:10386000CDE90A0103F0EAFACDE90C0103F00AF808
:103870001D990860364801684FF0804003F0D2FF80
:10388000019033480168019803F0CCFF0390314860
:1038900001684FF0404003F0C5FF01902D480168DA
:1038A000019803F0BFFF0290039904F0B9F84FF0BC
:1038B0007E51049003F0FEFD059003F0CFFDCDE9AD
:1038C0000801264801684FF0804003F0ABFF0290EA
:1038D0001F480168029803F0A5FF04901E48016884
:1038E0004FF0804003F09EFF02901A480168029852
:1038F00003F098FF0390049903F0DCFD059003F0BA
:10390000ADFDCDE90601DDE9082302F0BFFE4FF071
:103910006632154BCDE90A0103F090FACDE90C01AE
:1039200002F0B0FF1E9908600C4800680F4908605B
:10393000094800680E490860064800680D4908609B
:10394000034800680149086019B000BDF400002078
:10395000E4000020E0000020DC000020D80000206F
:103960007B14AE47E17A843F66A64C40E800002015
:10397000EC000020F000002010B50346002003E01A
:103980001C5C0C54441CA0B29042F9DB10BDFF2219
:10399000425443185A7043189A70704702460020E8
:1039A00003E000231354431C98B28842F9DB7047AC
:1039B0002DE9FF4704460D4616461F46DDE90C89F2
:1039C0005021F848FFF7EAFF2B462246F6A1F548BA
:1039D0008DE8C00301F096FAF24801F094FB1FFA5B
:1039E00080FA5146EF48FFF7D2FFEE4801F08BFB1B
:1039F0001FFA80FAF648F74A128881185246E948B9
:103A0000FFF7BAFFE74801F07EFBF2490988084456
:103A1000F0490880BDE8FF872DE9FE4304460D46C6
:103A200016461F46DDF828805021EB48FFF7B6FF09
:103A30002B462246E9A1E8488DE8C00101F062FA70
:103A4000E54801F060FB1FFA80F94946E248FFF7BC
:103A50009EFFE14801F057FB1FFA80F9DC48DD4A80
:103A6000128881184A46DC48FFF786FFDA4801F0E1
:103A70004AFBD84909880844D6490880BDE8FE8336
:103A80001CB50020D34908804FF448734FF4F072FE
:103A900001460090FFF7C0FFCE48008800F0C6FF47
:103AA0004FF4E160FEF779FF0020CA490880D0A0FA
:103AB0004FF4784110236822CDE900104FF4C07113
:103AC000BC20FFF775FFCEA04FF478411023982259
:103AD000CDE900104FF4D071A420FFF769FFBD4875
:103AE000008800F0A3FF9620FEF757FF1CBD70B5BD
:103AF00004460D465021C848FFF750FF2B4622468A
:103B0000C6A1C54801F0FEF9C34801F0FCFA86B22F
:103B10003146C148FFF73BFFBF4801F0F4FA86B2D7
:103B2000AB48AC4A128881183246BB48FFF724FFE5
:103B3000B94801F0E8FAA74909880844A54908806E
:103B400070BD10B5A8B00446B748B8A1026814A863
:103B500001F0D8F914A9B6A0FFF7C9FF2246B3A116
:103B6000684601F0CFF96946B2A0FFF7C0FF28B060
:103B700010BD70B504461421AF48FFF70FFF002CAD
:103B800002DA04F5B47004B22246ACA1AA4801F0EE
:103B9000B9F9A94801F0B7FA85B22946A648FFF756
:103BA000F6FEA54801F0AFFA85B28948894A128825
:103BB00081182A46A048FFF7DFFE9F4801F0A3FACC
:103BC0008449098808448349088070BD10B50446BB
:103BD0003220FEF7E2FE10BD10B504463220FEF79B
:103BE000DCFE10BD2DE9FC5F8F490968A1F6B830F5
:103BF00003F0BDF880460022934B03F01FF9064600
:103C00000022924B02F02CFF04460022904B03F05E
:103C10003BFB824602F036FE019083490968A1F61B
:103C2000B83003F0B3FD06468A4903F0B1FC0546FF
:103C3000894903F0F7FD044603F06CFD00908748C6
:103C4000007810B90120854908708548007802285D
:103C500005D10020FFF7C0FF00208149087080488F
:103C60000078012805D10020FFF7B0FF00207C4933
:103C70000870002057490880019803F04BFD04B2FA
:103C80002046FFF776FF0098FFF75BFF7548806CD2
:103C900018B95048008800F0C9FEBDE8FC9F2DE926
:103CA000F04F85B00446894692465146484603F097
:103CB0006FFC019003F0D2FB00226B4BCDE90201B7
:103CC00003F0BCF807460022674B02F00DFE0546E4
:103CD00002F0D8FD04906549049803F06FFE01D20C
:103CE000624804900021049803F068FD01D200208E
:103CF0000490049803F02AFD00F0FF0B50215C486B
:103D0000FFF74CFE5B4622465AA1594801F0FAF8EB
:103D1000574801F0F8F985B229465548FFF737FEB4
:103D2000534801F0F0F985B229482A4A12888118CF
:103D30002A464F48FFF720FE4D4801F0E4F9254997
:103D4000098808442349088005B0BDE8F08F10B504
:103D500004464248007810B901204049087048489C
:103D60000078A04218DB00201A490880454A4648DE
:103D700001680020FFF793FF444A4548016801208D
:103D8000FFF78DFF3748806C18B91248008800F0A3
:103D90004DFE00203A49087039480078401C3849E7
:103DA000087010BDD4020020787374722025642C32
:103DB00025642C25642C25642C302C25642C424C45
:103DC00041434B2C302C302C332C22257322000005
:103DD000EA050020040100202403002070696371BB
:103DE0002025642C25642C25642C25642C25640056
:103DF000496E697469616C7A696E672E2E000000E5
:103E0000446F6E6074206D6F766520746865206104
:103E1000726D2121212E2E003402002025732E7474
:103E200078743D22257322004000002025640000A4
:103E30007439000074313000200200207A302E7670
:103E4000616C3D256400000000E070400070974008
:103E5000008046400080BB4400A057460701002078
:103E6000080100200000024000C05F4000007F43C6
:103E70008402002061646420322C25642C256400B7
:103E8000350100200000F0412C00002000005243CA
:103E90003000002070B504460D461421FE48FFF79F
:103EA0007DFD2246FDA1FC4801F02CF8FA4801F006
:103EB0002AF986B23146F848FFF769FDF64801F065
:103EC00022F986B2F848F94A128881183246F24837
:103ED000FFF752FDF04801F016F9F449098808444B
:103EE000F24908801421EC48FFF758FD2A46F0A15A
:103EF000E94801F007F8E84801F005F986B23146D3
:103F0000E548FFF744FDE44801F0FDF886B2E648D5
:103F1000E64A128881183246DF48FFF72DFDDE4859
:103F200001F0F1F8E14909880844E049088070BDD2
:103F300000B5A9B0E148AFF20C11026815A800F075
:103F4000E1FF15A9DEA0FFF7D2FDDE48AFF2241194
:103F5000026801A800F0D6FF01A9DBA0FFF7C7FDAA
:103F600029B000BD30B5A9B0D848006803F076FA92
:103F7000044622460B46D6A115A800F0C3FF15A99A
:103F8000D5A0FFF7B4FDD549486A03F067FA0446A7
:103F900022460B46CEA101A800F0B4FF01A9D0A093
:103FA000FFF7A5FD29B030BD70B504460D461421BC
:103FB000B948FFF7F3FC002C02DA04F5B47004B240
:103FC0002246C8A1B44800F09DFFB34801F09BF819
:103FD00086B23146B048FFF7DAFCAF4801F093F8FB
:103FE00086B2B148B14A128881183246AA48FFF712
:103FF000C3FCA94801F087F8AC4909880844AB49DB
:1040000008801421A448FFF7C9FC002D02DA05F549
:10401000B47005B22A46B6A19F4800F073FF9E48CF
:1040200001F071F886B231469B48FFF7B0FC9A4820
:1040300001F069F886B29C489C4A12888118324681
:104040009548FFF799FC944801F05DF89749098875
:1040500008449649088070BD2DE9FC5F97490968BE
:10406000A1F5486002F083FE80460022A34B02F0D7
:10407000E5FE82460022A24B02F0F2FC0646002238
:10408000A04B03F001F9044602F0FCFB01908D49BE
:104090000968A1F5486002F06AFE06460022974BC7
:1040A00002F0CCFE82460022954B02F0D9FC044679
:1040B0000022944B03F0E8F8804602F0E3FB009006
:1040C0009148007810B901208F4908708F48007816
:1040D000022805D10020FFF77FFD00208B490870E2
:1040E0008A480078012805D10020FFF76FFD0020E5
:1040F0008649087000206D4908807448006803F004
:10410000ADF905460022824B02F098FE074602F008
:10411000FFFD04B22046FFF72CFD009803F0FAFAE9
:1041200004B2019803F0F6FA05B221462846FFF7DB
:104130003BFFFFF717FFFFF7FBFE7648007828B13B
:104140007548017875480078FFF7A4FE7448806CC4
:1041500018B95648008800F069FCBDE8FC9F10B50E
:10416000704800886B490978884202D0002066496F
:1041700008706848007802280FD16A480088022831
:104180000BD002206149087001206749087040F691
:10419000B8304A4908604B4908605E4800780228F8
:1041A0000ED06048008802280AD1584908700120C2
:1041B0005D49087040F6B8304049086041490860E0
:1041C0005848008820B1012805D002280AD106E00D
:1041D000FFF742FF06E00420FFF7B9FD02E0FFF71A
:1041E00001FD00BF00BF4F4800784A49087010BD6C
:1041F00010B594B050216846FFF7D0FB49480288BB
:104200004AA1684600F07EFE684600F07CFF84B25A
:1042100021466846FFF7BBFB684600F074FF84B296
:104220002148224A1288811822466846FFF7A4FBDB
:10423000684600F068FF1D49098808441B4908804A
:1042400014B010BD10B5002018490880FFF7D0FF4A
:104250001648008800F0EAFB1E20FEF79EFB10BD0A
:1042600030B595B00446502101A8FFF797FB2246D0
:10427000AFF2384101A800F045FE01A800F043FF6D
:1042800085B2294601A8FFF782FB01A800F03BFF99
:1042900085B20548054A4DE02002002068302E76A0
:1042A000616C3D2564000000EA0500200401002047
:1042B00068312E76616C3D256400000040000020CE
:1042C00074370000440000207438000018000020FB
:1042D00020252E32660000007435000048010020C1
:1042E000743600007A312E76616C3D256400000042
:1042F0007A322E76616C3D256400000000E070404B
:104300000050944000804640070100200801002032
:104310000000F0BF06010020210100202001002044
:10432000000002401E010020480000207061676507
:1043300020256400128881182A4601A8FFF71CFB7B
:1043400001A800F0E0FEFE4909880844FC49088005
:1043500015B030BD30B595B00446502101A8FFF727
:104360001DFB2246AFF2CC0101A800F0CBFD01A855
:1043700000F0C9FE85B2294601A8FFF708FB01A895
:1043800000F0C1FE85B2EF48ED4A128881182A4636
:1043900001A8FFF7F1FA01A800F0B5FEE849098885
:1043A0000844E749088015B030BDE749097831BBBA
:1043B000652805D0662803D0672801D055281ED16E
:1043C000E1490978491CE04A1170E0490870652804
:1043D00002D10321DE4A1170662802D10121DC4A94
:1043E0001170672802D10521D94A1170552802D1D0
:1043F0000321D74A11700021D64A1170D0E0D2496A
:10440000097801291CD1D2490978002918DDD04941
:104410000978491ECE4A1170CE490978CD4A1278E2
:10442000521CCC4B1A70491CC84A5054C8490978D0
:104430000029E3D1C4490978491CC34A1170AFE08F
:10444000C1490978022911D1FF280FD1C149097842
:10445000C04A1278521CBF4B1A70491CBB4A5054B8
:10446000B9490978491CB84A117099E0B6490978E8
:10447000032911D1FF280FD1B6490978B54A12781E
:10448000521CB44B1A70491CB04A5054AE490978BA
:10449000491CAD4A117083E0AB490978042977D1F2
:1044A000FF2875D10021A84A1170AA490978A94AA4
:1044B0001278521CA74B1A70491CA44A5054A649A2
:1044C0000968491CA44A1160A049097865291FD1CF
:1044D0009E49C97801290BD19C4949789F4A11808E
:1044E0009A4989789E4A118001219E4A118057E09D
:1044F0009649C978002953D1944949789A4A11803C
:1045000092498978994A11800121994A118047E09E
:104510008E490978662904D18C494978954A1180D9
:104520003EE08A490978672917D1884949790129E4
:1045300013D186498978854A527841EA02218E4A08
:10454000118082490979814AD27841EA02218B4A55
:10455000118001218A4A118022E07C49097855297D
:104560001ED17A494978AA291AD17849897801292E
:1045700004D17649C978834A117011E0734989786A
:1045800002290DD17149C9787F4A117008E0FFE70F
:1045900000216D4A11707D490968491C7B4A1160F0
:1045A000704710B5002404E07949085DFFF7FDFE6F
:1045B000641C784800688442F6D377480068401C41
:1045C000754908607548006872490968084473496C
:1045D000086010BD2DE9FE4304460D4616461F46F1
:1045E000DDF8288050216E48FFF7D8F933462A4677
:1045F0006CA16B48CDE90078029400F083FC684818
:1046000000F081FD1FFA80F949466548FFF7BFF9C0
:10461000634800F078FD1FFA80F94A48484A12883A
:1046200081184A465E48FFF7A7F95D4800F06BFD28
:1046300043490988084442490880BDE8FE832DE9C2
:10464000F04F87B04A48008890B14748008860B969
:1046500046480088162802D0172805D100BF5648C2
:1046600000685649086000BF00BF0020404908802C
:104670003C48008800285FD03848008800285CD17A
:10468000374800880E2806D00F280ED0162855D09F
:10469000172809D113E04A480078012804D1494974
:1046A00008700020464908703BE14548007828B969
:1046B00002204449087001204149087031E100217D
:1046C0003E48006803F07AF939D83F493B48006812
:1046D00003F074F833D23948006837490860294834
:1046E000007802F05BFB82460022384B02F0DAFCD5
:1046F0008046894631480168334803F091F9824683
:1047000002F0ACFE42464B46CDE9000102F096FBBA
:10471000064600222D4B02F0A3F904460D46274819
:10472000006802F09BFE22462B46CDE9020102F012
:10473000DBF8CDE904014BE037E1F3E07DE04CE04C
:1047400004010020EA05002037010020C4030020F6
:10475000360100203801002028010020120100202D
:104760001401002016010020180100201A01002069
:104770001C0100201E0100200A0100200C01002065
:104780000E01002020010020210100203001002026
:10479000F60300203C010020240100202C01002011
:1047A0007403002066696C6C2025642C25642C251C
:1047B000642C25642C2573008000002078000020E4
:1047C00048000020080100200000A04100005940DE
:1047D00002F058F8764908602EE00021744800681D
:1047E00002F0ECFF28D272480068724908607248F3
:1047F000007802F0D3FA82460022704B02F052FC9D
:10480000804600226E4B02F019FB00226B4BCDE973
:10481000020102F025F906460F466548006802F0DD
:104820001DFE32463B46CDE9040102F05DF8044628
:1048300002F028F85E49086073E000215C480068D7
:1048400002F0BCFF3DD25A48006880F000445D4948
:10485000204602F0B3FF34D255480068554908603D
:104860005948007802F09AFA0022544BCDE9000131
:1048700002F018FC04460D464D480168514802F00C
:1048800019FE019002F0EAFD064622462B4602F090
:10489000D5FA82460022494B02F0E2F8804689466A
:1048A0004348006802F0DAFD42464B46CDE902017A
:1048B00002F0EAFCCDE9040101F0E4FF3C490860A4
:1048C0002EE000213A48006803F078F828D83848EC
:1048D0000068384908603C48007802F05FFA0646F4
:1048E0000022364B02F0DEFB0022354BCDE90201FF
:1048F00002F0A4FA04460022304B02F0B1F88046E0
:1049000089462B48006802F0A9FD42464B46CDE996
:10491000040102F0B9FC824601F0B4FF24490860AA
:1049200000BF00BF2948008801281BD12848008803
:10493000082802D0092814D109E026480078012867
:1049400004D12549087000202249087009E0214857
:10495000007828B902202049087001201D490870FC
:1049600000BF00BF1948008802281BD118480088E2
:104970000C2802D00D2814D109E01648007801282F
:1049800004D11549087000201249087009E0114847
:10499000007828B902201049087001200D490870DC
:1049A00000BF00BF00200D49088007B0BDE8F08FB0
:1049B00078000020800000202001002000005940E5
:1049C000000034400000A04121010020120100201D
:1049D00014010020480000200801002016010020DA
:1049E00010B540F224416C48FDF756FFE8B16A4823
:1049F0000088C4B26848001D0088C4B200BF674880
:104A0000C06DC0F5FA7066490860FFF7CAFD002165
:104A100062485830FCF795FA4FF4FA705F49C86560
:104A200001215E485830FCF78CFA10BD10B50446E1
:104A300000215A484430FCF784FA58488464012124
:104A400056484430FCF77DFA10BD00B591B0012105
:104A500044F20400FCF7EEFD01210846FCF7DDFD01
:104A60004D48FDF759FD4FF40070ADF840000320AC
:104A70008DF8420018208DF8430010A94948FCF732
:104A80001DFB4FF48060ADF8400004208DF843001A
:104A900010A94448FCF712FB25208DF82C000020BB
:104AA0008DF82D0003208DF82E0001208DF82F00A9
:104AB0000BA8FCF710F94FF4FA200C900020ADF889
:104AC0003400ADF83600ADF83800ADF83C000C20ED
:104AD000ADF83A000CA93048FDF761FD012240F223
:104AE00024412D48FDF7F3FD012240212A48FDF71E
:104AF00013FE01212848FDF7DEFD28485830FCF759
:104B000053F92548001D009027480190002002908D
:104B10004FF4FA700390002004908020059000204C
:104B20000690079008904FF48050099000200A905A
:104B300069461A485830FCF7D9F90121174858300E
:104B4000FCF7FFF915484430FCF72EF91248001D18
:104B50000090164801901020029001200390002040
:104B600004908020059000200690079008904FF454
:104B70008050099000200A90694608484430FCF7AC
:104B8000B5F9012280210448FDF7C6FD0120FFF799
:104B90004DFF11B000BD0000003801400000024090
:104BA0003C01002000080140F6030020EA05002037
:104BB0000EB501210846FCF74AFD4FF6FF70ADF82F
:104BC00004004720ADF800000020ADF80600ADF865
:104BD000020069464FF08040FCF764FE012188071F
:104BE000FDF7BCF90EBD000008B5002074490B7834
:104BF0000246401C73498B5471494B780246401C55
:104C000070498B546E498B780246401C6D498B5419
:104C10006B49CB780246401C6A498B546A49496A01
:104C200000919DF800300246401C66498B549DF867
:104C300001300246401C8B549DF802300246401C55
:104C40008B549DF803300146421CD0B25D4A535448
:104C500000230146421CD0B25A4A53540146421C1A
:104C6000D0B2584A535480230146421CD0B2554A10
:104C700053547F230146421CD0B2524A535408BDBC
:104C800010B501215148FDF732FC002867D0012101
:104C90004E48FDF73DFC4FF08040008840F0010099
:104CA0004FF08041088000208884FFF7C8FC484806
:104CB0000078012805D140F6B83046490880091D22
:104CC0000880FFF74CFA4448008820B1012803D03F
:104CD000022807D103E000BFFBF7E9FB02E0FBF786
:104CE00060FE00BF00BF3D480078401C3B49087093
:104CF00008460078052815D1FFF776FF00240CE060
:104D00003048015D3648FDF743FD00BF402134487F
:104D1000FDF7ACFD0128F9D1641C0C2CF0DB002060
:104D20002E4908704FF08040808C2E49498A2D4AC8
:104D300022F811004FF08040008820F001004FF071
:104D4000804108801046408A082803DB0020114675
:104D5000488204E02348408A401C2249488210BD12
:104D60001FB501210420FCF772FC41F28730ADF839
:104D700008004720ADF804000020ADF80A00ADF8A7
:104D8000060001A91148FCF78DFD012211460F48CC
:104D9000FDF7FFF81E208DF8000003208DF80100BC
:104DA00000208DF8020001208DF803006846FBF713
:104DB00092FFFBF71DFB01210448FDF7CFF81FBD53
:104DC00018000020F20700204801002000080040E1
:104DD000480000203C0400401E010020400100204B
:104DE00000440040DE07002010B540F22441414855
:104DF000FDF752FDD8B13F480088C4B23D48001DC0
:104E00000088C4B200BF3C48006FC0F5FA703B494F
:104E10000860002138486C30FCF793F84FF4FA70C2
:104E200035490867012134486C30FCF78AF810BD19
:104E300010B50446002130488030FCF782F82E4837
:104E4000843004600121001FFCF77BF810BD00B521
:104E500087B001214804FCF7FAFB2648FDF75CFB0C
:104E60000420ADF8180003208DF81A0018208DF8E2
:104E70001B0006A92248FCF721F90820ADF818000C
:104E800004208DF81B0006A91D48FCF717F9262001
:104E90008DF8040003208DF805008DF80600012030
:104EA0008DF8070001A8FBF716FF4FF4E1300290E0
:104EB0000020ADF80C00ADF80E00ADF81000ADF814
:104EC00014000C20ADF8120002A90A48FDF767FB98
:104ED000012240F224410748FDF7F9FB012240215D
:104EE0000448FDF719FC01210248FDF7E4FB07B077
:104EF00000BD0000004400400000024044010020CA
:104F0000000801400FB41CB5074B06AA7B44694654
:104F10000090059800F08FFB0020694600F09EFB92
:104F20001CBC5DF814FB00004D07000070B50C467A
:104F30000546012A05D02878800600D5EA690023B5
:104F400002E0012305E05B1C934202D2E05C0028F2
:104F5000F9D1A869E618C01AA861286A184428621D
:104F60002846AFF3008004E0D5E9012114F8010BD5
:104F70009047B442F8D32846AFF3008070BD0000DC
:104F80002DE9F0410646002410687529314616A522
:104F900010D0AFF30080002802DA404213A507E0EA
:104FA00031688A0701D512A502E0490704D511A589
:104FB000012401E0AFF3008000210A2206F124075A
:104FC00009E0B0FBF2FCB0FBF2F302FB1C00303056
:104FD00078541846491C0028F3D123462A46304607
:104FE000BDE8F04100F0BCB8000000002D0000005A
:104FF0002B000000200000002DE9F0474FF0000AD0
:1050000089460446C0F820A02046E1688847002869
:1050100076D0252806D0D4E901219047206A401C8B
:105020002062F1E7E168204600258847C4F81CA00B
:1050300006460027C4F818A02A2E09D0304601F0F1
:10504000D5F838B304EB8708303EC8F8186019E08B
:1050500059F8041B204604EB87029161E1688847F8
:10506000012F064618D1E069002820DA25F0200536
:105070001DE0D8F8180000EB800006EB4000303847
:10508000C8F818002046E1688847064601F0AEF8E7
:105090000028EED1012F0AD02E2E08D12046E1683B
:1050A00088477F1C0646022F45F02005C4DBA06917
:1050B000002803DA404245F00105A061E80701D06D
:1050C00025F01005B6B1A6F14100192802D8203606
:1050D00045F400654A463146204625604D46FBF7BB
:1050E0005FF858B1012806D0ED1D25F0070000F14A
:1050F000080989E704E005F1040985E730468AE7F5
:10510000206ABDE8F08710B5431C02E010F8011BCF
:1051100071B18107FAD14FF0013202C88C1A8C4369
:1051200014EAC211F9D0C01A0A0603D0C01E10BD7D
:10513000C01A10BD0A0401D0801E10BD0902FCD0A7
:10514000401E10BD70477047704710B500F0A6FABA
:10515000006810BD10B5044600F0A0FA046010BD50
:105160002DE9F0470D4699469246044600F1240881
:105170000168880604D5E06921F01001216000E093
:105180000120A84201DD471B00E00027A1697A1930
:1051900002EB0900081AA0612078C00602D420465C
:1051A000AFF30080002608E0D4E901211AF80600D8
:1051B0009047206A401C761C20624E45F4DB207824
:1051C000C0060AD52046AFF3008006E0D4E90121ED
:1051D00030209047206A401C2062381EA7F101074A
:1051E000F4DC07E0D4E9012118F805009047206AB3
:1051F000401C2062281EA5F10105F3DC2046AFF318
:1052000000802078000602D50220BDE8F08701204A
:10521000FBE770472DE9FF4F0C461E464FF0FF3766
:105220008BB0D2E90001DDF860800A908A46C1F3B4
:105230000A5505B93D46002108464FF00000BAF175
:10524000000F00F4400005DA00EB80004FF440014D
:1052500001EA50004FEA9059B9F1010F00DDB9465B
:105260000A9850EA4A000ED044F61050A5F2FF35D5
:1052700045432F14B8F1000F1ED07542291E1EDDC4
:10528000C9F100021CE0B8F1010F4FF0000001D09D
:10529000302103E0F24305E02154401CB042FBDB27
:1052A00030460022002121540B99C1F80880C1E941
:1052B00000200FB0BDE8F08FBD1B6D1CDEE74A4635
:1052C00000DA694206A800F073FA06AB93E807001B
:1052D00003AB83E8070050460A9900F050FB8DE8C5
:1052E0000700A0F500501F3800900398002D09DD3D
:1052F00042F21F014A46084403A90390684600F0A1
:10530000AFFD08E0A0F500504A461F3803A90390FE
:10531000684600F0B9FD8DE807000004000C03D0DA
:105320004FF0FF30410800E01046B8F1000F03D005
:105330000022009215461EE0751E05D400F0B2F959
:10534000303262556D1EF9D5B3460122084302D0B2
:1053500000227F1C04E02078302801D100227F1E2B
:10536000002A099786D01DE0112D07DA00F09AF97E
:10537000303262556D1C50EA0102F5D1084302D06B
:105380000098C8B10EE00021681E05E0235C625C55
:1053900063542254401E491C8142F7DBAB46A81BD4
:1053A000401E0990002004F80B000B98099AC0F8E1
:1053B0000880C0E9002B7CE711264FF0000859E770
:1053C0002DE9F04F88460446D21D22F0070191B026
:1053D000D1E90001CDE90A0100F08CFE02460B98EC
:1053E000C00F01D02D2007E02068810701D52B20B8
:1053F00002E0202101EAC000032A099001D0072A17
:1054000005DB03464146204600F092F90BE1207887
:10541000800601D5E06900E00620B8F1650F8146FD
:1054200006D0B8F1660F18D0B8F1670F70D131E02F
:105430000020B9F1110F009001DB112301E009F107
:1054400001030AAA01A90CA8FFF7E4FEDDE90C702C
:10545000002609F10105834647E001204B460090F4
:105460004FF000470AAA01A90CA8FFF7D3FEDDE917
:105470000DB00C995D46002610B909F101000D1818
:10548000B9EB050003D4C0F1FF3609F10105A5EB26
:1054900009002BE0B9F1010F01DA4FF001090020FA
:1054A000B9F1110F0090484601DD112300E00346D9
:1054B0000AAA01A90CA8FFF7ADFEDDE90C704D4664
:1054C00000268346207800070AD4AB4500DA5D4603
:1054D00001A8012D04DD411911F8011C302907D064
:1054E0004F4502DA17F1040F04DA012082460FE07B
:1054F0006D1EEEE7002F02DCED1B3E4403E0781C3E
:10550000A84200DD7D1CB81B00F1010A4FF00047E6
:105510002078000703D4AA4501DB4FF0FF3A0021B1
:10552000B7F1004F0DF143088DF8431024D002204D
:105530002B23002F01DA7F422D230A21021EA0F126
:10554000010000DC5FB197FBF1FC97FBF1F201FB7E
:105550001C7C17460CF1300C08F801CDEEE7A8F1E1
:10556000010003702188090501D5452100E065216E
:10557000A0F1010800F8011C09980FA9A1EB080788
:10558000FF1D00B10120411901EBEA70A169384407
:10559000081A401EA0612078C00602D42046AFF34E
:1055A0000080099828B1D4E901219047206A401C65
:1055B00020622078C00622D52046AFF300801EE08E
:1055C000002E04DBB34502DD01A8805D00E0302041
:1055D000D4E901219047206A401C2062761CAAF180
:1055E00001005FEA000A0AD100F054F8C0680168BF
:1055F000405CD4E901219047206A401C2062281EAB
:10560000A5F10105DCDC07E0D4E9012118F8010B64
:105610009047206A401C2062381EA7F10107F3DC86
:105620002046AFF30080032011B043E601694A1C15
:1056300002610878704700B58FB0CDE901310021D3
:10564000059105497944CDE9031011466846FFF7F5
:10565000D3FC0FB000BD0000E5FFFFFF0A6802F8B1
:10566000010B0A60704710B5436913B1AFF30080B6
:1056700001E0FFF75BFC012010BD127800F124016E
:105680000A7000224A700122EDE711684FF0FF32E4
:10569000E9E70000004870472008002000487047F4
:1056A0000008002030B5B0F10A024FEA900E71F107
:1056B00000034EEA817EB0EB0E0061EB91014FEAF0
:1056C000101E4EEA017E10EB0E0041EB11114FEA65
:1056D000102E4EEA016E10EB0E0041EB11214FEA45
:1056E000104E4EEA014E10EB0E0041EB11414018F6
:1056F00041F100014FEAD00040EA41704FEAD10188
:1057000010EB80054FEA810444EA907444EB0104F5
:105710006D1944EB0404521BA3414FF0000348BF32
:105720000A3200D530BD401C41F1000130BD0000FF
:105730002DE9F0411F46044603260168072A01F4BB
:10574000006004DB08B116A505E016A503E008B16A
:1057500015A500E015A521F010002060A069C01E6D
:10576000A0610FB1401EA0612046AFF300804FB191
:10577000D4E9012138469047206A401C2062C01CB1
:10578000206206E0206AFAE7D4E9012115F8010B4E
:105790009047761EF8D22046AFF30080BDE8F08136
:1057A0004E414E006E616E00494E4600696E6600C5
:1057B0002DE9F047814616468AB0334878440DC833
:1057C0008DE80D0030487844801C03AC0DC884E897
:1057D0000D0041F69B300844372190FBF1F290FB1D
:1057E000F1F5A5F1800501FB12041B3C02D56442D2
:1057F000012000E00020DFF890A080460027FA4456
:10580000AAF1BE0A0DE0E00709D03246684607EB70
:1058100047010AEB810100F037FB8DE807006410B7
:105820007F1C002CEFD1184F7F44AC3F18E0E807F5
:1058300014D007EB04100DF1180A90E80E008AE866
:105840000E00C068F04201D198190890324606A9AE
:1058500003A800F019FB03AB83E807006D10641C7C
:10586000002DE4D132466946B8F1000F03A802D0FA
:1058700000F0F6FA01E000F007FBC9E90001C9F801
:1058800008200AB0BDE8F087AC250000004870474A
:10589000000800207546FFF7F9FFAE46050069468F
:1058A000534620F00700854618B020B5FBF7FCF9F9
:1058B000BDE820404FF000064FF000074FF0000811
:1058C0004FF0000B21F00701AC46ACE8C009ACE892
:1058D000C009ACE8C009ACE8C0098D46704710B5F6
:1058E0000446AFF300802046BDE81040FAF778BCCC
:1058F0004FF0013C50F8042B51F8043B9A4221D15F
:10590000A2EB0C03934313EACC1317D150F8042BEA
:1059100051F8043B9A4215D1A2EB0C03934313EACE
:10592000CC130BD150F8042B51F8043B9A4209D107
:10593000A2EB0C03934313EACC13DBD04FF000002F
:10594000704700BFD01A01BAB1FA81F101F0180115
:1059500022FA01F0CB40C1F12001DBB2C0B2C01A83
:105960002CFA01F3D11A914311EAC311E6D1704721
:1059700001491820ABBEFEE72600020070475FEA2F
:10598000400C08BF91F0000F4FEA8C234FEAC12270
:1059900043EA51514FEA1C5018BF00F5F0404FEA5E
:1059A000300018BF41F000415FEA6C5C00F02980D4
:1059B000BCF1FF3F08BF40F080407047130C06BFAA
:1059C00012044FF0100C4FF0000C130E04BF120223
:1059D0000CF1080C130F04BF12010CF1040C930F0F
:1059E00004BF92000CF1020CD30F04BF52000CF163
:1059F000010C11464FF00002A0F11F00A0EB0C00BB
:105A0000704711F0004F08BF704731F000413FF47C
:105A1000D5AF0B0C06BF09044FF0100C4FF0000C73
:105A20000B0E04BF09020CF1080C0B0F04BF090197
:105A30000CF1040C8B0F04BF89000CF1020CCB0F8E
:105A400004BF49000CF1010CCCF12003A0EB0C00C9
:105A500022FA03F302FA0CF241EA030100F1010019
:105A6000704720F07F4C80EA030023F07F47ACEBC7
:105A7000070303F57C5300F0004003F1FF032DE919
:105A800080494FEA154B09B44FEA144325EA0B4EFF
:105A900024EA03480FF2042606EB132749083E7850
:105AA0005FEA320203FB0667C7F5000707FB06F64D
:105AB0004FEA54374FEAD64606F1020607FB066C5A
:105AC000CCF1005C4FEA1C472CEA074C07FB06F4BC
:105AD0000CFB06F504EB15464FEA961634BF002082
