:020000040800F2
:10000000400C0020810A0008B5020008B702000871
:10001000BB020008BF020008C30200080000000085
:10002000000000000000000000000000C7020008FF
:10003000C902000800000000CB020008CD02000841
:100040009B0A00089B0A00089B0A00089B0A0008FC
:100050009B0A00089B0A00089B0A00089B0A0008EC
:100060009B0A00089B0A00089B0A00089B0A0008DC
:100070009B0A00089B0A00089B0A00089B0A0008CC
:100080009B0A00089B0A00089B0A00089B0A0008BC
:100090009B0A00089B0A00089B0A00089B0A0008AC
:1000A0009B0A00089B0A00089B0A00089B0A00089C
:1000B0009B0A00089B0A00089B0A00089B0A00088C
:1000C0009B0A00089B0A00089B0A00089B0A00087C
:1000D0009B0A00083F2700089B0A00089B0A0008AB
:1000E0009B0A00089B0A00089B0A00089B0A00085C
:1000F0009B0A00089B0A00089B0A00089B0A00084C
:100100009B0A00089B0A00089B0A00089B0A00083B
:100110009B0A00089B0A00089B0A00089B0A00082B
:100120009B0A00089B0A00089B0A00089B0A00081B
:1001300000F002F800F06AF80AA090E8000C82448F
:100140008344AAF10107DA4501D100F05FF8AFF26C
:10015000090EBAE80F0013F0010F18BFFB1A43F0A5
:1001600001031847E0660000006700000A444FF0F2
:10017000000C10F8013B13F0070408BF10F8014B06
:100180001D1108BF10F8015B641E05D010F8016B4B
:10019000641E01F8016BF9D113F0080F1EBF10F8AF
:1001A000014BAD1C0C1B09D16D1E58BF01F801CBD2
:1001B000FAD505E014F8016B01F8016B6D1EF9D555
:1001C0009142D6D37047000000230024002500266A
:1001D000103A28BF78C1FBD8520728BF30C148BFAA
:1001E0000B607047662906F0E681642903F02285DA
:1001F000002070471FB504F089F80400002000219A
:1002000005F060F9E0601FBD10B510BD04F07EF987
:100210001146FFF7EFFF00F009F804F09CF903B472
:10022000FFF7F2FF03BC02F02FFA000002F017FA0A
:100230001A48006810B902F001FD01E002F088FDE3
:1002400002F065FB16A20221002002F04FFB00F035
:100250002FF903F025F902F084FC02F0A8FD1BE061
:1002600000F040F90D48006838B940F6B830104940
:100270000880091D088000BFFEE740F6980002F0E4
:1002800038F90648006838B940F6B830084908809F
:10029000091D088000BFFEE7E2E7000000012142DF
:1002A000494E495449414C495A494E472E2E000067
:1002B00034040040704700BFFEE700BFFEE700BF08
:1002C000FEE700BFFEE770477047704770470000C9
:1002D0000CB50020019000906C48006840F480301C
:1002E0006A49086000BF6948006800F40030009067
:1002F0000198401C0190009818B90198B0F5A06FC2
:10030000F1D16248006800F4003010B10120009083
:1003100001E0002000900098012843D15C4800686B
:1003200040F010005A4908600846006820F00300B9
:1003300008600846006840F00200086053484068C2
:10034000524948600846406848600846406840F4A2
:10035000806048600846406820F47C104860084689
:10036000406840F4E81048600846006840F080703B
:10037000086000BF4548006800F000700028F9D010
:100380004248406820F00300404948600846406801
:1003900040F00200486000BF3C48406800F00C009C
:1003A0000828F9D10CBD10B5FFF792FF10BD10B5AC
:1003B0003648006840F0010034490860084640684B
:1003C00034490840314948600846006832490840CD
:1003D0002E4908600846006820F48020086008461E
:1003E000406820F4FE0048604FF41F008860FFF76B
:1003F000DAFF4FF000602949086010BD10B50021F8
:1004000000200022214B5B6803F00C0121B104297C
:1004100006D0082928D107E0214B224C236027E091
:100420001F4B204C236023E0184B5B6803F47010D3
:10043000164B5B6803F48032022303EB904022B931
:10044000194B4343174C23600DE0104B5B6803F4DA
:10045000003323B1144B4343124C236003E0104B91
:100460004343104C236003E00D4B0E4C236000BF50
:1004700000BF064B5B68C3F303130C4CE15C094BF4
:100480001B68CB40074C236010BD000000100240E9
:10049000002002400000FFF8FFFFF6FE08ED00E03C
:1004A00000127A000C00002000093D00100000201E
:1004B000FD48FE4908600020FD490860FD48FE49EE
:1004C0000860FE48FE4908600020FE490860FE48BA
:1004D000FE4908604FF4E170FD490860FD48FE499F
:1004E000086070472DE9F04F8FB00BAA0CA90DA83A
:1004F00002F065FF08AA09A90AA802F038FFBDF9B1
:10050000280005F099FE8146F4480168484605F048
:10051000DDFF044605F018FD0746F14AF14B05F0F2
:10052000C9F8054604F0E4FFEF490860BDF924006E
:1005300005F082FE8146ED480168484605F0C6FF99
:10054000044605F001FD0746E54AE64B05F0B2F822
:10055000054604F0CDFFE6490860BDF9200005F02E
:100560006BFE8146E3480168484605F0AFFF04464C
:1005700005F0EAFC0746DA4ADA4B05F09BF8054637
:1005800004F0B6FFDC490860BDF92C0005F054FE0C
:100590000446BDF9300005F04FFE0790BDF9340068
:1005A00005F04AFE0690D448006805F0CDFC0746E9
:1005B0004FF06632D14B05F07DF8054604F098FF08
:1005C0008146CB48006805F0BFFC07464FF0663215
:1005D000CA4B05F06FF8054604F08AFF8246C24810
:1005E000006805F0B1FC07464FF06632C34B05F0DA
:1005F00061F8054604F07CFF8346C148C149C24A00
:10060000CDE90142CDE90310079800904A465146D2
:100610005846069B02F0AEFFBA48006805F094FC0D
:100620008046BA4ABA4B05F0B5F906460022B94BE6
:1006300005F040F8044604F05BFFB7490860AA489B
:10064000006805F081FC0646B04AB14B05F0A2F9FE
:1006500080460022AF4B05F02DF8044604F048FF19
:10066000AE490860AE49A748006805F0FDFD2CD2F0
:10067000AC49A448006805F0F7FE26D2AA499A487A
:10068000006805F0F1FD20D2A8499748006805F000
:10069000EBFE1AD2A64890490860FA208C490860FF
:1006A00040078249086000208149086081488249EA
:1006B0000860A048824908609F48824908609FA25C
:1006C00001210F2002F012F91AE0824882490860E5
:1006D0004FF4E1707E490860734874490860002057
:1006E0007349086073487449086074487449086025
:1006F00000207449086094A201210F2002F0F6F84E
:100700008048006805F020FC044622460B4691A173
:10071000924803F053FA914A0221242002F0E6F8AD
:100720007148006805F010FC044622460B4689A17A
:100730008B4803F043FA8A4A0321242002F0D6F8BA
:100740006248006805F000FCCDE9040185480168B5
:100750007148006805F024FC039005F0F5FB804625
:100760000022814B05F016F90646DDE9042305F069
:1007700011F9CDE906017D48006805F0E5FB044666
:10078000DDE9062304F0E6FE824604F0B1FE774977
:100790000860474801687548006805F099FD0646FD
:1007A0005D48006880F0004540480168284605F033
:1007B0008FFD0446314605F089FE6D4908604348C7
:1007C000006805F0C1FB80468946694801685348C6
:1007D000006805F07BFE019066480168019805F00D
:1007E000DFFB029064480168029805F06FFE0390F9
:1007F00005F0AAFB824600225B4B05F0CBF80646CB
:1008000042464B4605F0C6F804460D465B48006874
:1008100005F09AFB22462B46CDE9040104F09AFE2E
:10082000CDE9060104F064FE5449086025480168DA
:100830005248006805F04CFD82464D480168374833
:10084000006805F043FE83464A480168584605F0B3
:100850003DFE814648480168484605F0A1FB8046B8
:1008600017480168404605F033FD07461748016800
:10087000384605F003FC05463D48016827480068F6
:1008800005F024FE80460C48006880F00047414691
:10089000384605F01DFD0646294605F017FE0446BC
:1008A000514605F013FE6BE00000C0406C000020D4
:1008B000700000200000404074000020CDCC4C3F70
:1008C000780000207C000020CDCC4C3D8000002032
:1008D000440000200000E1438400002000000020CC
:1008E000FCA9F1D24D6230402C0000200400002011
:1008F00030000020080000203400002066A64C4094
:10090000280000202400002020000020A7E8482E16
:10091000FF210940008066404C0000205800002064
:100920000000E0400000E0C000004842000048C273
:100930000000F0416666A63F8FC2F53C20203D3D99
:100940003D3D3D20200000004F4F20202020204F23
:100950004F0000002520362E32662000D8040020EB
:10096000EC040020500000200000E03F4800002080
:100970005400002060000020640000205C00002083
:100980002E490860084601682D48006805F0A0FC63
:10099000044605F035FC2B490860084600682A49E2
:1009A0000968884204DD28480068264908600BE091
:1009B00024480068244909684942884204DA2248E8
:1009C000006840421F4908601E48006800F6426007
:1009D0001E4908601B48006840F64261081A1C491D
:1009E00008601A4800881B49088019480088091DBA
:1009F0000880164818A10268194803F0DFF8184A61
:100A000004212E2001F072FF114813A1026815483D
:100A100003F0D4F8134A05212E2001F067FF124895
:100A200000681249086012480068124908601248BC
:100A30000068124908600FB0BDE8F08F6800002020
:100A400084000020400000204400002038000020E6
:100A50003C000020340400402520642000000000F9
:100A6000000500200A0500204C0000205000002056
:100A70005400002064000020580000206000002086
:100A80000948804709480047FEE7FEE7FEE7FEE722
:100A9000FEE7FEE7FEE7FEE7FEE7FEE7044805495E
:100AA000054A064B70470000AF03000831010008FB
:100AB00040060020400C0020400800204008002094
:100AC00031490143314A1160704770B5002100235C
:100AD0000F22C47804B32D4C246804F4E064C4F5F8
:100AE000E064210AC1F10403CA40447804FA03F126
:100AF0008478144021430901254C0678A1550478D7
:100B000004F01F050124AC4005786D11AD0005F11E
:100B1000E025C5F8004109E0047804F01F05012430
:100B2000AC401C4D0678761145F8264070BD1A4A37
:100B30000A400243154B1B1F1A60704739B1134A14
:100B4000121D12680243114B1B1D1A6006E00F4A6A
:100B5000121D126882430D4B1B1D1A60704704283A
:100B600008D14FF0E021096941F004014FF0E02283
:100B7000116107E04FF0E021096921F004014FF015
:100B8000E0221161704700000000FA050CED00E062
:100B900000E400E080E100E080FFFF1F10B50446A4
:100BA000CC48844208D10121042000F02DFB002113
:100BB000042000F029FB46E0C748844208D1012107
:100BC000082000F021FB0021082000F01DFB3AE086
:100BD000C248844208D10121102000F015FB0021F9
:100BE000102000F011FB2EE0BD48844208D1012105
:100BF000202000F009FB0021202000F005FB22E06E
:100C0000B848844208D10121402000F0FDFA0021BB
:100C1000402000F0F9FA16E0B348844208D10121DF
:100C2000802000F0F1FA0021802000F0EDFA0AE0C7
:100C3000AE48844207D10121801500F0E5FA002179
:100C4000A01500F0E1FA10BD10B50121084600F032
:100C5000DBFA0021012000F0D7FA10BD2DE9F041A8
:100C6000024600250026002000230024002791F8DA
:100C700003C00CF00F0591F803C00CF0100CBCF190
:100C8000000F03D091F802C04CEA050591F800C0AE
:100C9000BCF1000F31D0146800202BE04FF0010CA4
:100CA0000CFA00F3B1F800C00CEA03069E4220D112
:100CB00083004FF00F0C0CFA03F7BC4305FA03FC5A
:100CC0004CEA040491F803C0BCF1280F06D14FF0A0
:100CD000010C0CFA00FCC2F814C00AE091F803C041
:100CE000BCF1480F05D14FF0010C0CFA00FCC2F822
:100CF00010C0401C0828D1D31460B1F800C0BCF16A
:100D0000FF0F34DD546800202EE000F1080C4FF096
:100D1000010808FA0CF3B1F800C00CEA03069E4281
:100D200021D183004FF00F0C0CFA03F7BC4305FAF6
:100D300003FC4CEA040491F803C0BCF1280F05D170
:100D400000F1080C08FA0CF8C2F8148091F803C0FE
:100D5000BCF1480F07D100F1080C4FF0010808FA68
:100D60000CF8C2F81080401C0828CED35460BDE8AF
:100D7000F0814FF6FF710180022181700421C17062
:100D800070470246002093680B400BB1012000E041
:100D9000002070470146886880B2704702460020F4
:100DA000D3680B400BB1012000E0002070470146E2
:100DB000C86880B2704701617047416170470AB1ED
:100DC000016100E041617047C16070474FF48032BB
:100DD0000A43826181618261826982697047024649
:100DE0000020434B18684FF68073184040EA021009
:100DF00008433F4B186070473E49C8617047F0B5E3
:100E00000A46002300240021002500F00046B6F128
:100E1000004F02D1364EF16901E0354E7168C0F3E2
:100E2000034583B200F44016B6F5401F08D121F007
:100E300070612F4E766826F070662D4F7E6012E04E
:100E400000F48016B6F5801F06D1032606FA05F4D5
:100E5000A14341F0706106E0460D360103FA06F643
:100E6000B14341F0706122B1460D360103FA06F636
:100E7000314300F00046B6F1004F02D11C4EF16143
:100E800001E01B4E7160F0BD30B500228B071C0FD6
:100E90000F2303FA04F2164B08338C1053F8243056
:100EA0009343134C08348D1044F8253023468C109E
:100EB00053F824308C07240F00FA04F423430C4C1D
:100EC00008348D1044F8253030BD0A49DC31086003
:100ED0007047000000080140000C01400010014074
:100EE0000014014000180140001C01400020014096
:100EF0000000014000002042DF48006840F001008F
:100F0000DD49086008464068DC490840DA49486025
:100F100008460068DA490840D74908600846006872
:100F200020F4802008600846406820F4FE004860F5
:100F30004FF41F0088607047CF49096821F4803161
:100F4000CD4A11601146096821F480211160B0F585
:100F5000803F03D0B0F5802F0ED106E0C649096866
:100F600041F48031C44A116007E0C349096841F483
:100F7000A021C14A116000E000BF00BF704710B55A
:100F800001460022002300204A11012A02D1BA4C56
:100F9000236806E0022A02D1B74C236A01E0B64C6E
:100FA000636A01F01F02012494401C400CB101202F
:100FB00000E0002010BD38B500200090002400257E
:100FC00000BF3120FFF7DBFF05460098401C009072
:100FD0000098B0F5A06F01D0002DF2D03120FFF7BE
:100FE000CEFF08B1012400E00024204638BD0146B0
:100FF0000020A14A106820F0F80040EAC10010600B
:101000007047A04908607047024600209A4B586814
:1010100020F47C1042EA01031843974B5860704754
:1010200098490866704701460020934A506820F0AE
:1010300003000843506070478F48406800F00C0080
:101040007047014600208C4A506820F0F0000843A9
:101050005060704701460020874A506820F4E060E5
:1010600008435060704701460020834A506820F4CE
:10107000605040EAC1005060704729B17E4A527A00
:1010800002437D4B5A7204E07B4A527A82437A4B88
:101090005A7270477B49D83108607047014600207A
:1010A000754A506820F44040084350607047002162
:1010B000714A20321170704A82F82010012802D043
:1010C00004280AD104E001216B4A2032117005E0A6
:1010D0000521694A2032117000E000BF00BF70474F
:1010E0006949086070476449096A0143624A1162AC
:1010F0007047654944390860704730B500210022C7
:10110000002400235C4D6D6805F00C0121B1042919
:1011100005D0082923D105E05C4D056022E05B4D38
:1011200005601FE0544D6D6805F47012524D6D68F6
:1011300005F48034022505EB92421CB9544D554309
:1011400005600BE04C4D6D6805F400351DB1504D48
:101150005543056002E04D4D5543056002E04B4D9F
:10116000056000BF00BF444D6D6805F0F00109093E
:10117000484D6B5C0568DD4045603F4D6D6805F48A
:10118000E061090A434D6B5C4568DD4085603A4D7E
:101190006D6805F46051C90A3E4D6B5C4568DD40E1
:1011A000C560354D6D6805F44041890B3A4D6B5C67
:1011B000C568B5FBF3F5056130BD29B12E4A52690A
:1011C00002432D4B5A6104E02B4A526982432A4B59
:1011D0005A61704729B1284A92690243264B9A61A5
:1011E00004E0254A92698243234B9A61704729B1F2
:1011F000214AD2690243204BDA6104E01E4AD269D7
:1012000082431D4BDA61704729B11B4AD268024301
:10121000194BDA6004E0184AD2688243164BDA6050
:10122000704729B1144A12690243134B1A6104E052
:10123000114A12698243104B1A61704712494039B2
:10124000086070470F49C86470470B49C871704700
:101250000948406A40F0807007494862704701467B
:101260000020054A92680A400AB1012000E00020EF
:101270007047014988727047001002400000FFF873
:10128000FFFFF6FE000042428004424200127A0054
:1012900000093D00880000209800002010B5044699
:1012A000FE48844208D10121C014FFF7ADFF0021A0
:1012B000E014FFF7A9FFC4E0B4F1804F08D1012189
:1012C0000846FFF7AEFF00210120FFF7AAFFB8E0B4
:1012D000F348844208D101210220FFF7A2FF002138
:1012E0000220FFF79EFFACE0EE48844208D10121C6
:1012F0000420FFF796FF00210420FFF792FFA0E0F3
:10130000E948844208D101210820FFF78AFF002123
:101310000820FFF786FF94E0E448844208D10121C9
:101320001020FFF77EFF00211020FFF77AFF88E0F2
:10133000DF48844208D101212020FFF772FF0021FD
:101340002020FFF76EFF7CE0DA48844208D10121BB
:101350004014FFF759FF00216014FFF755FF70E0BC
:10136000D548844209D10121C804FFF74DFF00216F
:101370004FF40020FFF748FF63E0D048844209D1D2
:1013800001210805FFF740FF00214FF48010FFF70F
:101390003BFF56E0CA48844209D101214805FFF7C6
:1013A00033FF00214FF40010FFF72EFF49E0C5483E
:1013B000844208D101214020FFF733FF0021402063
:1013C000FFF72FFF3DE0C048844208D10121802073
:1013D000FFF727FF00218020FFF723FF31E0BB4804
:1013E000844208D101218015FFF71BFF0021A015C1
:1013F000FFF717FF25E0B648844209D10121080410
:10140000FFF702FF00214FF48030FFF7FDFE18E0E8
:10141000B048844209D101214804FFF7F5FE0021BC
:101420004FF40030FFF7F0FE0BE0AB48844208D1E8
:1014300001218804FFF7E8FE00214FF48020FFF728
:10144000E3FE10BD00220288944B98420ED0994BC7
:1014500098420BD0B0F1804F08D0914B984205D004
:10146000904B984202D0904B984204D14FF68F7324
:101470001A404B881A438D4B984207D08C4B9842A8
:1014800004D04FF6FF431A40CB881A4302808B8862
:1014900083850B880385814B98420BD0854B9842FE
:1014A00008D08B4B984205D08A4B984202D08A4B89
:1014B000984201D10B7A038601238382704770B56D
:1014C000002400220023058C4FF6FE76354005846B
:1014D000028C8388048B4FF68F752C40B51E2C40F0
:1014E0000D882C43751E2A400D892A434D882A43B6
:1014F0006A4DA8420BD06F4DA84208D0744DA84247
:1015000005D0744DA84202D0734DA84213D14FF6B6
:10151000F7752A404D892A434FF6FB752A408D887E
:101520002A434FF6FF652B404FF6FF552B408D8920
:101530002B43CD892B4383800483CD888586028409
:1015400070BD70B5002400220023058C4FF6EF76A5
:1015500035400584028C8388048B48F6FF752C4047
:101560004FF6FF452C400D884FF6FF7606EA05251D
:101570002C434FF6DF752A400D8906EA05152A43EC
:101580004D8806EA05152A43444DA84202D0494D2C
:10159000A8421DD14FF67F752A404D894FF6FF7640
:1015A00006EA05152A434FF6BF752A408D8806EADC
:1015B00005152A434FF6FF352B404FF2FF752B40A0
:1015C0008D8906EA85052B43CD8906EA85052B43DF
:1015D00083800483CD880587028470BD70B50024A4
:1015E00000220023058C4FF6FF6635400584028CEF
:1015F0008388848B4FF68F752C404FF6FC752C40FA
:101600000D882C434FF6FF552A400D894FF6FF7683
:1016100006EA05252A434D8806EA05252A431F4D7B
:10162000A84202D0234DA8421DD14FF2FF752A4097
:101630004D894FF6FF7606EA05252A434FF6FF351A
:101640002A408D8806EA05252A434EF6FF752B4071
:101650004DF6FF752B408D8906EA05152B43CD8984
:1016600006EA05152B4383808483CD888587028411
:1016700070BD70B5002200230024058C4EF6FF7665
:1016800035400584038C8488828B48F6FF752A4098
:101690004FF6FF452A400D8820E00000002C014055
:1016A0000004004000080040000C00400010004012
:1016B0000014004000340140004C01400050014043
:1016C0000054014000180040001C00400020004071
:1016D0000040014000440140004801404FF6FF76C1
:1016E00006EA05252A434DF6FF752B400D8906EACB
:1016F00005352B434D8806EA05352B43FA4DA842A4
:1017000002D0FA4DA84208D14BF6FF752C408D89C6
:101710004FF6FF7606EA85152C4384808283CD88B8
:10172000A0F84050038470BD828B4FF2FF331A4003
:101730008283828B4FF6FF7303EA01231A4382836D
:101740007047F0B50C461546002200210026078C94
:101750004EF6FF7C07EA0C070784828B018C4FF65C
:10176000FF7707EA043640F6FF473A404FF6FF7727
:1017700007EA05273A434FF6FF7707EA03373A436C
:10178000D94FB8420ED0D94FB8420BD0B0F1804FEC
:1017900008D0D74FB84205D0D64FB84202D0D64F66
:1017A000B84206D14DF6FF77394046F480573943A9
:1017B00005E047F6FF57394044F4805739438283A8
:1017C0000184F0BD828B4FF6F3731A408283828BC3
:1017D0000A4382837047F0B50C461546002200216B
:1017E0000026078C4FF6FF6C07EA0C070784828BF4
:1017F000018C4FF6FF7707EA04264FF60C773A4044
:101800004FF6FF7707EA03172F433A43B64FB84224
:101810000ED0B64FB8420BD0B0F1804F08D0B44FC5
:10182000B84205D0B34FB84202D0B34FB84206D148
:101830004FF6FF57394046F48077394305E04FF2C1
:10184000FF57394044F48077394382830184F0BDE7
:10185000028B4FF2FF331A400283028B4FF6FF7365
:1018600003EA01231A4302837047F0B50C4615467C
:10187000002200210026078C4FF6EF7C07EA0C07B8
:101880000784028B018C4FF6FF7707EA041640F6B7
:10189000FF473A404FF6FF7707EA03373A434FF6E0
:1018A000FF7707EA05273A438F4FB8420ED08F4F94
:1018B000B8420BD0B0F1804F08D08D4FB84205D060
:1018C0008C4FB84202D08C4FB84206D14FF6DF772A
:1018D000394046F01007394305E04FF65F7739404D
:1018E00044F01007394302830184F0BD028B4FF6A8
:1018F000F3731A400283028B0A4302837047F0B5E8
:101900000C46154600220021068C4FF6FE773E401D
:101910000684028B018C4FF60C7632407E1C06EA60
:1019200003162E433243704EB0420ED06F4EB0427B
:101930000BD0B0F1804F08D06D4EB04205D06D4E47
:10194000B04202D06C4EB04206D14FF6FD76314027
:1019500044F00106314305E04FF6F576314044F09E
:101960000106314302830184F0BD70B505460C4683
:101970005D4885420ED05D4885420BD0B5F1804F61
:1019800008D05B48854205D05A48854202D05A4863
:10199000854200D100E000BF208850B92389A28889
:1019A00061882846FFF7ABFFE1882846FFF79EFFD6
:1019B00025E0208804280AD12389A2886188284646
:1019C000FFF753FFE1882846FFF742FF17E0208822
:1019D00008280AD12389A28861882846FFF7FBFEE0
:1019E000E1882846FFF7EEFE09E02389A288618896
:1019F0002846FFF7A6FEE1882846FFF795FE70BD52
:101A00002DE9F04105460C4600260127608808B9FB
:101A1000022600E00026A088012801D1022700E06C
:101A200001272088A0B92389A28861882846FFF76A
:101A300066FFE1882846FFF759FF23893A46314679
:101A40002846FFF712FFE1882846FFF701FF13E061
:101A50002389A28861882846FFF707FFE188284686
:101A6000FFF7F6FE23893A4631462846FFF747FF3F
:101A7000E1882846FFF73AFFBDE8F0810A884B88E5
:101A80001A438B881A43CB881A430B891A434B8914
:101A90001A438B891A43A0F8442070474FF6FF7110
:101AA000818000210180C180418001727047002146
:101AB000018041808180C180018141818181C1811A
:101AC0007047002101804180012181800021C18077
:101AD000018170470021018041808180C1800181A6
:101AE0004181818170470000002C01400034014099
:101AF0000004004000080040000C004021B10288B2
:101B000042F00102028004E002884FF6FE731A40A0
:101B10000280704731B1B0F8442042F40042A0F88E
:101B2000442005E0B0F84420C2F30E02A0F844209F
:101B300070471AB183890B43838102E083898B4309
:101B4000838170478182704741EA0203A0F84830E0
:101B500070471AB183890B43838102E083898B43E9
:101B60008381704701894FF6F872114001817047F7
:101B70000A46002101894FF68F73194011430181F4
:101B8000704730B504460D4629462046FFF7F0FF62
:101B9000208940F00700208130BD2DE9F041044646
:101BA0000D4616461F46602D06D13B4601223146A2
:101BB0002046FFF75AFE05E03B460122314620460B
:101BC000FFF79DFE29462046FFF7D2FF208940F00F
:101BD00007002081BDE8F08130B50C460021018965
:101BE000C9B24FF6FF7505EA03251543254329437E
:101BF000018130BD2DE9F04105460E461746984655
:101C0000002443463A4631462846FFF7E5FF2C8933
:101C10004FF6F870044044F007044FF68F7004400C
:101C200044F070042C81BDE8F081F0B504460D4607
:101C300016461F463B46324629462046FFF7CCFF54
:101C4000208940F480402081F0BD01858282704768
:101C50000A46002101884FF68F7319401143018015
:101C60007047F0B50C4615461E46002100220023A1
:101C70000189028B038C4FF6F877394021434FF6E8
:101C8000FC473A4040F201173A434FF6DD773B40BC
:101C90004FF6FF7707EA06172F433B430181028384
:101CA0000384F0BD0A460021018B4FF68F73194063
:101CB0001143018370470A460021018B48F6FF73E8
:101CC00019404FF6FF7303EA02231943018370475B
:101CD0000A460021818B4FF68F731940114381838F
:101CE00070470A460021818B48F6FF7319404FF672
:101CF000FF7303EA022319438183704721B10288ED
:101D000042F08002028004E002884FF67F731A409E
:101D10000280704721B1828842F00402828004E090
:101D200082884FF6FB731A408280704721B1828807
:101D300042F00802828004E082884FF6F7731A406E
:101D40008280704721B1828842F00102828004E0E3
:101D500082884FF6FE731A40828070470A4600213F
:101D6000018B4FF6F77319401143018370470A4600
:101D70000021018B4FF2FF7319404FF6FF7303EA06
:101D800002231943018370470A460021818B4FF6D5
:101D9000F77319401143818370470A460021818BF4
:101DA0004FF2FF7319404FF6FF7303EA0223194302
:101DB000818370470A460021018B4FF6FB7319405F
:101DC0001143018370470A460021018B4FF6FF3310
:101DD00019404FF6FF7303EA02231943018370474A
:101DE0000A460021818B4FF6FB7319401143818312
:101DF00070470A460021818B4FF6FF3319404FF69A
:101E0000FF7303EA02231943818370470A460021C6
:101E1000018B4FF67F7319401143018370470A46C7
:101E20000021018BC1F30E014FF6FF7303EA022379
:101E30001943018370470A460021818B4FF67F7357
:101E400019401143818370470A460021818BC1F3F9
:101E50000E014FF6FF7303EA022319438183704793
:101E60000A460021018C4FF6FD731940114301848D
:101E700070470A460021018C4FF6F7731940114351
:101E8000018470470A460021018C4FF6DF73194028
:101E90004FF6FF7303EA02131943018470470A46A1
:101EA0000021018C4FF67F7319404FF6FF7303EA50
:101EB00002131943018470470A460021018C4FF632
:101EC000FF5319404FF6FF7303EA022319430184BD
:101ED00070470A460021018C4FF2FF7319404FF6FC
:101EE000FF7303EA02231943018470470A46002165
:101EF000018C4DF6FF7319404FF6FF7303EA02336E
:101F000019430184704730B5002301248C40A3B2EB
:101F1000048C9C430484048C02FA01F5ADB22C437A
:101F2000048430BD30B5002304248C40A3B2048C5B
:101F30009C430484048C02FA01F5ADB22C43048462
:101F400030BD70B503460020002418461830012526
:101F50008D40ACB21D8CA5431D8409B1082909D15F
:101F600000EB6100056825F0700505600568154304
:101F700005600EE00D1FC5F34E052844056825F4E5
:101F8000E045056005684FF6FF7606EA0226354310
:101F9000056070BD21B1028842F00202028004E0B7
:101FA00002884FF6FD731A400280704721B1028803
:101FB00042F00402028004E002884FF6FB731A40EC
:101FC0000280704721B1828842F08002828004E062
:101FD00082884FF67F731A408280704702884FF6DE
:101FE000F7731A40028002880A4302807047828891
:101FF0004FF68F731A40828082880A43828070472E
:1020000002894FF6F8731A40028102890A4302815D
:10201000704702894FF67F731A40028102890A4392
:10202000028170478184704781857047818670473F
:102030000187704781877047A0F840107047028879
:102040004FF6FF431A40028002880A43028070471D
:102050000146888E70470146088F70470146888F79
:1020600070470146B1F8400070470146888C7047C0
:102070000146088D704702460020138A0B400BB1C1
:10208000012000E000207047CA430282704730B54B
:102090000246002000230024158A05EA01039589E1
:1020A00005EA010413B10CB1012000E0002030BDAD
:1020B000CA4302827047000010B50446FB488442C0
:1020C00009D101218803FFF79FF800214FF48040D8
:1020D000FFF79AF832E0F648844209D1012148041A
:1020E000FFF79FF800214FF40030FFF79AF825E042
:1020F000F048844209D101218804FFF792F80021B9
:102100004FF48020FFF78DF818E0EB48844209D1A6
:102110000121C804FFF785F800214FF40020FFF7E4
:1021200080F80BE0E548844208D101210805FFF75B
:1021300078F800214FF48010FFF773F810BD2DE9F7
:10214000F04786B005460E460024A24600BFA146D1
:102150000027B08900B100BF2F462C8A4CF6FF70D3
:102160000440F08804432C82AC894EF6F3100440FE
:10217000B08831890843718908430443AC81AC8A33
:102180004FF6FF400440B0890443AC8201A8FEF73B
:10219000B4FFC648874202D1DDF810A001E0DDF8A7
:1021A0000CA0A88900F4004040B10AEBCA0000EB83
:1021B0000A1031684900B0FBF1F807E00AEBCA00E9
:1021C00000EB0A1031688900B0FBF1F86420B8FB1D
:1021D000F0F004012009642101FB1089A88900F4B2
:1021E000004040B1322000EBC900B0FBF1F000F03C
:1021F0000700044308E0322000EB09106421B0FB23
:10220000F1F000F00F0004432C8106B0BDE8F08728
:102210004FF41651016000218180C18001810C21A1
:10222000418100218181704710B502460020108A4B
:102230004FF2FF0318400B884C8823438C882343BC
:10224000CC8823431843108210BD002101804180B7
:102250008180C180704721B1828942F4005282811D
:1022600004E082894DF6FF731A4082817047F0B511
:102270000346002400260025002040F66A17B942D4
:1022800000D100BF1846C1F3421401F01F06012718
:1022900007FA06F5012C01D10C3004E0022C01D123
:1022A000103000E014301AB107682F43076002E0D5
:1022B0000768AF430760F0BD1AB1838A0B4383827E
:1022C00002E0838A8B4383827047028A4FF6F07361
:1022D0001A400282028A0A430282704782894FF2C0
:1022E000FF731A40828182890A438281704721B13B
:1022F000828942F00202828104E082894FF6FD73F6
:102300001A4082817047028A4FF6DF731A400282B8
:10231000028A0A430282704721B1028A42F4804253
:10232000028204E0028A4BF6FF731A400282704771
:10233000C1F308028280704701468888C0F3080014
:102340007047818941F0010181817047028BD2B2CF
:102350000283028B42EA012202837047028B02F45D
:102360007F420283028B0A430283704721B1828A33
:1023700042F02002828204E0828A4FF6DF731A4024
:102380008282704721B1828A42F01002828204E088
:10239000828A4FF6EF731A408282704721B1828A97
:1023A00042F00802828204E0828A4FF6F7731A40F4
:1023B0008282704721B1828942F40042828103E027
:1023C0008289C2F30E028281704721B1828A42F46F
:1023D0000062828204E0828A4FF2FF731A40828296
:1023E0007047828A4FF6FB731A408282828A0A43C0
:1023F0008282704721B1828A42F00202828204E026
:10240000828A4FF6FD731A4082827047024600208E
:10241000B1F5007F00D100BF13880B400BB1012044
:1024200000E00020704701F40072B2F5007F00D197
:1024300000BFCA430280704770B5024600240023E3
:102440000025002040F66A16B14200D100BFC1F35A
:10245000421501F01F03012606FA03F3012D02D1F4
:102460009689334006E0022D02D1168A334001E0FE
:10247000968A33400C12012606FA04F4168834407A
:1024800013B10CB1012000E0002070BD10B5002296
:10249000002340F66A14A14200D100BF0A120124B1
:1024A0009440A3B2DC43048010BD0000003801401A
:1024B0000044004000480040004C004000500040F4
:1024C00010B56FF00400FEF74AFB2E4800682E4955
:1024D000B0FBF1F02D4908700846007800EB400190
:1024E000C1EBC0104FF6FF7101EAC0002849088017
:1024F00010BD0146254A12784A434FF0E0235A6145
:1025000000229A611A46126942F001021A6100BF64
:102510004FF0E022106900F001021AB100F480329D
:10252000002AF5D04FF0E022126922F001024FF0AC
:10253000E0231A6100229A6170470146144A12880A
:102540004A434FF0E0235A6100229A611A46126909
:1025500042F001021A6100BF4FF0E022106900F062
:1025600001021AB100F48032002AF5D04FF0E022C7
:10257000126922F001024FF0E0231A6100229A61F1
:10258000704700000C00002000127A009C00002020
:102590009E00002010B54FF4A060FEF791FA10BD28
:1025A00010B5FDF704FF01210220FEF720FE0121F6
:1025B0000C20FEF70FFE10BD08B5C020ADF80000DE
:1025C00018208DF8030003208DF8020069462C487E
:1025D000FEF744FB0120ADF8000004208DF8030055
:1025E00003208DF8020069462548FEF737FB08BD39
:1025F00000B587B042F21070ADF814001720ADF8A6
:1026000010000020ADF81600ADF8120004A91D4816
:10261000FEF718FF6020ADF800000120ADF80200C1
:102620000020ADF80600ADF8080069461548FEF731
:1026300046FF08211348FFF791FB69461148FEF752
:1026400080FF08210F48FFF792FB01210D48FFF79B
:1026500055FB01210B48FFF751FA07B000BD10B53B
:10266000FFF72EFFFFF79CFFFFF794FFFFF7A4FF94
:10267000FFF7BEFF00F05FF900F0CEFD10BD0000D7
:102680000008014000040040014600BF704700BF41
:10269000494A128802F04002002AF9D0C2B2464BE1
:1026A0001B1D1A80704710B586B00446012144F204
:1026B0000400FEF78FFD4FF40070ADF81400032006
:1026C0008DF8160018208DF8170005A93B48FEF775
:1026D000C5FA4FF48060ADF8140004208DF817009F
:1026E00005A93648FEF7BAFA25208DF80000032028
:1026F0008DF801008DF8020001208DF80300684676
:10270000FEF7E3F901940020ADF80800ADF80A00E7
:10271000ADF80C00ADF810000C20ADF80E0001A9CA
:102720002548FFF70CFD012240F225512248FFF712
:102730009EFD01212048FFF78EFD06B010BD10B5AB
:1027400040F225511C48FFF777FE10B31A48FFF7F7
:10275000F3FDC4B21A48008800F40040C8B9184814
:10276000008800F4804060B10A2C03D00020144996
:10277000088020E01248008840F40040104908809A
:1027800019E00D2C06D10E48008840F480400C4919
:10279000088010E00A480088C0F30D0009490C5475
:1027A00007480088401C0649088008460088C7285A
:1027B00001DD0020088010BD003801400008014004
:1027C000A40000201405002010B50A460023F24C96
:1027D000236012B9241D236003E00123EE4C241D65
:1027E0002360002117E000F0800323B10123EA4CAD
:1027F0000834236003E00023E74C083423600023FF
:10280000E54C0C3423604306180E0123E34CC4F856
:10281000B0314B1CD9B20829E5DB0123DE4C236023
:1028200010BD30B504460D4645F040000021FFF7CD
:10283000CBFF44F080000021FFF7C6FF30BD2DE93B
:10284000F04F0746884614469946DDE909BA4146E5
:102850003846FFF7E6FF00252FE0002620E0A642DD
:1028600011D135B908F10100C1B23846FFF7D9FFDF
:1028700009E008F10102D1B204EB0A0202FB057281
:10288000D0B2FFF7CEFF0BEB050101EB4101C44ACB
:1028900002EBC101885D0121FFF796FF701CC6B2F3
:1028A000B6EB440FDBDB681CC5B204EB0A0101FB8D
:1028B0000571C8B24146FFF7B4FF4D45CDDBBDE819
:1028C000F08F30B50446A4F12000C4B200250AE020
:1028D00004EB4401B34A02EB4101485D0121FFF7DB
:1028E00073FF681CC5B2062DF2DB30BD70B505461E
:1028F0000E46144631462846FFF793FF03E0207842
:10290000FFF7DFFF641C20780028F8D170BD10B5F8
:1029100000210C20FFF758FF00218020FFF754FF13
:10292000002404E001210020FFF74EFF641CB4F5F1
:10293000FC7FF7D310BD08B54FF4F850ADF8000098
:1029400010208DF8030003208DF802006946964898
:10295000FEF784F900209049091F08600120FFF765
:10296000C8FD01208D49C1F8A00100208A490860F6
:102970000120FFF7BEFD01208849C1F8A401FFF73F
:10298000B8FD00212120FFF71FFF0021C820FFF71D
:102990001BFF00210620FFF717FF00211320FFF780
:1029A00013FF00212020FFF70FFFFFF7B0FF0021EA
:1029B0000C20FFF709FF00207749086008BD1CB50F
:1029C000FFF7B9FFFFF7A3FF78A200210846FFF742
:1029D0008DFF79A201210020FFF788FF79A2022153
:1029E0000020FFF783FF7AA203210020FFF77EFF7C
:1029F0000520002104230C22CDE9001019461046C1
:102A0000FFF71DFF1CBD2DE9FF4F85B092461E4606
:102A1000129D0024D3460021584603F025FC05D220
:102A20008BF0004B2D208DF8080002E02B208DF854
:102A300008002E2102AA701C1154A9460EE0584627
:102A400003F082FA07460022654B02F0A3FFCDE9AE
:102A5000000102F04DFD8346A9F10109B9F1000F13
:102A6000EDDC584603F0CCFB5E49086017E05D489A
:102A700000680A2190FBF1F201FB12005A4911F89B
:102A800020107019001B401C02AA11545548006800
:102A90000A2190FBF1F053490860601C04B2681EE3
:102AA000A042E4DA0DB1601C04B217E04D480068A2
:102AB0000A2190FBF1F201FB12004B4911F82010A2
:102AC0007019001B401C02AA1154464800680A21D4
:102AD00090FBF1F043490860601C04B27019A042F9
:102AE000E4DA02AADDE90501FFF700FF09B0BDE85D
:102AF000F08F2DE9F04F8346894692461E46099C89
:102B0000E11704EB5171C910A4EBC10131B92046A2
:102B1000E11704EB5171C1F3C70807E02046E11744
:102B200004EB5171C910491C01F0FF08002514E0A5
:102B300049465846FFF775FE002707E005FB06717A
:102B40001AF801000121FFF73FFE7F1CB742F5D3C1
:102B500009F1010000F0FF096D1C4545E8D3BDE80F
:102B6000F08F00B521A200210846FFF7BFFE23A287
:102B700002210020FFF7BAFE24A203210020FFF764
:102B8000B5FE26A204210020FFF7B0FE27A20521F2
:102B90000020FFF7ABFE00BDA4012142000021424E
:102BA000D0020020A800002000080140202020586A
:102BB000584C202020000000203531313020544571
:102BC00053542000323031382D392D32310000007D
:102BD000204E6F6B696135313130204C4344000029
:102BE00000002440AC040020800400203D524F54DB
:102BF0004F52204C4556454C3D200000582D413A3F
:102C0000202020202020202020200000582D573A6E
:102C10002020202020202020202000004C2D4D6F3F
:102C2000746F723A2020202020200000522D4D6F1A
:102C3000746F723A202020202020000010B570A26E
:102C400001210020FFF752FE71A202210020FFF7B0
:102C50004DFE00BF724800680028FBD01BE071A247
:102C600005210020FFF742FE6D48006840B900BF13
:102C70006B4800680028FBD001206E4908600AE01C
:102C80006420FFF75AFC6CA205210020FFF72EFEFE
:102C90006420FFF752FC674800680028DFD026E078
:102CA00069A204210020FFF721FE6BA2052100206C
:102CB000FFF71CFE41F270706B490880091D088007
:102CC0005748006840B900BF554800680028FBD04D
:102CD0000220584908600AE06420FFF72EFC56A243
:102CE00005210020FFF702FE6420FFF726FC514873
:102CF00000680128D4D026E05CA204210020FFF760
:102D0000F5FD5EA205210020FFF7F0FD40F6B8308A
:102D100055490880091D08804148006840B900BF36
:102D20003F4800680028FBD00320424908600AE0C1
:102D30006420FFF702FC40A205210020FFF7D6FD2A
:102D40006420FFF7FAFB3B4800680228D4D010BD8E
:102D500010B500203749086040F6B8304249088075
:102D6000091D08801EE049A202210020FFF7BEFDD8
:102D70004AA203210020FFF7B9FD6420FFF7DDFB25
:102D80002DA202210020FFF7B1FD2BA2032100207C
:102D9000FFF7ACFD6420FFF7D0FB26480068401C1D
:102DA00024490860234800680C28DCDB10BD70B59E
:102DB0004FF448652C461BE03CA201210020FFF7A0
:102DC00095FD40F64260854202DA6D1C26490D8071
:102DD00040F64260844203DA641C2349091D0C80DA
:102DE0000320FFF7AAFB14A201210020FFF77EFDBC
:102DF00040F642608542DFDB8442DDDB70BD0000CF
:102E00002020205468726F74746C652020200000AC
:102E1000202043616C6962726174696F6E200000EA
:102E2000000121423D3D4355542020504F5745520B
:102E30003D3D0000B4040020202020202020202040
:102E400020202020202000002046554C4C205448B3
:102E5000524F54544C4500003D3D506C7567205016
:102E60006F7765723D3D0000340400402053544F9D
:102E700050205448524F54544C4500003D3D50752D
:102E8000736820427574746F6E3D0000202020200E
:102E90004D6F746F7220202020200000202052658A
:102EA000706F736974696F6E202000002020536F6B
:102EB00066742053746172742020000008B54FF4CA
:102EC0004060ADF8000010208DF8030003208DF85D
:102ED00002006946FB48FDF7C1FE4FF44061F94826
:102EE000FDF769FF08BD10B50220FFF702FB10BD1A
:102EF00010B5F448001D006820F47040F149091D28
:102F000008600846006840F4405008600020EE4920
:102F10000860EE49C1F8AC01FFF7E5FF0120EA497E
:102F20000860EA49C1F8AC01FFF7DDFF10BD10B53C
:102F30000024E448001D006820F47040E149091DA8
:102F400008600846006840F4004008600120DE493F
:102F5000091D0860FFF7C7FF0120DC49C1F8A8017F
:102F6000FFF7C1FF07E0601CC4B2FA2C03DDFFF7D6
:102F7000BFFF012010BDD4487C3800680028F2D182
:102F8000D149086000BFF5E770B50446CD48001D83
:102F9000006820F47040CB49091D086008460068AD
:102FA00040F4405008600020C7490860002512E046
:102FB000E009C549091D08606006040E0120C349E7
:102FC000C1F8A801FFF78FFF0020BF490860FFF795
:102FD0008AFF681CC5B2082DEADB70BD10B5B94880
:102FE000001D006820F47040B649091D08600846BD
:102FF000006840F4405008600120B349091D086092
:10300000B249C1F8A801FFF76EFF0020AE49091DC3
:103010000860FFF768FF0020AC49C1F8A80110BDA7
:1030200070B505460C46FFF7D9FFD020FFF7ACFF7F
:10303000FFF77DFF18B1FFF75BFF012070BD284649
:10304000FFF7A2FFFFF773FF2046FFF79DFFFFF793
:103050006EFF18B1FFF74CFF0120EFE7FFF748FFC5
:103060000020EBE770B504460025BC2C01DB0125F0
:1030700010E0622C01DB02250CE02A2C01DB032589
:1030800008E0142C01DB042504E00A2C01DB0525F3
:1030900000E0062529461A20FFF7C2FF70BD70B573
:1030A0000446B4F57A7F01DD4FF47A74042C00DA1B
:1030B00004244FF47A7090FBF4F0401EC5B2294608
:1030C0001920FFF7ADFF0546264604EBD671C1F384
:1030D0004F00FFF7C7FF70BD10B500207A490860A8
:1030E0007848001D006820F470407649091D08608A
:1030F0000846006840F44050086000207349C1F859
:10310000AC01FFF7F0FE01206F490860FFF7EBFE0E
:1031100000206E49C1F8A80110BD10B500206A4911
:1031200008606848001D006820F470406549091D6A
:1031300008600846006840F4405008600120634978
:10314000C1F8AC01FFF7CFFE01205F490860FFF72F
:10315000CAFE00205D49C1F8A80110BD70B5054642
:1031600000245848001D006820F470405549091D8E
:1031700008600846006840F400400860002614E03B
:10318000002051490860FFF7AEFE01204F49C1F809
:10319000A8016006040E4C487C38006808B1601C29
:1031A000C4B2FFF7A0FE701CC6B2082EE8DB15B94A
:1031B000FFF7B3FF01E0FFF78FFF204670BD70B54A
:1031C0000446FFF70BFFD020FFF7DEFEFFF7AFFE50
:1031D0002046FFF7D9FEFFF7AAFEFFF7FFFED1203A
:1031E000FFF7D2FEFFF7A3FE0020FFF7B7FF05466B
:1031F000FFF77EFE284670BD10B50446E006010EBE
:103200001C20FFF70DFF10BD10B50446E006010EAF
:103210001B20FFF705FF10BD10B5FFF74FFE802103
:103220006B20FFF7FDFE6420FFF787F900216B207C
:10323000FFF7F6FE0320FFF7E7FF0020FFF7DCFFB4
:103240004FF4FA70FFF72BFF00213820FFF7E8FE5C
:1032500000216A20FFF7E4FE00212320FFF7E0FEB3
:1032600080213720FFF7DCFE7520FFF7A8FF04461A
:10327000682C0CD101216B20FFF7D2FE00216C20BD
:10328000FFF7CEFE4FF4FA70FFF709FF01E00120CF
:1032900010BD0020FCE72DE9F04106460F4614461C
:1032A0001D46FFF79BFE002141EA4601C8B2FFF729
:1032B0006BFEFFF73CFE58B1FFF71AFE0120BDE898
:1032C000F0810000000C0140A881214200802142D1
:1032D0003846FFF759FEFFF72AFEFFF77FFE012170
:1032E00001EB4601C8B2FFF74FFEFFF720FE0DE0ED
:1032F000012C04D10020FFF731FF287003E00120EA
:10330000FFF72CFF2870601EC4B26D1C002CEFD19B
:10331000FFF7EEFD0020D2E72DE9F84F6B460222C1
:1033200041216820FFF7B7FF9DF801009DF80010CC
:1033300040EA01200FFA80FA504602F013FB804663
:103340000022824B02F0B6F90646814A814B02F018
:1033500001F9044602F0CCF883467F49584602F052
:10336000B7FF044602F04CFF00B2BDE8F88F2DE92C
:10337000FC4104460D4616466B4606224321682052
:10338000FFF789FF0746BFB99DF801009DF80010BF
:1033900040EA012000B220809DF803009DF8021051
:1033A00040EA012000B228809DF805009DF8041035
:1033B00040EA012000B230803846BDE8FC812DE9AA
:1033C000FC4104460D4616466B4606223B2168200A
:1033D000FFF761FF0746BFB99DF801009DF8001097
:1033E00040EA012000B220809DF803009DF8021001
:1033F00040EA012000B228809DF805009DF80410E5
:1034000040EA012000B230803846BDE8FC812DE959
:10341000F04105460E4617469846FFF7DFFD0021AE
:1034200041EA4501C8B2FFF7AFFDFFF780FD20B1CB
:10343000FFF75EFD0120BDE8F0813046FFF7A4FDF7
:10344000FFF775FD00240CE018F80400FFF79CFD61
:10345000FFF76DFD18B1FFF74BFD0120EBE7601C96
:10346000C4B2BC42F0DBFFF743FD0020E3E708B540
:1034700001210846FDF7AEFE04210220FDF704FD00
:103480000A208DF8000002208DF8010003208DF83D
:10349000020001208DF803006846FDF716FB08BD09
:1034A0002DE9F04F85B00024A146A246A34600BFF7
:1034B00020E06A4601A902A8FFF759FF0520FFF79F
:1034C0003CF8BDF908008144BDF904008244BDF90F
:1034D00000008344254604EBD5704010C0F1320251
:1034E0001EA103A800F06AFB03AA04211C20FFF719
:1034F000FDF9641C642CDCDB484602F033FA074615
:103500000022184B02F0D6F8054601F0F1FF1649EB
:103510000860504602F026FA05460022114B02F0E0
:10352000C9F8074601F0E4FF10490860584602F068
:1035300019FA054600220B4B02F0BCF8074601F0D1
:10354000D7FF0B49086005B0BDE8F08F004075401B
:10355000A4703D0AD74342400000C84220256420A1
:10356000000000000000594000000020040000207E
:10357000080000200FB597B01D99084602F0A8FE7C
:103580000A901C99084602F0A3FE08901A99084672
:1035900002F09EFE0790089902F002FD09900A9938
:1035A00002F0FEFC0B9002F0CFFCCDE90C0101F023
:1035B00063FFCDE90E0101F09BFF169016991A9852
:1035C00002F05CFD1A9016991C9802F057FD1C90B1
:1035D00016991D9802F052FD1D90FE480168FE48A4
:1035E000006802F075FE0E90FC480168FC48006817
:1035F00002F06EFE0D900E9902F068FF4FF08041D0
:103600000F9002F065FE1590F4480168F1480068DB
:1036100002F05EFE0E90F2480168EF48006802F08A
:1036200057FE0D900E9902F0BBFC4FF080410F90B9
:1036300002F04EFE1490E9480168006802F048FE6E
:103640000F90E4480168006802F042FE0D90E448E3
:103650000168006802F03CFE0B90DF4801680068DA
:1036600002F036FE0A900B9902F030FF0C900D9993
:1036700002F02CFF0E900F9902F092FC1390149917
:103680001D9802F025FE0F9013991C9802F020FE61
:103690000E900F9902F01AFF129013991A9802F0E7
:1036A00017FE0F9015991D9802F012FE0E900F99BB
:1036B00002F00CFF119015991C9802F009FE0F9072
:1036C00014991A9802F004FE0E900F9902F0FEFE73
:1036D0001090C449129802F0FBFD0F90C248016897
:1036E0000F9802F05DFCC0490860BE49119802F0D5
:1036F000EFFD0F90BD4801680F9802F051FCBB49E7
:103700000860B849109802F0E3FD0F90B8480168CE
:103710000F9802F045FCB64908604FF081401299BD
:1037200002F0D6FD0E90179902F03AFC0F90AE48C9
:1037300001680F9802F034FC17904FF08140119906
:1037400002F0C6FD0E90189902F02AFC0F90A748CF
:1037500001680F9802F024FC18904FF081401099F6
:1037600002F0B6FD0E90199902F01AFC0F90A048D5
:1037700001680F9802F014FC199098481999006894
:1037800002F0A6FD069093481899006802F0A0FD8B
:1037900004909348006880F000400290179902F06E
:1037A00097FD0390049902F091FE0590069902F0AE
:1037B0008DFE079002F0C8FB8E4A8F4BCDE90801C1
:1037C00002F0E8F8CDE90C018348006802F0BCFB88
:1037D000CDE90A01DDE90C2301F0BCFECDE90E01C3
:1037E00001F086FE7C4908607C481899006802F068
:1037F0006FFD069077481999006802F069FD049002
:1038000075480168179802F063FD0390049902F06F
:10381000C7FB0590069902F059FE079002F094FB51
:10382000744A754BCDE9080102F0B4F8CDE90C01FA
:103830006B48006802F088FBCDE90A01DDE90C2342
:1038400001F088FECDE90E0101F052FE64490860E6
:1038500062480168179802F03BFD0690604819998C
:10386000006802F035FD04905B481899006802F08A
:103870002FFD0390049902F029FE0590069902F0AD
:103880008FFB079002F060FB5A4A5B4BCDE90801C1
:1038900002F080F8CDE90C014E48006802F054FBBC
:1038A000CDE90A01DDE90C2301F054FECDE90E015A
:1038B00001F01EFE4749086008460168179802F0AB
:1038C00007FD069046481899006802F001FD049033
:1038D00041481999006802F0FBFC0390049902F03A
:1038E0005FFB0590069902F0F1FD079002F02CFBBA
:1038F000404A414BCDE9080102F04CF8CDE90C01FA
:103900003648006802F020FBCDE90A01DDE90C230E
:1039100001F020FECDE90E0101F0EAFD2F4908601B
:1039200008460168006802F0D3FC0A902948016843
:10393000006802F0CDFC089029480168006802F098
:10394000C7FC069024480168006802F0C1FC05909D
:10395000069902F025FB0790089902F021FB0990D7
:103960000A9902F01DFB0B9002F0EEFACDE90C0172
:1039700001F082FDCDE90E0101F0BAFD1690164866
:103980001699006802F07AFB1349086014481699EA
:10399000006802F073FB124908600E48169900682F
:1039A00002F06CFB0B4908600C481699006802F0A5
:1039B00065FB0A490860084801684FF0804002F042
:1039C00087FC069003480168069802F081FC089085
:1039D000034813E0C4040020BC040020C8040020F5
:1039E000C00400200AD7A33BCC040020D004002050
:1039F000D40400207B14AE47E17A643F01684FF0A5
:103A0000404002F065FC069066480168069802F0A6
:103A10005FFC0790089902F0C3FA099002F094FA4B
:103A2000CDE90A0101F020FA4FF066325E4BCDE994
:103A30000C0101F0AFFFCDE90E0101F059FD1E9917
:103A400008605A4801684FF0804002F041FC039042
:103A500056480168039802F03BFC05905448016801
:103A60004FF0404002F034FC039051480168039845
:103A700002F02EFC0490059902F028FD4FF07E51D3
:103A8000069002F08DFA079002F05EFACDE90A0185
:103A9000484801684FF0804002F01AFC0490444806
:103AA0000168049802F014FC0690404801684FF049
:103AB000804002F00DFC04903A480168049802F03E
:103AC00007FC0590069902F06BFA079002F03CFAA9
:103AD000CDE90801DDE90A2301F00EFC4FF0663262
:103AE000314BCDE90C0101F055FFCDE90E0101F09C
:103AF000FFFC1F9908602B480168006802F0E8FB92
:103B000006902A480168006802F0E2FB0490284809
:103B10000168006802F0DCFB02902648016800683A
:103B200002F0D6FB0190029902F03AFA0390049950
:103B300002F0CCFC0590069902F0C8FC079002F058
:103B400003FACDE90A01174801681A48006802F033
:103B5000BFFB0590154801681548006802F0B8FBE6
:103B60000490059902F01CFA4FF08041069002F093
:103B7000AFFB079002F0E8F9CDE90801DDE90A237F
:103B800001F0BAFB4FF06632074BCDE90C0101F0B2
:103B900001FFCDE90E0101F0ABFC209908601BB0DC
:103BA00000BD0000C804002066A64C40C4040020EC
:103BB000C0040020BC040020704700000FB41CB5F6
:103BC000074B06AA7B4469460090059800F085FBE8
:103BD0000020694600F094FB1CBC5DF814FB00005B
:103BE0003907000070B5044685690068C10601D533
:103BF000302600E02026C00707D070BDD4E901219F
:103C000030469047206A401C20626D1EF6D570BD7C
:103C100070B5044685690078C00707D170BDD4E946
:103C2000012120209047206A401C20626D1EF6D59D
:103C300070BD00002DE9F04106460024106875298A
:103C4000314616A510D0AFF30080002802DA4042BA
:103C500013A507E031688A0701D512A502E04907DC
:103C600004D511A5012401E0AFF3008000210A2250
:103C700006F1240709E0B0FBF2FCB0FBF2F302FB13
:103C80001C00303078541846491C0028F3D12346D4
:103C90002A463046BDE8F04100F0B3B8000000000D
:103CA0002D0000002B000000200000002DE9F05F37
:103CB000894604464FF0000ADFF824B1FB44C0F8FF
:103CC00020A02046E168884700287DD0252806D01E
:103CD000D4E901219047206A401C2062F1E70025C9
:103CE0005F462046E16888472028064607DB312EDC
:103CF00005D2B81910F8200C08B10543F1E7A80760
:103D000001D525F00405C4F81CA00027C4F818A0AC
:103D10002A2E09D0304601F09FF838B304EB87080B
:103D2000303EC8F8186019E059F8041B204604EB2F
:103D300087029161E1688847012F064618D1E06942
:103D4000002820DA25F020051DE0D8F8180000EB47
:103D5000800006EB40003038C8F818002046E168C3
:103D60008847064601F078F80028EED1012F0AD0E6
:103D70002E2E08D12046E16888477F1C0646022F78
:103D800045F02005C4DBA069002803DA404245F075
:103D90000105A061E80701D025F01005A6B1A6F144
:103DA0004100192802D8203645F400654A463146BC
:103DB000204625604D46FCF715FA60B1012807D072
:103DC000ED1D25F0070000E007E000F1080978E7A5
:103DD00005F1040975E730467AE7206ABDE8F09FEF
:103DE000EA290000704770477047704710B500F02F
:103DF00091FA006810BD10B5044600F08BFA04601B
:103E000010BD2DE9F0470D4699469246044600F153
:103E100024080168880604D5E06921F010012160BA
:103E200000E00120A84201DD471B00E00027A16956
:103E30007A1902EB0900081AA0612078C00602D4A2
:103E40002046FFF7CFFE002608E0D4E901211AF84A
:103E500006009047206A401C761C20624E45F4DB29
:103E60002078C0060AD52046FFF7BCFE06E0D4E95C
:103E7000012130209047206A401C2062381EA7F1A3
:103E80000107F4DC07E0D4E9012118F805009047A8
:103E9000206A401C2062281EA5F10105F3DC2046A3
:103EA000FFF7B6FE2078000602D50220BDE8F087B5
:103EB0000120FBE770472DE9FF4F0C461E464FF0EF
:103EC000FF378BB0D2E90001DDF860800A908A46A6
:103ED000C1F30A5505B93D46002108464FF00000E0
:103EE000BAF1000F00F4400005DA00EB80004FF457
:103EF000400101EA50004FEA9059B9F1010F00DD8D
:103F0000B9460A9850EA4A000ED044F61050A5F27D
:103F1000FF3545432F14B8F1000F1ED07542291EFE
:103F20001EDDC9F100021CE0B8F1010F4FF00000E6
:103F300001D0302103E0F24305E02154401CB0429F
:103F4000FBDB30460022002121540B99C1F8088088
:103F5000C1E900200FB0BDE8F08FBD1B6D1CDEE78E
:103F60004A4600DA694206A800F05EFA06AB93E81A
:103F7000070003AB83E8070050460A9900F034FBC2
:103F80008DE80700A0F500501F3800900398002D21
:103F900009DD42F21F014A46084403A9039068461E
:103FA00000F093FD08E0A0F500504A461F3803A931
:103FB0000390684600F09DFD8DE807000004000CAA
:103FC00003D04FF0FF30410800E01046B8F1000F79
:103FD00003D00022009215461EE0751E05D400F0A5
:103FE0009DF9303262556D1EF9D5B3460122084362
:103FF00002D000227F1C04E02078302801D100226A
:104000007F1E002A099786D01DE0112D07DA00F0E7
:1040100085F9303262556D1C50EA0102F5D1084332
:1040200002D00098C8B10EE00021681E05E0235CB4
:10403000625C63542254401E491C8142F7DBAB464C
:10404000A81B401E0990002004F80B000B98099A49
:10405000C0F80880C0E9002B7CE711264FF000086B
:1040600059E72DE9F04F88460446D21D22F007019A
:1040700091B0D1E90001CDE90A0100F070FE0246DD
:104080000B98C00F01D02D2007E02068810701D5D3
:104090002B2002E0202101EAC000032A099001D070
:1040A000072A05DB03464146204600F07DF90BE177
:1040B0002078800601D5E06900E00620B8F1650FA0
:1040C000814606D0B8F1660F18D0B8F1670F70D1ED
:1040D00031E00020B9F1110F009001DB112301E064
:1040E00009F101030AAA01A90CA8FFF7E4FEDDE922
:1040F0000C70002609F10105834647E001204B467C
:1041000000904FF000470AAA01A90CA8FFF7D3FEC0
:10411000DDE90DB00C995D46002610B909F10100EA
:104120000D18B9EB050003D4C0F1FF3609F1010504
:10413000A5EB09002BE0B9F1010F01DA4FF00109FD
:104140000020B9F1110F0090484601DD112300E075
:1041500003460AAA01A90CA8FFF7ADFEDDE90C7021
:104160004D4600268346207800070AD4AB4500DA86
:104170005D4601A8012D04DD411911F8011C30290B
:1041800007D04F4502DA17F1040F04DA0120824606
:104190000FE06D1EEEE7002F02DCED1B3E4403E056
:1041A000781CA84200DD7D1CB81B00F1010A4FF00D
:1041B00000472078000703D4AA4501DB4FF0FF3AFF
:1041C0000021B7F1004F0DF143088DF8431024D0C2
:1041D00002202B23002F01DA7F422D230A21021E09
:1041E000A0F1010000DC5FB197FBF1FC97FBF1F25D
:1041F00001FB1C7C17460CF1300C08F801CDEEE7F2
:10420000A8F1010003702188090501D5452100E0CE
:104210006521A0F1010800F8011C09980FA9A1EB84
:104220000807FF1D00B10120411901EBEA70A169E7
:104230003844081A401EA0612078C00602D42046E7
:10424000FFF7D0FC099828B1D4E901219047206AF2
:10425000401C20622078C00622D52046FFF7C2FC11
:104260001EE0002E04DBB34502DD01A8805D00E006
:104270003020D4E901219047206A401C2062761C3E
:10428000AAF101005FEA000A0AD100F03FF8C06815
:104290000168405CD4E901219047206A401C2062FB
:1042A000281EA5F10105DCDC07E0D4E9012118F89E
:1042B000010B9047206A401C2062381EA7F10107BD
:1042C000F3DC2046FFF7A4FC032011B043E6000016
:1042D00001694A1C02610878704700B58FB0CDE9CA
:1042E00001310021059105497944CDE903101146BA
:1042F0006846FFF7DBFC0FB000BD0000E5FFFFFFE5
:104300000A6802F8010B0A60704700000048704715
:10431000FC05002000487047DC05002030B5B0F1F6
:104320000A024FEA900E71F100034EEA817EB0EB73
:104330000E0061EB91014FEA101E4EEA017E10EB78
:104340000E0041EB11114FEA102E4EEA016E10EBF8
:104350000E0041EB11214FEA104E4EEA014E10EBD8
:104360000E0041EB1141401841F100014FEAD0002D
:1043700040EA41704FEAD10110EB80054FEA810419
:1043800044EA907444EB01046D1944EB0404521B9D
:10439000A3414FF0000348BF0A3200D530BD401C96
:1043A00041F1000130BD00002DE9F0411F460446F7
:1043B00003260168072A01F4006004DB08B116A592
:1043C00005E016A503E008B115A500E015A521F04C
:1043D00010002060A069C01EA0610FB1401EA06146
:1043E0002046FFF7FFFB4FB1D4E901213846904743
:1043F000206A401C2062C01C206206E0206AFAE7A6
:10440000D4E9012115F8010B9047761EF8D2204619
:10441000FFF7FEFBBDE8F0814E414E006E616E007D
:10442000494E4600696E66002DE9F0478146164602
:104430008AB0334878440DC88DE80D003048784480
:10444000801C03AC0DC884E80D0041F69B30084485
:10445000372190FBF1F290FBF1F5A5F1800501FB0E
:1044600012041B3C02D56442012000E00020DFF86A
:1044700090A080460027FA44AAF1BE0A0DE0E007AA
:1044800009D03246684607EB47010AEB810100F08C
:1044900030FB8DE8070064107F1C002CEFD1184F13
:1044A0007F44AC3F18E0E80714D007EB04100DF18F
:1044B000180A90E80E008AE80E00C068F04201D1A8
:1044C00098190890324606A903A800F012FB03AB26
:1044D00083E807006D10641C002DE4D13246694664
:1044E000B8F1000F03A802D000F0EFFA01E000F0ED
:1044F00000FBC9E90001C9F808200AB0BDE8F0874F
:10450000F423000000487047DC0500207546FFF7E3
:10451000F9FFAE4605006946534620F00700854680
:1045200018B020B5FCF7BAFABDE820404FF00006FD
:104530004FF000074FF000084FF0000B21F007018B
:10454000AC46ACE8C009ACE8C009ACE8C009ACE8CE
:10455000C0098D46704710B50446AFF30080204671
:10456000BDE81040FBF75BBE4FF0013C50F8042B58
:1045700051F8043B9A4221D1A2EB0C03934313EA76
:10458000CC1317D150F8042B51F8043B9A4215D1A3
:10459000A2EB0C03934313EACC130BD150F8042B7A
:1045A00051F8043B9A4209D1A2EB0C03934313EA5E
:1045B000CC13DBD04FF00000704700BFD01A01BA17
:1045C000B1FA81F101F0180122FA01F0CB40C1F1FA
:1045D0002001DBB2C0B2C01A2CFA01F3D11A914308
:1045E00011EAC311E6D170475FEA400C08BF91F0B1
:1045F000000F4FEA8C234FEAC12243EA51514FEAA0
:104600001C5018BF00F5F0404FEA300018BF41F0D1
:1046100000415FEA6C5C00F02980BCF1FF3F08BFFD
:1046200040F080407047130C06BF12044FF0100C8E
:104630004FF0000C130E04BF12020CF1080C130F04
:1046400004BF12010CF1040C930F04BF92000CF193
:10465000020CD30F04BF52000CF1010C11464FF0B5
:104660000002A0F11F00A0EB0C00704711F0004FFA
:1046700008BF704731F000413FF4D5AF0B0C06BFC7
:1046800009044FF0100C4FF0000C0B0E04BF090290
:104690000CF1080C0B0F04BF09010CF1040C8B0F7B
:1046A00004BF89000CF1020CCB0F04BF49000CF1D0
:1046B000010CCCF12003A0EB0C0022FA03F302FA68
:1046C0000CF241EA030100F10100704720F07F4C39
:1046D00080EA030023F07F47ACEB070303F57C532C
:1046E00000F0004003F1FF032DE980494FEA154B2C
:1046F00009B44FEA144325EA0B4E24EA03480FF2AB
:10470000042606EB132749083E785FEA320203FBD2
:104710000667C7F5000707FB06F64FEA54374FEA6E
:10472000D64606F1020607FB066CCCF1005C4FEAA8
:104730001C472CEA074C07FB06F40CFB06F504EBC0
:1047400015464FEA961634BF00204FF000404FEA5E
:10475000D13706FB07FC4FEA1C4C0CFB0BF7D21BB6
:1047600003FB0CF761EB07010CFB0EF7B0EB074006
:1047700072EB17420CFB08F734BFA2EB0742B2EB17
:10478000074261EB17414FEA0C444FEA910706FBE1
:1047900007FC4FEA1C4C0CFB0BF7B0EBC74072EB6D
:1047A000573203FB0CF734BFA2EBC742B2EBC74250
:1047B00061EB57310CFB0EF7B0EBC70072EB577291
:1047C0000CFB08F734BFA2EBC702B2EBC70261EBE8
:1047D0005771039F4FEA816141EA921104EBCC04C7
:1047E0004FEAD1374FEA826206FB07FC42EA901299
:1047F0004FEA80604FEA1C4C0CFB0BF7D21B03FB0B
:104800000CF761EB07010CFB0EF7B0EB074072EB06
:1048100017420CFB08F734BFA2EB0742B2EB07428A
:1048200061EB17414FEA8C554FEA910704EB9C244A
:1048300006FB07FC4FEA1C4C0CFB0BF7B0EBC74028
:1048400072EB573203FB0CF734BFA2EBC742B2EB5B
:10485000C74261EB57310CFB0EF7B0EBC70072EBB0
:1048600057720CFB08F734BFA2EBC702B2EBC702CA
:1048700061EB577115EB4C254FEA816141EA9211CA
:104880004FEA82624FEAD13742EA901206FB07FCF8
:1048900044F100044FEA80604FEA1C4C0CFB0BF71C
:1048A000D21B03FB0CF761EB07010CFB0EF7B0EB1F
:1048B000074072EB17420CFB08F734BFA2EB07422C
:1048C000B2EB074261EB174115EB1C154FEA813142
:1048D00041EA92414FEA823242EA90424FEA803006
:1048E0004FEA0C7644F1000448EA03434EEA0B48D1
:1048F0004FF0000EB2EB080C71EB030724BF6246C9
:1049000039464EEB0E0E4FF0000B00185241494154
:104910004BEB0B0BB2EB080C71EB03077BF1000BBD
:1049200024BF624639464EEB0E0E4FF0000B0018C6
:10493000524149414BEB0B0BB2EB080C71EB0307F7
:104940007BF1000B24BF624639464EEB0E0E51EA56
:10495000020718BF46F0010616EB0E7655F100026D
:1049600054F1000103D5BDE88901BDE80088BDE828
:104970008901BDE80048B619524141EB0101A3F19C
:104980000103704780807F7E7D7C7B7A79787776A3
:1049900076757473727171706F6E6E6D6C6C6B6A1C
:1049A0006A696868676666656464636362616160BA
:1049B000605F5F5E5E5D5D5C5C5B5B5A5A59595837
:1049C00058575756565555555454535352525251A1
:1049D000515050504F4F4F4E4E4D4D4D4C4C4C4BF7
:1049E0004B4B4A4A4A49494948484847474747463E
:1049F000464645454544444444434343434242427A
:104A000042414141002B26D4770021D01CB54FEA0A
:104A1000370703B44FF010004FF010014FF00000C3
:104A20000FBCBDE810400BF1010BBBF1010F08BF3B
:104A30005FEA170722BF12F1010211F101014FF0E5
:104A4000004143F1000300F0004043EA00007047DA
:104A5000F9D35708DAE746EA064613F1400F4FEA62
:104A600016461FDD13F1200FDFBF16430A46002153
:104A700020335B42C8D0C3F1200746EA064602FA5B
:104A800007F74FEA164646EA0706C3F1200722FA5F
:104A900003F201FA07F721FA03F14FF0000342EAAB
:104AA0000702B1E746EA020646EA06464FEA16461C
:104AB00046EA0106BCBF46EA0646360C4FF0000344
:104AC0004FF000024FF000019EE72DE9C0489346E9
:104AD00030B491E8380007C831EA400C48BF34EAE6
:104AE000430C03D5FFF7F2FDFFF78CFFF0BCBDE8E8
:104AF00000882DE9C048934630B491E8380007C8D3
:104B000010F0804F08BF13F0804F03D100F005F87C
:104B1000FFF778FFF0BCBDE8008820F07F4780EA0F
:104B2000030023F07F4C07EB0C03A3F57C5300F04C
:104B30000040A3F1FE0392F0000F00F0B38095F067
:104B4000000F00F077802DE901494FEA11404FEA4C
:104B5000144621EA004800FB06FC24EA064708FB4D
:104B600006F607FB08F800FB07F718EB06484CEBC6
:104B7000164C4FEA124B18EB07484FEA15464CEB20
:104B8000174022EA0B4E0BFB06FC25EA06470EFBFC
:104B900006F607FB0EFE0BFB07F71EEB064E4CEB73
:104BA000164C4FF000061EEB074E4CEB174B18EB64
:104BB0000B0840F1000018EB0E0B58EB000840F119
:104BC00000008F1A4FF000013CBFC943661B14BFA1
:104BD000B5EB040C00213CBFC943F61B4FEA174458
:104BE0004EEA8E0E27EA04454FEA1C4704FB076293
:104BF0002CEA074C05FB07F70CFB05F604FB0CFC45
:104C000016EB074642EB174216EB0C4642EB1C42F2
:104C10001BEB060658EB0202414146EA9E0601D50F
:104C2000BDE80189B619524141EB0101A3F101032D
:104C3000BDE801894FEA14454FEA114724EA0546C9
:104C400021EA074C05FB07F406FB07F70CFB06F10E
:104C500005FB0CFC11EB074144EB17444FEA1247EC
:104C600011EB0C4144EB1C4422EA074C05FB07F214
:104C700006FB07F70CFB06F605FB0CFC16EB0746DC
:104C800042EB174216EB0C4642EB1C456A1854F1F6
:104C9000000148BF7047B619524141EB0101A3F131
:104CA0000103704795F0000F37D04FEA11424FEAE9
:104CB000144721EA024624EA074C02FB07F106FBEF
:104CC00007F70CFB06F402FB0CFC14EB074441EB6A
:104CD00017414FEA154714EB0C4441EB1C4125EA00
:104CE000074C02FB07F506FB07F70CFB06F602FB79
:104CF0000CFC16EB074645EB174516EB0C4645EB4F
:104D00001C42121951F1000148BF7047B6195241B7
:104D100041EB0101A3F1010370474FEA14454FEA4B
:104D2000114724EA054621EA074C05FB07F106FB7B
:104D300007F70CFB06F24FF0000605FB0CFC12EB2C
:104D4000074241EB174112EB0C4251EB1C4148BFAB
:104D50007047921841EB0101A3F10103704749002C
:104D600050EAC12018BF04204A0D18BF40F00100CE
:104D700040F2FF72B2EB515F08BF40F00200012821
:104D800008BF052070472DE9F0414F1E00EBC70119
:104D90000446D1E9000115461E4637F006020DD043
:104DA0002A46334600F0F6FD7F1E04EBC703D3E925
:104DB000002300F0CFFB37F00602F1D1022F25D0FF
:104DC000042F13D0062F18BFBDE8F0812A463346C2
:104DD00000F0E0FDD4E90A2300F0BCFB2A4633468C
:104DE00000F0D8FDD4E9082300F0B4FB2A4633468E
:104DF00000F0D0FDD4E9062300F0ACFB2A46334690
:104E000000F0C8FDD4E9042300F0A4FB2A46334691
:104E100000F0C0FDD4E9022300F09CFB2A46334693
:104E200000F0B8FDD4E90023BDE8F04100F092BBEA
:104E3000012201F0F4BB00F08DBB002213461046A6
:104E4000114600F037BC0000024A0020110701F0B3
:104E5000E6BB000001FDFFFF30380A2801D2012027
:104E600070470020704700002DE9F04D8D4F21F074
:104E7000004A86B005460C46BA452ADBAAEB070075
:104E800028430AD08848824501DC1AD1CDB106B04A
:104E90002846BDE8F04DFFF7CBBF844A844B284637
:104EA00000F078FD07460E46824A834B284621468D
:104EB00000F070FD06B03A463346BDE8F04D00F014
:104EC00049BB0120FEF797FF06B0BDE8F04DFFF7A4
:104ED000B4BF7A48824542DABAF1795F0BDA2846E4
:104EE000FFF73DFF042808BFFFF7AEFF284606B0D6
:104EF0002146BDE8F08D2A460B46104600F04AFDDB
:104F0000834602466E480E460B4606217844FFF75C
:104F10003AFF5A46334600F03DFD804669488A46CE
:104F20005A46334604217844FFF72DFF5A4633464C
:104F300000F030FD00223B4600F00CFB02460B4621
:104F40004046514600F0B6FB2A46234600F022FDBB
:104F500006B02A462346BDE8F04D00F0FBBA2846CD
:104F600024F0004100223D463B4600F011FE4FF088
:104F7000FF3201F054FB0646024653480F460B46EB
:104F800006217844FFF7FFFE32463B4600F002FD63
:104F9000CDE900014D4832463B4604217844FFF7F5
:104FA000F2FE32463B4600F0F5FC00222B4600F0B4
:104FB000D1FA834602913046394600F05DFA8046C8
:104FC00043480D46504517DCDDE900015A46029B77
:104FD00000F070FB42462B4600F0DCFC42462B46BC
:104FE00000F0B8FA012201F01AFB304A304B00F011
:104FF000C1FE304A304B4CE04FF0000A52460B469F
:10500000404600F0A7FACDE9031052462B46104661
:10501000194600F0BFFC32463B4600F0B9FDDDE921
:10502000033200F047FB06460F46DDE900015A4611
:10503000029B00F03FFB8346009101223046394637
:1050400001F0EDFA194A1A4B00F0A2FD06460F4690
:1050500001224046294601F0E2FA5A46009B00F040
:1050600099FC32463B4600F085FE06460F4601227B
:105070005046294601F0D3FA0E4DDFF858802A46F3
:10508000434600F085FD32463B4600F081FD2A464E
:10509000434600F07DFD002CD8BF81F0004106B0F2
:1050A000BDE8F08D0000F03F0000F07F075C143396
:1050B00026A6913C182D4454FB21F93F0000E03F07
:1050C000B0170000C61700003A1700005017000084
:1050D0003333EF3FFB21E93F2DE9F84F04460D46FE
:1050E00021F0004000917349814211DC72498842ED
:1050F00001DC06D12CB120462946BDE8F84FFFF768
:1051000097BE6E48002DCCBF6D496E49BDE8F88F43
:105110006D49814211DD6D498142D8BF4FF0FF36A4
:105120006DDD20462946FFF71AFE042808BFFFF769
:105130008BFE20462946BDE8F88F6549654F25F06E
:105140000045814233DD6449814219DD0026324643
:105150004FF080432046294600F0FCF980468A46FD
:1051600001222046294601F05AFA00223B4600F06F
:1051700001FE4246534600F09DFA04460D463EE0CD
:1051800001260022BA463B462046294600F0E2F9B5
:1051900080460F46002253462046294600F0EAFD8D
:1051A00042463B4600F086FA04460D4627E04B494E
:1051B00081421BDDDFF828A102260022534620464B
:1051C000294600F0E7FB00223B4600F0C3F9804689
:1051D0000F46002253462046294600F0CBFD4246AA
:1051E0003B4600F067FA04460D4608E003262246D7
:1051F0002B4600203B4900F05DFA04460D4622464E
:105200002B461046194600F0C5FB8B4682460246E7
:105210000B4600F0BFFB07460246334888460B4664
:1052200006217844FFF7AFFD52465B4600F0B2FB23
:1052300082462E488B463A46434605217844FFF77E
:10524000A2FD3A46434600F0A5FB02460B46002E5F
:10525000504659460CDA00F07DF922462B4600F004
:1052600099FB01B022462B46BDE8F04F00F090BC00
:1052700000F070F922462B4600F08CFB1C4A7A4461
:1052800002EBC603D3E9002300F074FD22462B464F
:1052900000F070FD174A7A4402EBC603D3E90023FD
:1052A00000F076FC009A002AB8BF81F00041BDE80A
:1052B000F88F0000000010440000F07F182D4454C7
:1052C000FB21F93FFB21F9BF0000DC3F0000203E3D
:1052D0000000F33F0000F03F0000E63F0080034085
:1052E0000000F83F0000F0BF52150000101500004C
:1052F000AE140000761400002DE9F04D9446CCF178
:10530000000423F000464CEA0404524F46EAD474E9
:105310009A46884621F00042BC4206D8454240EAFF
:10532000050442EAD474BC4204D9BDE8F04D62469B
:10533000FFF781BDAAF14055A5F17F6555EA0C0440
:105340000BD0022404EAAA74434DDFF810E144EACA
:10535000D87452EA000B04D00CE0BDE8F04DFFF722
:10536000BBBE002C14BF012CBDE8F08D022C30D048
:10537000032C32D056EA0C0B0AD0BE4220D1BA42DE
:1053800009D126F0804622F080423346114617E0CC
:1053900000291ADB25E0DFF8C8B0FB44002C04BF6D
:1053A000DBE90001BDE8F08D012C02BFDBE9000163
:1053B00081F00041BDE8F08D022C0AD0032C0CD006
:1053C000BA4212D1B8F1000F0BDA23482549BDE8E3
:1053D000F08D28462449BDE8F08D28467146BDE889
:1053E000F08D1D482149BDE8F08D921B12153C2A15
:1053F000C4BF19481D490EDCBAF1000FBEBF12F13F
:105400003C0F0020014606DB624600F053F921F014
:105410000041FFF761FE002C08BFBDE8F08D012CB4
:1054200004BF81F00041BDE8F08D114A114B022C00
:1054300007D000F09FFC2A46BDE8F04D0A4B00F073
:1054400099BC00F097FC2A46BDE8F04D064B00F0F1
:105450009FBB00000000F07F182D4454FB2109C0C1
:105460000A140000FB21F9BFFB210940FB21F93F91
:10547000075C143326A6A13C2DE9F04106460F46F1
:1054800000F092FB041E0D4618BF0120284320F0B7
:105490000040C0F17F6000F1E040C00F0ED0301C32
:1054A00018BF0120384320F00040C0F17F6000F1B8
:1054B000E040C00F04BF0120FEF79DFC20462946B6
:1054C000BDE8F08110B500290AD00878002807D07F
:1054D00005487844FFF748F8002801D0002010BDA7
:1054E0000248784410BD0000921300008A130000A7
:1054F00021F00042A2F16052B2F5801F01F000439A
:1055000028BFD2F17F6C0BD95FEA001C43EAC202CC
:1055100042EB507018BF704728BF20F00100704761
:10552000B2F5801FBCBF184670474FEA410C1CF50E
:10553000001F02D2084600F092BF70B500F0D4FA06
:1055400000000089FFF7F6BF4FF00040A0F5800093
:105550007047000010B591EA030F48BF83F0004385
:1055600000F11084841A71EB030C05D2121943EB7D
:105570000C03001B61EB0C01DFF824E14FEA11542E
:10558000A4EB135C1EEA430F18BF9EEA445F73D07E
:1055900023EA0E03DCF1200E21EA045143F48013C8
:1055A00032D322FA0CFE10EB0E0023FA0CFE41EB74
:1055B0000E01CCF1200E03FA0EFE10EB0E0051F19D
:1055C0000001B1F5801FCCF1200E32D201EB045165
:1055D00012FA0EF2BDE8104058BF7047401C38BFA9
:1055E0005FEA420218BF7047002814BF20F0010094
:1055F00041F100014FEA410313F5001F38BF704726
:10560000A1F1C04100F0BEBA012A43EB0302ACF1A4
:10561000200CDCF11F0E32BF4FF0000E23FA0CF30A
:1056200010EB030041EB0451B4EB115FD0D0A1EBC0
:10563000045101F5801149085FEA300001EB045183
:105640000ED350F1000038BF12FA0EFE08D1BDE8AB
:105650001040C9E7401C38BF5FEA4202CAD1C3E725
:10566000BDE810404FEA410313F5001F38BF7047F3
:10567000A1F1C04100F086BA9EEA445F08D011EA69
:105680005E0FBDE8104004BF01F0004100207047EC
:10569000BDE8104070B500F027FA00BF64FBBE3EC5
:1056A0000000E0FF02494FF0000000F086BF00BF9D
:1056B0000000F87F2DE9C04130B4DFF8A0C23CEA19
:1056C000111418BF3CEA131400F0EC8081EA0305C2
:1056D0001CEA111444EAD57418BF1CEA131500F033
:1056E000C780A4EB05044FF0004545EAC12145EA17
:1056F000C32341EA505143EA525304F17F74994263
:1057000004F500344FEAC0204FEAC22208BF90429D
:1057100000F09C804FEA13650FF24016765D4FEA69
:10572000134506FB05F7C7F1807706FB07F74FEA3D
:10573000D737A7FB03687642C8F58038A7FB06CEAB
:1057400038BFA8F1010807FB08E64FF0000EA6FBE2
:10575000028CE6FB03CEDCF1000CCEF1004E38BF2C
:10576000AEF1010EA6FB0C584FF000074FF00005FC
:10577000E6FB0E87A1FB08C6A0FB07CE16EB0E06C4
:1057800045F10005E1FB076515F1E04E7EBFA4F58C
:1057900080345FEA46066D4116F1800745F1000549
:1057A0004FEA17274FEA066647EA0567A6F1DE4685
:1057B000B6F1805F4FEA15251FD9384624F0010C59
:1057C00005EBC471BCF1FE6F01EB0C1102D8F0BC0B
:1057D000BDE8008124425CBF01F5801E9EEAC47FC3
:1057E00002D4F0BCBDE80081244238D4F0BCA1F161
:1057F000C041BDE8004100F0C5B94FEAD22242EAFB
:1058000043524FEAD323A7FB02864FEAD02040EA57
:10581000415007FB03661EEA0E0F4FEAD12105FB3C
:10582000026658BFA6EB0056B6EB00564FEA520E82
:105830004EEAC37E18EB0E0E56EB530EBDD518EB99
:1058400002085E417F1C55F10005B6E74FF4801554
:105850004FF000074FF000064FF00008ADE7F0BC36
:105860004FF0000001F1C04101F00041BDE80081AE
:1058700011EA0C1F0CEA131500D00CE013EA0C1F00
:1058800000F025804FF00000F0BC81EA030101F038
:105890000041BDE80081F0BCBDE8004181EA0301A0
:1058A00000F070B9F0BCBDE8004170B500F01CF923
:1058B000097EFC3E00F007B881EA03014FF00000CA
:1058C00001F00041704781EA030100F05BB9F0BCD0
:1058D000BDE800414FF0000021497047FFFDFBF992
:1058E000F7F5F4F2F0EEEDEBE9E8E6E4E3E1E0DE13
:1058F000DDDBDAD8D7D5D4D3D1D0CFCDCCCBCAC885
:10590000C7C6C5C4C2C1C0BFBEBDBCBBBAB9B8B7AB
:10591000B6B5B4B3B2B1B0AFAEADACABAAA9A8A89E
:10592000A7A6A5A4A3A3A2A1A09F9F9E9D9C9C9B6C
:105930009A99999897979695959493939291919017
:105940008F8F8E8E8D8C8C8B8B8A898988888787A8
:105950008685858484838382828181800000FF071D
:105960000000F87F10F0004248BF4042B0FA80F3D8
:1059700010FA03F10AD0C3F11D0303F580634FEA67
:10598000415002EB035202EBD12170474FF000006F
:1059900070470000DFF848C170B51CEA111E1EBF39
:1059A0001CEA13159EEA0C0F95EA0C0F00F06F80AD
:1059B00081EA030423EA4C134EEAD47E21EA4C1117
:1059C00041F4801143F48013AE44A1FB024CA0FBD0
:1059D0000365AEF17F7E361955EB0C05A1FB034C38
:1059E0004CF10003A0FB021C16EB0C06654153F1C1
:1059F0000003094218BF46F0010613F4007F0BD1E3
:105A00004FEA03314FEA0530340341EA155140EAC9
:105A100016506FF003020AE04FEAC3214FEAC52097
:105A2000F40241EA555140EA56506FF0020202EB8F
:105A30002E4201EB025585EACE710AD05FEA440C92
:105A400018BF24F0004450F1000041F1000120EAA9
:105A5000D47040F2FE7C624500D270BDA84214BFF3
:105A60004FF080444FF04044002E08BF0024BEF1A8
:105A7000806FA8BFA1F1C041BDE8704080F2828074
:105A80004FF0000001F1C04101F0004170479EEA73
:105A90000C0F0CEA131518BF95EA0C0F06D04FF047
:105AA000000081EA030E0EF0004170BD00F01CF80A
:105AB0008900013E00F007B800F009B84FEA430C36
:105AC0005FEA5C5C08D081EA030100F05BB84FEA52
:105AD000410C5FEA5C5CF6D14FF000000149704771
